{
	"SocialNetworkAuth.sol": {
		"SocialNetworkAuth": {
			"abi": [
				{
					"inputs": [],
					"stateMutability": "nonpayable",
					"type": "constructor"
				},
				{
					"anonymous": false,
					"inputs": [
						{
							"indexed": true,
							"internalType": "address",
							"name": "userAddress",
							"type": "address"
						}
					],
					"name": "AccountDeactivated",
					"type": "event"
				},
				{
					"anonymous": false,
					"inputs": [
						{
							"indexed": true,
							"internalType": "address",
							"name": "userAddress",
							"type": "address"
						}
					],
					"name": "AccountReactivated",
					"type": "event"
				},
				{
					"anonymous": false,
					"inputs": [
						{
							"indexed": true,
							"internalType": "address",
							"name": "userAddress",
							"type": "address"
						},
						{
							"indexed": false,
							"internalType": "string",
							"name": "newProfileHash",
							"type": "string"
						}
					],
					"name": "ProfileUpdated",
					"type": "event"
				},
				{
					"anonymous": false,
					"inputs": [
						{
							"indexed": true,
							"internalType": "address",
							"name": "userAddress",
							"type": "address"
						},
						{
							"indexed": false,
							"internalType": "string",
							"name": "username",
							"type": "string"
						},
						{
							"indexed": false,
							"internalType": "uint256",
							"name": "timestamp",
							"type": "uint256"
						}
					],
					"name": "UserRegistered",
					"type": "event"
				},
				{
					"inputs": [
						{
							"internalType": "address",
							"name": "_userAddress",
							"type": "address"
						}
					],
					"name": "adminDeactivate",
					"outputs": [],
					"stateMutability": "nonpayable",
					"type": "function"
				},
				{
					"inputs": [],
					"name": "deactivateAccount",
					"outputs": [],
					"stateMutability": "nonpayable",
					"type": "function"
				},
				{
					"inputs": [
						{
							"internalType": "string",
							"name": "_username",
							"type": "string"
						}
					],
					"name": "getAddressByUsername",
					"outputs": [
						{
							"internalType": "address",
							"name": "",
							"type": "address"
						}
					],
					"stateMutability": "view",
					"type": "function"
				},
				{
					"inputs": [
						{
							"internalType": "address",
							"name": "_userAddress",
							"type": "address"
						}
					],
					"name": "getUser",
					"outputs": [
						{
							"internalType": "string",
							"name": "username",
							"type": "string"
						},
						{
							"internalType": "string",
							"name": "encryptedEmail",
							"type": "string"
						},
						{
							"internalType": "string",
							"name": "profileHash",
							"type": "string"
						},
						{
							"internalType": "uint256",
							"name": "registrationDate",
							"type": "uint256"
						},
						{
							"internalType": "bool",
							"name": "isActive",
							"type": "bool"
						}
					],
					"stateMutability": "view",
					"type": "function"
				},
				{
					"inputs": [
						{
							"internalType": "address",
							"name": "_userAddress",
							"type": "address"
						}
					],
					"name": "isUserRegistered",
					"outputs": [
						{
							"internalType": "bool",
							"name": "",
							"type": "bool"
						}
					],
					"stateMutability": "view",
					"type": "function"
				},
				{
					"inputs": [],
					"name": "owner",
					"outputs": [
						{
							"internalType": "address",
							"name": "",
							"type": "address"
						}
					],
					"stateMutability": "view",
					"type": "function"
				},
				{
					"inputs": [],
					"name": "reactivateAccount",
					"outputs": [],
					"stateMutability": "nonpayable",
					"type": "function"
				},
				{
					"inputs": [
						{
							"internalType": "string",
							"name": "_username",
							"type": "string"
						},
						{
							"internalType": "string",
							"name": "_encryptedEmail",
							"type": "string"
						},
						{
							"internalType": "string",
							"name": "_profileHash",
							"type": "string"
						}
					],
					"name": "registerUser",
					"outputs": [],
					"stateMutability": "nonpayable",
					"type": "function"
				},
				{
					"inputs": [
						{
							"internalType": "string",
							"name": "_newProfileHash",
							"type": "string"
						}
					],
					"name": "updateProfile",
					"outputs": [],
					"stateMutability": "nonpayable",
					"type": "function"
				}
			],
			"devdoc": {
				"kind": "dev",
				"methods": {},
				"version": 1
			},
			"evm": {
				"assembly": "    /* \"SocialNetworkAuth.sol\":60:4694  contract SocialNetworkAuth {... */\n  mstore(0x40, 0x80)\n    /* \"SocialNetworkAuth.sol\":1407:1458  constructor() {... */\n  callvalue\n  dup1\n  iszero\n  tag_1\n  jumpi\n  revert(0x00, 0x00)\ntag_1:\n  pop\n    /* \"SocialNetworkAuth.sol\":1440:1450  msg.sender */\n  caller\n    /* \"SocialNetworkAuth.sol\":1432:1437  owner */\n  0x03\n  0x00\n    /* \"SocialNetworkAuth.sol\":1432:1450  owner = msg.sender */\n  0x0100\n  exp\n  dup2\n  sload\n  dup2\n  0xffffffffffffffffffffffffffffffffffffffff\n  mul\n  not\n  and\n  swap1\n  dup4\n  0xffffffffffffffffffffffffffffffffffffffff\n  and\n  mul\n  or\n  swap1\n  sstore\n  pop\n    /* \"SocialNetworkAuth.sol\":60:4694  contract SocialNetworkAuth {... */\n  dataSize(sub_0)\n  dup1\n  dataOffset(sub_0)\n  0x00\n  codecopy\n  0x00\n  return\nstop\n\nsub_0: assembly {\n        /* \"SocialNetworkAuth.sol\":60:4694  contract SocialNetworkAuth {... */\n      mstore(0x40, 0x80)\n      callvalue\n      dup1\n      iszero\n      tag_1\n      jumpi\n      revert(0x00, 0x00)\n    tag_1:\n      pop\n      jumpi(tag_2, lt(calldatasize, 0x04))\n      shr(0xe0, calldataload(0x00))\n      dup1\n      0x6f77926b\n      gt\n      tag_12\n      jumpi\n      dup1\n      0x6f77926b\n      eq\n      tag_7\n      jumpi\n      dup1\n      0x8da5cb5b\n      eq\n      tag_8\n      jumpi\n      dup1\n      0xd637dcfa\n      eq\n      tag_9\n      jumpi\n      dup1\n      0xe040e9a0\n      eq\n      tag_10\n      jumpi\n      dup1\n      0xf1d2fd78\n      eq\n      tag_11\n      jumpi\n      jump(tag_2)\n    tag_12:\n      dup1\n      0x9299e3\n      eq\n      tag_3\n      jumpi\n      dup1\n      0x163f7522\n      eq\n      tag_4\n      jumpi\n      dup1\n      0x5bbf11b2\n      eq\n      tag_5\n      jumpi\n      dup1\n      0x6322961d\n      eq\n      tag_6\n      jumpi\n    tag_2:\n      revert(0x00, 0x00)\n        /* \"SocialNetworkAuth.sol\":3163:3451  function updateProfile(string memory _newProfileHash) external onlyRegistered {... */\n    tag_3:\n      tag_13\n      0x04\n      dup1\n      calldatasize\n      sub\n      dup2\n      add\n      swap1\n      tag_14\n      swap2\n      swap1\n      tag_15\n      jump\t// in\n    tag_14:\n      tag_16\n      jump\t// in\n    tag_13:\n      stop\n        /* \"SocialNetworkAuth.sol\":3963:4099  function isUserRegistered(address _userAddress) external view returns (bool) {... */\n    tag_4:\n      tag_17\n      0x04\n      dup1\n      calldatasize\n      sub\n      dup2\n      add\n      swap1\n      tag_18\n      swap2\n      swap1\n      tag_19\n      jump\t// in\n    tag_18:\n      tag_20\n      jump\t// in\n    tag_17:\n      mload(0x40)\n      tag_21\n      swap2\n      swap1\n      tag_22\n      jump\t// in\n    tag_21:\n      mload(0x40)\n      dup1\n      swap2\n      sub\n      swap1\n      return\n        /* \"SocialNetworkAuth.sol\":3723:3874  function reactivateAccount() external onlyRegistered {... */\n    tag_5:\n      tag_23\n      tag_24\n      jump\t// in\n    tag_23:\n      stop\n        /* \"SocialNetworkAuth.sol\":4192:4333  function getAddressByUsername(string memory _username) external view returns (address) {... */\n    tag_6:\n      tag_25\n      0x04\n      dup1\n      calldatasize\n      sub\n      dup2\n      add\n      swap1\n      tag_26\n      swap2\n      swap1\n      tag_15\n      jump\t// in\n    tag_26:\n      tag_27\n      jump\t// in\n    tag_25:\n      mload(0x40)\n      tag_28\n      swap2\n      swap1\n      tag_29\n      jump\t// in\n    tag_28:\n      mload(0x40)\n      dup1\n      swap2\n      sub\n      swap1\n      return\n        /* \"SocialNetworkAuth.sol\":2557:3107  function getUser(address _userAddress) external view returns (... */\n    tag_7:\n      tag_30\n      0x04\n      dup1\n      calldatasize\n      sub\n      dup2\n      add\n      swap1\n      tag_31\n      swap2\n      swap1\n      tag_19\n      jump\t// in\n    tag_31:\n      tag_32\n      jump\t// in\n    tag_30:\n      mload(0x40)\n      tag_33\n      swap6\n      swap5\n      swap4\n      swap3\n      swap2\n      swap1\n      tag_34\n      jump\t// in\n    tag_33:\n      mload(0x40)\n      dup1\n      swap2\n      sub\n      swap1\n      return\n        /* \"SocialNetworkAuth.sol\":696:716  address public owner */\n    tag_8:\n      tag_35\n      tag_36\n      jump\t// in\n    tag_35:\n      mload(0x40)\n      tag_37\n      swap2\n      swap1\n      tag_29\n      jump\t// in\n    tag_37:\n      mload(0x40)\n      dup1\n      swap2\n      sub\n      swap1\n      return\n        /* \"SocialNetworkAuth.sol\":1554:2480  function registerUser(... */\n    tag_9:\n      tag_38\n      0x04\n      dup1\n      calldatasize\n      sub\n      dup2\n      add\n      swap1\n      tag_39\n      swap2\n      swap1\n      tag_40\n      jump\t// in\n    tag_39:\n      tag_41\n      jump\t// in\n    tag_38:\n      stop\n        /* \"SocialNetworkAuth.sol\":3511:3663  function deactivateAccount() external onlyRegistered {... */\n    tag_10:\n      tag_42\n      tag_43\n      jump\t// in\n    tag_42:\n      stop\n        /* \"SocialNetworkAuth.sol\":4451:4691  function adminDeactivate(address _userAddress) external onlyOwner {... */\n    tag_11:\n      tag_44\n      0x04\n      dup1\n      calldatasize\n      sub\n      dup2\n      add\n      swap1\n      tag_45\n      swap2\n      swap1\n      tag_19\n      jump\t// in\n    tag_45:\n      tag_46\n      jump\t// in\n    tag_44:\n      stop\n        /* \"SocialNetworkAuth.sol\":3163:3451  function updateProfile(string memory _newProfileHash) external onlyRegistered {... */\n    tag_16:\n        /* \"SocialNetworkAuth.sol\":1320:1339  registeredAddresses */\n      0x02\n        /* \"SocialNetworkAuth.sol\":1320:1351  registeredAddresses[msg.sender] */\n      0x00\n        /* \"SocialNetworkAuth.sol\":1340:1350  msg.sender */\n      caller\n        /* \"SocialNetworkAuth.sol\":1320:1351  registeredAddresses[msg.sender] */\n      0xffffffffffffffffffffffffffffffffffffffff\n      and\n      0xffffffffffffffffffffffffffffffffffffffff\n      and\n      dup2\n      mstore\n      0x20\n      add\n      swap1\n      dup2\n      mstore\n      0x20\n      add\n      0x00\n      keccak256\n      0x00\n      swap1\n      sload\n      swap1\n      0x0100\n      exp\n      swap1\n      div\n      0xff\n      and\n        /* \"SocialNetworkAuth.sol\":1312:1375  require(registeredAddresses[msg.sender], \"User not registered\") */\n      tag_48\n      jumpi\n      mload(0x40)\n      0x08c379a000000000000000000000000000000000000000000000000000000000\n      dup2\n      mstore\n      0x04\n      add\n      tag_49\n      swap1\n      tag_50\n      jump\t// in\n    tag_49:\n      mload(0x40)\n      dup1\n      swap2\n      sub\n      swap1\n      revert\n    tag_48:\n        /* \"SocialNetworkAuth.sol\":3292:3293  0 */\n      0x00\n        /* \"SocialNetworkAuth.sol\":3266:3281  _newProfileHash */\n      dup2\n        /* \"SocialNetworkAuth.sol\":3260:3289  bytes(_newProfileHash).length */\n      mload\n        /* \"SocialNetworkAuth.sol\":3260:3293  bytes(_newProfileHash).length > 0 */\n      gt\n        /* \"SocialNetworkAuth.sol\":3252:3326  require(bytes(_newProfileHash).length > 0, \"Profile hash cannot be empty\") */\n      tag_52\n      jumpi\n      mload(0x40)\n      0x08c379a000000000000000000000000000000000000000000000000000000000\n      dup2\n      mstore\n      0x04\n      add\n      tag_53\n      swap1\n      tag_54\n      jump\t// in\n    tag_53:\n      mload(0x40)\n      dup1\n      swap2\n      sub\n      swap1\n      revert\n    tag_52:\n        /* \"SocialNetworkAuth.sol\":3369:3384  _newProfileHash */\n      dup1\n        /* \"SocialNetworkAuth.sol\":3337:3342  users */\n      0x00\n        /* \"SocialNetworkAuth.sol\":3337:3354  users[msg.sender] */\n      0x00\n        /* \"SocialNetworkAuth.sol\":3343:3353  msg.sender */\n      caller\n        /* \"SocialNetworkAuth.sol\":3337:3354  users[msg.sender] */\n      0xffffffffffffffffffffffffffffffffffffffff\n      and\n      0xffffffffffffffffffffffffffffffffffffffff\n      and\n      dup2\n      mstore\n      0x20\n      add\n      swap1\n      dup2\n      mstore\n      0x20\n      add\n      0x00\n      keccak256\n        /* \"SocialNetworkAuth.sol\":3337:3366  users[msg.sender].profileHash */\n      0x02\n      add\n        /* \"SocialNetworkAuth.sol\":3337:3384  users[msg.sender].profileHash = _newProfileHash */\n      swap1\n      dup2\n      tag_55\n      swap2\n      swap1\n      tag_56\n      jump\t// in\n    tag_55:\n      pop\n        /* \"SocialNetworkAuth.sol\":3415:3425  msg.sender */\n      caller\n        /* \"SocialNetworkAuth.sol\":3400:3443  ProfileUpdated(msg.sender, _newProfileHash) */\n      0xffffffffffffffffffffffffffffffffffffffff\n      and\n      0xdd635a4cd84864e37e4479dbfc2ec667acfa473c83c8422a8ac9d9d07599b01c\n        /* \"SocialNetworkAuth.sol\":3427:3442  _newProfileHash */\n      dup3\n        /* \"SocialNetworkAuth.sol\":3400:3443  ProfileUpdated(msg.sender, _newProfileHash) */\n      mload(0x40)\n      tag_57\n      swap2\n      swap1\n      tag_58\n      jump\t// in\n    tag_57:\n      mload(0x40)\n      dup1\n      swap2\n      sub\n      swap1\n      log2\n        /* \"SocialNetworkAuth.sol\":3163:3451  function updateProfile(string memory _newProfileHash) external onlyRegistered {... */\n      pop\n      jump\t// out\n        /* \"SocialNetworkAuth.sol\":3963:4099  function isUserRegistered(address _userAddress) external view returns (bool) {... */\n    tag_20:\n        /* \"SocialNetworkAuth.sol\":4034:4038  bool */\n      0x00\n        /* \"SocialNetworkAuth.sol\":4058:4077  registeredAddresses */\n      0x02\n        /* \"SocialNetworkAuth.sol\":4058:4091  registeredAddresses[_userAddress] */\n      0x00\n        /* \"SocialNetworkAuth.sol\":4078:4090  _userAddress */\n      dup4\n        /* \"SocialNetworkAuth.sol\":4058:4091  registeredAddresses[_userAddress] */\n      0xffffffffffffffffffffffffffffffffffffffff\n      and\n      0xffffffffffffffffffffffffffffffffffffffff\n      and\n      dup2\n      mstore\n      0x20\n      add\n      swap1\n      dup2\n      mstore\n      0x20\n      add\n      0x00\n      keccak256\n      0x00\n      swap1\n      sload\n      swap1\n      0x0100\n      exp\n      swap1\n      div\n      0xff\n      and\n        /* \"SocialNetworkAuth.sol\":4051:4091  return registeredAddresses[_userAddress] */\n      swap1\n      pop\n        /* \"SocialNetworkAuth.sol\":3963:4099  function isUserRegistered(address _userAddress) external view returns (bool) {... */\n      swap2\n      swap1\n      pop\n      jump\t// out\n        /* \"SocialNetworkAuth.sol\":3723:3874  function reactivateAccount() external onlyRegistered {... */\n    tag_24:\n        /* \"SocialNetworkAuth.sol\":1320:1339  registeredAddresses */\n      0x02\n        /* \"SocialNetworkAuth.sol\":1320:1351  registeredAddresses[msg.sender] */\n      0x00\n        /* \"SocialNetworkAuth.sol\":1340:1350  msg.sender */\n      caller\n        /* \"SocialNetworkAuth.sol\":1320:1351  registeredAddresses[msg.sender] */\n      0xffffffffffffffffffffffffffffffffffffffff\n      and\n      0xffffffffffffffffffffffffffffffffffffffff\n      and\n      dup2\n      mstore\n      0x20\n      add\n      swap1\n      dup2\n      mstore\n      0x20\n      add\n      0x00\n      keccak256\n      0x00\n      swap1\n      sload\n      swap1\n      0x0100\n      exp\n      swap1\n      div\n      0xff\n      and\n        /* \"SocialNetworkAuth.sol\":1312:1375  require(registeredAddresses[msg.sender], \"User not registered\") */\n      tag_61\n      jumpi\n      mload(0x40)\n      0x08c379a000000000000000000000000000000000000000000000000000000000\n      dup2\n      mstore\n      0x04\n      add\n      tag_62\n      swap1\n      tag_50\n      jump\t// in\n    tag_62:\n      mload(0x40)\n      dup1\n      swap2\n      sub\n      swap1\n      revert\n    tag_61:\n        /* \"SocialNetworkAuth.sol\":3816:3820  true */\n      0x01\n        /* \"SocialNetworkAuth.sol\":3787:3792  users */\n      0x00\n        /* \"SocialNetworkAuth.sol\":3787:3804  users[msg.sender] */\n      0x00\n        /* \"SocialNetworkAuth.sol\":3793:3803  msg.sender */\n      caller\n        /* \"SocialNetworkAuth.sol\":3787:3804  users[msg.sender] */\n      0xffffffffffffffffffffffffffffffffffffffff\n      and\n      0xffffffffffffffffffffffffffffffffffffffff\n      and\n      dup2\n      mstore\n      0x20\n      add\n      swap1\n      dup2\n      mstore\n      0x20\n      add\n      0x00\n      keccak256\n        /* \"SocialNetworkAuth.sol\":3787:3813  users[msg.sender].isActive */\n      0x04\n      add\n      0x00\n        /* \"SocialNetworkAuth.sol\":3787:3820  users[msg.sender].isActive = true */\n      0x0100\n      exp\n      dup2\n      sload\n      dup2\n      0xff\n      mul\n      not\n      and\n      swap1\n      dup4\n      iszero\n      iszero\n      mul\n      or\n      swap1\n      sstore\n      pop\n        /* \"SocialNetworkAuth.sol\":3855:3865  msg.sender */\n      caller\n        /* \"SocialNetworkAuth.sol\":3836:3866  AccountReactivated(msg.sender) */\n      0xffffffffffffffffffffffffffffffffffffffff\n      and\n      0xe59051bfc78cdbcab6d5743d762e138b550c6c7c41db05ee5d0812ba1be1176c\n      mload(0x40)\n      mload(0x40)\n      dup1\n      swap2\n      sub\n      swap1\n      log2\n        /* \"SocialNetworkAuth.sol\":3723:3874  function reactivateAccount() external onlyRegistered {... */\n      jump\t// out\n        /* \"SocialNetworkAuth.sol\":4192:4333  function getAddressByUsername(string memory _username) external view returns (address) {... */\n    tag_27:\n        /* \"SocialNetworkAuth.sol\":4270:4277  address */\n      0x00\n        /* \"SocialNetworkAuth.sol\":4297:4314  usernameToAddress */\n      0x01\n        /* \"SocialNetworkAuth.sol\":4315:4324  _username */\n      dup3\n        /* \"SocialNetworkAuth.sol\":4297:4325  usernameToAddress[_username] */\n      mload(0x40)\n      tag_65\n      swap2\n      swap1\n      tag_66\n      jump\t// in\n    tag_65:\n      swap1\n      dup2\n      mstore\n      0x20\n      add\n      mload(0x40)\n      dup1\n      swap2\n      sub\n      swap1\n      keccak256\n      0x00\n      swap1\n      sload\n      swap1\n      0x0100\n      exp\n      swap1\n      div\n      0xffffffffffffffffffffffffffffffffffffffff\n      and\n        /* \"SocialNetworkAuth.sol\":4290:4325  return usernameToAddress[_username] */\n      swap1\n      pop\n        /* \"SocialNetworkAuth.sol\":4192:4333  function getAddressByUsername(string memory _username) external view returns (address) {... */\n      swap2\n      swap1\n      pop\n      jump\t// out\n        /* \"SocialNetworkAuth.sol\":2557:3107  function getUser(address _userAddress) external view returns (... */\n    tag_32:\n        /* \"SocialNetworkAuth.sol\":2629:2651  string memory username */\n      0x60\n        /* \"SocialNetworkAuth.sol\":2662:2690  string memory encryptedEmail */\n      dup1\n        /* \"SocialNetworkAuth.sol\":2701:2726  string memory profileHash */\n      0x60\n        /* \"SocialNetworkAuth.sol\":2737:2761  uint256 registrationDate */\n      0x00\n        /* \"SocialNetworkAuth.sol\":2772:2785  bool isActive */\n      0x00\n        /* \"SocialNetworkAuth.sol\":2812:2831  registeredAddresses */\n      0x02\n        /* \"SocialNetworkAuth.sol\":2812:2845  registeredAddresses[_userAddress] */\n      0x00\n        /* \"SocialNetworkAuth.sol\":2832:2844  _userAddress */\n      dup8\n        /* \"SocialNetworkAuth.sol\":2812:2845  registeredAddresses[_userAddress] */\n      0xffffffffffffffffffffffffffffffffffffffff\n      and\n      0xffffffffffffffffffffffffffffffffffffffff\n      and\n      dup2\n      mstore\n      0x20\n      add\n      swap1\n      dup2\n      mstore\n      0x20\n      add\n      0x00\n      keccak256\n      0x00\n      swap1\n      sload\n      swap1\n      0x0100\n      exp\n      swap1\n      div\n      0xff\n      and\n        /* \"SocialNetworkAuth.sol\":2804:2864  require(registeredAddresses[_userAddress], \"User not found\") */\n      tag_68\n      jumpi\n      mload(0x40)\n      0x08c379a000000000000000000000000000000000000000000000000000000000\n      dup2\n      mstore\n      0x04\n      add\n      tag_69\n      swap1\n      tag_70\n      jump\t// in\n    tag_69:\n      mload(0x40)\n      dup1\n      swap2\n      sub\n      swap1\n      revert\n    tag_68:\n        /* \"SocialNetworkAuth.sol\":2875:2891  User memory user */\n      0x00\n        /* \"SocialNetworkAuth.sol\":2894:2899  users */\n      0x00\n        /* \"SocialNetworkAuth.sol\":2894:2913  users[_userAddress] */\n      0x00\n        /* \"SocialNetworkAuth.sol\":2900:2912  _userAddress */\n      dup9\n        /* \"SocialNetworkAuth.sol\":2894:2913  users[_userAddress] */\n      0xffffffffffffffffffffffffffffffffffffffff\n      and\n      0xffffffffffffffffffffffffffffffffffffffff\n      and\n      dup2\n      mstore\n      0x20\n      add\n      swap1\n      dup2\n      mstore\n      0x20\n      add\n      0x00\n      keccak256\n        /* \"SocialNetworkAuth.sol\":2875:2913  User memory user = users[_userAddress] */\n      mload(0x40)\n      dup1\n      0xa0\n      add\n      0x40\n      mstore\n      swap1\n      dup2\n      0x00\n      dup3\n      add\n      dup1\n      sload\n      tag_71\n      swap1\n      tag_72\n      jump\t// in\n    tag_71:\n      dup1\n      0x1f\n      add\n      0x20\n      dup1\n      swap2\n      div\n      mul\n      0x20\n      add\n      mload(0x40)\n      swap1\n      dup2\n      add\n      0x40\n      mstore\n      dup1\n      swap3\n      swap2\n      swap1\n      dup2\n      dup2\n      mstore\n      0x20\n      add\n      dup3\n      dup1\n      sload\n      tag_73\n      swap1\n      tag_72\n      jump\t// in\n    tag_73:\n      dup1\n      iszero\n      tag_74\n      jumpi\n      dup1\n      0x1f\n      lt\n      tag_75\n      jumpi\n      0x0100\n      dup1\n      dup4\n      sload\n      div\n      mul\n      dup4\n      mstore\n      swap2\n      0x20\n      add\n      swap2\n      jump(tag_74)\n    tag_75:\n      dup3\n      add\n      swap2\n      swap1\n      0x00\n      mstore\n      keccak256(0x00, 0x20)\n      swap1\n    tag_76:\n      dup2\n      sload\n      dup2\n      mstore\n      swap1\n      0x01\n      add\n      swap1\n      0x20\n      add\n      dup1\n      dup4\n      gt\n      tag_76\n      jumpi\n      dup3\n      swap1\n      sub\n      0x1f\n      and\n      dup3\n      add\n      swap2\n    tag_74:\n      pop\n      pop\n      pop\n      pop\n      pop\n      dup2\n      mstore\n      0x20\n      add\n      0x01\n      dup3\n      add\n      dup1\n      sload\n      tag_77\n      swap1\n      tag_72\n      jump\t// in\n    tag_77:\n      dup1\n      0x1f\n      add\n      0x20\n      dup1\n      swap2\n      div\n      mul\n      0x20\n      add\n      mload(0x40)\n      swap1\n      dup2\n      add\n      0x40\n      mstore\n      dup1\n      swap3\n      swap2\n      swap1\n      dup2\n      dup2\n      mstore\n      0x20\n      add\n      dup3\n      dup1\n      sload\n      tag_78\n      swap1\n      tag_72\n      jump\t// in\n    tag_78:\n      dup1\n      iszero\n      tag_79\n      jumpi\n      dup1\n      0x1f\n      lt\n      tag_80\n      jumpi\n      0x0100\n      dup1\n      dup4\n      sload\n      div\n      mul\n      dup4\n      mstore\n      swap2\n      0x20\n      add\n      swap2\n      jump(tag_79)\n    tag_80:\n      dup3\n      add\n      swap2\n      swap1\n      0x00\n      mstore\n      keccak256(0x00, 0x20)\n      swap1\n    tag_81:\n      dup2\n      sload\n      dup2\n      mstore\n      swap1\n      0x01\n      add\n      swap1\n      0x20\n      add\n      dup1\n      dup4\n      gt\n      tag_81\n      jumpi\n      dup3\n      swap1\n      sub\n      0x1f\n      and\n      dup3\n      add\n      swap2\n    tag_79:\n      pop\n      pop\n      pop\n      pop\n      pop\n      dup2\n      mstore\n      0x20\n      add\n      0x02\n      dup3\n      add\n      dup1\n      sload\n      tag_82\n      swap1\n      tag_72\n      jump\t// in\n    tag_82:\n      dup1\n      0x1f\n      add\n      0x20\n      dup1\n      swap2\n      div\n      mul\n      0x20\n      add\n      mload(0x40)\n      swap1\n      dup2\n      add\n      0x40\n      mstore\n      dup1\n      swap3\n      swap2\n      swap1\n      dup2\n      dup2\n      mstore\n      0x20\n      add\n      dup3\n      dup1\n      sload\n      tag_83\n      swap1\n      tag_72\n      jump\t// in\n    tag_83:\n      dup1\n      iszero\n      tag_84\n      jumpi\n      dup1\n      0x1f\n      lt\n      tag_85\n      jumpi\n      0x0100\n      dup1\n      dup4\n      sload\n      div\n      mul\n      dup4\n      mstore\n      swap2\n      0x20\n      add\n      swap2\n      jump(tag_84)\n    tag_85:\n      dup3\n      add\n      swap2\n      swap1\n      0x00\n      mstore\n      keccak256(0x00, 0x20)\n      swap1\n    tag_86:\n      dup2\n      sload\n      dup2\n      mstore\n      swap1\n      0x01\n      add\n      swap1\n      0x20\n      add\n      dup1\n      dup4\n      gt\n      tag_86\n      jumpi\n      dup3\n      swap1\n      sub\n      0x1f\n      and\n      dup3\n      add\n      swap2\n    tag_84:\n      pop\n      pop\n      pop\n      pop\n      pop\n      dup2\n      mstore\n      0x20\n      add\n      0x03\n      dup3\n      add\n      sload\n      dup2\n      mstore\n      0x20\n      add\n      0x04\n      dup3\n      add\n      0x00\n      swap1\n      sload\n      swap1\n      0x0100\n      exp\n      swap1\n      div\n      0xff\n      and\n      iszero\n      iszero\n      iszero\n      iszero\n      dup2\n      mstore\n      pop\n      pop\n      swap1\n      pop\n        /* \"SocialNetworkAuth.sol\":2946:2950  user */\n      dup1\n        /* \"SocialNetworkAuth.sol\":2946:2959  user.username */\n      0x00\n      add\n      mload\n        /* \"SocialNetworkAuth.sol\":2974:2978  user */\n      dup2\n        /* \"SocialNetworkAuth.sol\":2974:2993  user.encryptedEmail */\n      0x20\n      add\n      mload\n        /* \"SocialNetworkAuth.sol\":3008:3012  user */\n      dup3\n        /* \"SocialNetworkAuth.sol\":3008:3024  user.profileHash */\n      0x40\n      add\n      mload\n        /* \"SocialNetworkAuth.sol\":3039:3043  user */\n      dup4\n        /* \"SocialNetworkAuth.sol\":3039:3060  user.registrationDate */\n      0x60\n      add\n      mload\n        /* \"SocialNetworkAuth.sol\":3075:3079  user */\n      dup5\n        /* \"SocialNetworkAuth.sol\":3075:3088  user.isActive */\n      0x80\n      add\n      mload\n        /* \"SocialNetworkAuth.sol\":2924:3099  return (... */\n      swap6\n      pop\n      swap6\n      pop\n      swap6\n      pop\n      swap6\n      pop\n      swap6\n      pop\n      pop\n        /* \"SocialNetworkAuth.sol\":2557:3107  function getUser(address _userAddress) external view returns (... */\n      swap2\n      swap4\n      swap6\n      swap1\n      swap3\n      swap5\n      pop\n      jump\t// out\n        /* \"SocialNetworkAuth.sol\":696:716  address public owner */\n    tag_36:\n      0x03\n      0x00\n      swap1\n      sload\n      swap1\n      0x0100\n      exp\n      swap1\n      div\n      0xffffffffffffffffffffffffffffffffffffffff\n      and\n      dup2\n      jump\t// out\n        /* \"SocialNetworkAuth.sol\":1554:2480  function registerUser(... */\n    tag_41:\n        /* \"SocialNetworkAuth.sol\":1748:1749  0 */\n      0x00\n        /* \"SocialNetworkAuth.sol\":1728:1737  _username */\n      dup4\n        /* \"SocialNetworkAuth.sol\":1722:1745  bytes(_username).length */\n      mload\n        /* \"SocialNetworkAuth.sol\":1722:1749  bytes(_username).length > 0 */\n      gt\n        /* \"SocialNetworkAuth.sol\":1714:1778  require(bytes(_username).length > 0, \"Username cannot be empty\") */\n      tag_88\n      jumpi\n      mload(0x40)\n      0x08c379a000000000000000000000000000000000000000000000000000000000\n      dup2\n      mstore\n      0x04\n      add\n      tag_89\n      swap1\n      tag_90\n      jump\t// in\n    tag_89:\n      mload(0x40)\n      dup1\n      swap2\n      sub\n      swap1\n      revert\n    tag_88:\n        /* \"SocialNetworkAuth.sol\":1829:1830  0 */\n      0x00\n        /* \"SocialNetworkAuth.sol\":1803:1818  _encryptedEmail */\n      dup3\n        /* \"SocialNetworkAuth.sol\":1797:1826  bytes(_encryptedEmail).length */\n      mload\n        /* \"SocialNetworkAuth.sol\":1797:1830  bytes(_encryptedEmail).length > 0 */\n      gt\n        /* \"SocialNetworkAuth.sol\":1789:1856  require(bytes(_encryptedEmail).length > 0, \"Email cannot be empty\") */\n      tag_91\n      jumpi\n      mload(0x40)\n      0x08c379a000000000000000000000000000000000000000000000000000000000\n      dup2\n      mstore\n      0x04\n      add\n      tag_92\n      swap1\n      tag_93\n      jump\t// in\n    tag_92:\n      mload(0x40)\n      dup1\n      swap2\n      sub\n      swap1\n      revert\n    tag_91:\n        /* \"SocialNetworkAuth.sol\":1915:1916  0 */\n      0x00\n        /* \"SocialNetworkAuth.sol\":1875:1917  usernameToAddress[_username] == address(0) */\n      0xffffffffffffffffffffffffffffffffffffffff\n      and\n        /* \"SocialNetworkAuth.sol\":1875:1892  usernameToAddress */\n      0x01\n        /* \"SocialNetworkAuth.sol\":1893:1902  _username */\n      dup5\n        /* \"SocialNetworkAuth.sol\":1875:1903  usernameToAddress[_username] */\n      mload(0x40)\n      tag_94\n      swap2\n      swap1\n      tag_66\n      jump\t// in\n    tag_94:\n      swap1\n      dup2\n      mstore\n      0x20\n      add\n      mload(0x40)\n      dup1\n      swap2\n      sub\n      swap1\n      keccak256\n      0x00\n      swap1\n      sload\n      swap1\n      0x0100\n      exp\n      swap1\n      div\n      0xffffffffffffffffffffffffffffffffffffffff\n      and\n        /* \"SocialNetworkAuth.sol\":1875:1917  usernameToAddress[_username] == address(0) */\n      0xffffffffffffffffffffffffffffffffffffffff\n      and\n      eq\n        /* \"SocialNetworkAuth.sol\":1867:1944  require(usernameToAddress[_username] == address(0), \"Username already taken\") */\n      tag_95\n      jumpi\n      mload(0x40)\n      0x08c379a000000000000000000000000000000000000000000000000000000000\n      dup2\n      mstore\n      0x04\n      add\n      tag_96\n      swap1\n      tag_97\n      jump\t// in\n    tag_96:\n      mload(0x40)\n      dup1\n      swap2\n      sub\n      swap1\n      revert\n    tag_95:\n        /* \"SocialNetworkAuth.sol\":1964:1983  registeredAddresses */\n      0x02\n        /* \"SocialNetworkAuth.sol\":1964:1995  registeredAddresses[msg.sender] */\n      0x00\n        /* \"SocialNetworkAuth.sol\":1984:1994  msg.sender */\n      caller\n        /* \"SocialNetworkAuth.sol\":1964:1995  registeredAddresses[msg.sender] */\n      0xffffffffffffffffffffffffffffffffffffffff\n      and\n      0xffffffffffffffffffffffffffffffffffffffff\n      and\n      dup2\n      mstore\n      0x20\n      add\n      swap1\n      dup2\n      mstore\n      0x20\n      add\n      0x00\n      keccak256\n      0x00\n      swap1\n      sload\n      swap1\n      0x0100\n      exp\n      swap1\n      div\n      0xff\n      and\n        /* \"SocialNetworkAuth.sol\":1963:1995  !registeredAddresses[msg.sender] */\n      iszero\n        /* \"SocialNetworkAuth.sol\":1955:2026  require(!registeredAddresses[msg.sender], \"Address already registered\") */\n      tag_98\n      jumpi\n      mload(0x40)\n      0x08c379a000000000000000000000000000000000000000000000000000000000\n      dup2\n      mstore\n      0x04\n      add\n      tag_99\n      swap1\n      tag_100\n      jump\t// in\n    tag_99:\n      mload(0x40)\n      dup1\n      swap2\n      sub\n      swap1\n      revert\n    tag_98:\n        /* \"SocialNetworkAuth.sol\":2067:2281  User({... */\n      mload(0x40)\n      dup1\n      0xa0\n      add\n      0x40\n      mstore\n      dup1\n        /* \"SocialNetworkAuth.sol\":2097:2106  _username */\n      dup5\n        /* \"SocialNetworkAuth.sol\":2067:2281  User({... */\n      dup2\n      mstore\n      0x20\n      add\n        /* \"SocialNetworkAuth.sol\":2137:2152  _encryptedEmail */\n      dup4\n        /* \"SocialNetworkAuth.sol\":2067:2281  User({... */\n      dup2\n      mstore\n      0x20\n      add\n        /* \"SocialNetworkAuth.sol\":2180:2192  _profileHash */\n      dup3\n        /* \"SocialNetworkAuth.sol\":2067:2281  User({... */\n      dup2\n      mstore\n      0x20\n      add\n        /* \"SocialNetworkAuth.sol\":2225:2240  block.timestamp */\n      timestamp\n        /* \"SocialNetworkAuth.sol\":2067:2281  User({... */\n      dup2\n      mstore\n      0x20\n      add\n        /* \"SocialNetworkAuth.sol\":2265:2269  true */\n      0x01\n        /* \"SocialNetworkAuth.sol\":2067:2281  User({... */\n      iszero\n      iszero\n      dup2\n      mstore\n      pop\n        /* \"SocialNetworkAuth.sol\":2047:2052  users */\n      0x00\n        /* \"SocialNetworkAuth.sol\":2047:2064  users[msg.sender] */\n      0x00\n        /* \"SocialNetworkAuth.sol\":2053:2063  msg.sender */\n      caller\n        /* \"SocialNetworkAuth.sol\":2047:2064  users[msg.sender] */\n      0xffffffffffffffffffffffffffffffffffffffff\n      and\n      0xffffffffffffffffffffffffffffffffffffffff\n      and\n      dup2\n      mstore\n      0x20\n      add\n      swap1\n      dup2\n      mstore\n      0x20\n      add\n      0x00\n      keccak256\n        /* \"SocialNetworkAuth.sol\":2047:2281  users[msg.sender] = User({... */\n      0x00\n      dup3\n      add\n      mload\n      dup2\n      0x00\n      add\n      swap1\n      dup2\n      tag_101\n      swap2\n      swap1\n      tag_56\n      jump\t// in\n    tag_101:\n      pop\n      0x20\n      dup3\n      add\n      mload\n      dup2\n      0x01\n      add\n      swap1\n      dup2\n      tag_102\n      swap2\n      swap1\n      tag_56\n      jump\t// in\n    tag_102:\n      pop\n      0x40\n      dup3\n      add\n      mload\n      dup2\n      0x02\n      add\n      swap1\n      dup2\n      tag_103\n      swap2\n      swap1\n      tag_56\n      jump\t// in\n    tag_103:\n      pop\n      0x60\n      dup3\n      add\n      mload\n      dup2\n      0x03\n      add\n      sstore\n      0x80\n      dup3\n      add\n      mload\n      dup2\n      0x04\n      add\n      exp(0x0100, 0x00)\n      dup2\n      sload\n      dup2\n      0xff\n      mul\n      not\n      and\n      swap1\n      dup4\n      iszero\n      iszero\n      mul\n      or\n      swap1\n      sstore\n      pop\n      swap1\n      pop\n      pop\n        /* \"SocialNetworkAuth.sol\":2333:2343  msg.sender */\n      caller\n        /* \"SocialNetworkAuth.sol\":2302:2319  usernameToAddress */\n      0x01\n        /* \"SocialNetworkAuth.sol\":2320:2329  _username */\n      dup5\n        /* \"SocialNetworkAuth.sol\":2302:2330  usernameToAddress[_username] */\n      mload(0x40)\n      tag_104\n      swap2\n      swap1\n      tag_66\n      jump\t// in\n    tag_104:\n      swap1\n      dup2\n      mstore\n      0x20\n      add\n      mload(0x40)\n      dup1\n      swap2\n      sub\n      swap1\n      keccak256\n      0x00\n        /* \"SocialNetworkAuth.sol\":2302:2343  usernameToAddress[_username] = msg.sender */\n      0x0100\n      exp\n      dup2\n      sload\n      dup2\n      0xffffffffffffffffffffffffffffffffffffffff\n      mul\n      not\n      and\n      swap1\n      dup4\n      0xffffffffffffffffffffffffffffffffffffffff\n      and\n      mul\n      or\n      swap1\n      sstore\n      pop\n        /* \"SocialNetworkAuth.sol\":2388:2392  true */\n      0x01\n        /* \"SocialNetworkAuth.sol\":2354:2373  registeredAddresses */\n      0x02\n        /* \"SocialNetworkAuth.sol\":2354:2385  registeredAddresses[msg.sender] */\n      0x00\n        /* \"SocialNetworkAuth.sol\":2374:2384  msg.sender */\n      caller\n        /* \"SocialNetworkAuth.sol\":2354:2385  registeredAddresses[msg.sender] */\n      0xffffffffffffffffffffffffffffffffffffffff\n      and\n      0xffffffffffffffffffffffffffffffffffffffff\n      and\n      dup2\n      mstore\n      0x20\n      add\n      swap1\n      dup2\n      mstore\n      0x20\n      add\n      0x00\n      keccak256\n      0x00\n        /* \"SocialNetworkAuth.sol\":2354:2392  registeredAddresses[msg.sender] = true */\n      0x0100\n      exp\n      dup2\n      sload\n      dup2\n      0xff\n      mul\n      not\n      and\n      swap1\n      dup4\n      iszero\n      iszero\n      mul\n      or\n      swap1\n      sstore\n      pop\n        /* \"SocialNetworkAuth.sol\":2433:2443  msg.sender */\n      caller\n        /* \"SocialNetworkAuth.sol\":2418:2472  UserRegistered(msg.sender, _username, block.timestamp) */\n      0xffffffffffffffffffffffffffffffffffffffff\n      and\n      0x89105a1c6a3c2fbd471255c66a31ccab604af5697f67d7e2e9a0028c5e4dbd91\n        /* \"SocialNetworkAuth.sol\":2445:2454  _username */\n      dup5\n        /* \"SocialNetworkAuth.sol\":2456:2471  block.timestamp */\n      timestamp\n        /* \"SocialNetworkAuth.sol\":2418:2472  UserRegistered(msg.sender, _username, block.timestamp) */\n      mload(0x40)\n      tag_105\n      swap3\n      swap2\n      swap1\n      tag_106\n      jump\t// in\n    tag_105:\n      mload(0x40)\n      dup1\n      swap2\n      sub\n      swap1\n      log2\n        /* \"SocialNetworkAuth.sol\":1554:2480  function registerUser(... */\n      pop\n      pop\n      pop\n      jump\t// out\n        /* \"SocialNetworkAuth.sol\":3511:3663  function deactivateAccount() external onlyRegistered {... */\n    tag_43:\n        /* \"SocialNetworkAuth.sol\":1320:1339  registeredAddresses */\n      0x02\n        /* \"SocialNetworkAuth.sol\":1320:1351  registeredAddresses[msg.sender] */\n      0x00\n        /* \"SocialNetworkAuth.sol\":1340:1350  msg.sender */\n      caller\n        /* \"SocialNetworkAuth.sol\":1320:1351  registeredAddresses[msg.sender] */\n      0xffffffffffffffffffffffffffffffffffffffff\n      and\n      0xffffffffffffffffffffffffffffffffffffffff\n      and\n      dup2\n      mstore\n      0x20\n      add\n      swap1\n      dup2\n      mstore\n      0x20\n      add\n      0x00\n      keccak256\n      0x00\n      swap1\n      sload\n      swap1\n      0x0100\n      exp\n      swap1\n      div\n      0xff\n      and\n        /* \"SocialNetworkAuth.sol\":1312:1375  require(registeredAddresses[msg.sender], \"User not registered\") */\n      tag_108\n      jumpi\n      mload(0x40)\n      0x08c379a000000000000000000000000000000000000000000000000000000000\n      dup2\n      mstore\n      0x04\n      add\n      tag_109\n      swap1\n      tag_50\n      jump\t// in\n    tag_109:\n      mload(0x40)\n      dup1\n      swap2\n      sub\n      swap1\n      revert\n    tag_108:\n        /* \"SocialNetworkAuth.sol\":3604:3609  false */\n      0x00\n        /* \"SocialNetworkAuth.sol\":3575:3580  users */\n      0x00\n        /* \"SocialNetworkAuth.sol\":3575:3592  users[msg.sender] */\n      0x00\n        /* \"SocialNetworkAuth.sol\":3581:3591  msg.sender */\n      caller\n        /* \"SocialNetworkAuth.sol\":3575:3592  users[msg.sender] */\n      0xffffffffffffffffffffffffffffffffffffffff\n      and\n      0xffffffffffffffffffffffffffffffffffffffff\n      and\n      dup2\n      mstore\n      0x20\n      add\n      swap1\n      dup2\n      mstore\n      0x20\n      add\n      0x00\n      keccak256\n        /* \"SocialNetworkAuth.sol\":3575:3601  users[msg.sender].isActive */\n      0x04\n      add\n      0x00\n        /* \"SocialNetworkAuth.sol\":3575:3609  users[msg.sender].isActive = false */\n      0x0100\n      exp\n      dup2\n      sload\n      dup2\n      0xff\n      mul\n      not\n      and\n      swap1\n      dup4\n      iszero\n      iszero\n      mul\n      or\n      swap1\n      sstore\n      pop\n        /* \"SocialNetworkAuth.sol\":3644:3654  msg.sender */\n      caller\n        /* \"SocialNetworkAuth.sol\":3625:3655  AccountDeactivated(msg.sender) */\n      0xffffffffffffffffffffffffffffffffffffffff\n      and\n      0x21831c2238658baa66ab1895cb18bdeaf2bea535a3df6126b7ada38425748375\n      mload(0x40)\n      mload(0x40)\n      dup1\n      swap2\n      sub\n      swap1\n      log2\n        /* \"SocialNetworkAuth.sol\":3511:3663  function deactivateAccount() external onlyRegistered {... */\n      jump\t// out\n        /* \"SocialNetworkAuth.sol\":4451:4691  function adminDeactivate(address _userAddress) external onlyOwner {... */\n    tag_46:\n        /* \"SocialNetworkAuth.sol\":1200:1205  owner */\n      0x03\n      0x00\n      swap1\n      sload\n      swap1\n      0x0100\n      exp\n      swap1\n      div\n      0xffffffffffffffffffffffffffffffffffffffff\n      and\n        /* \"SocialNetworkAuth.sol\":1186:1205  msg.sender == owner */\n      0xffffffffffffffffffffffffffffffffffffffff\n      and\n        /* \"SocialNetworkAuth.sol\":1186:1196  msg.sender */\n      caller\n        /* \"SocialNetworkAuth.sol\":1186:1205  msg.sender == owner */\n      0xffffffffffffffffffffffffffffffffffffffff\n      and\n      eq\n        /* \"SocialNetworkAuth.sol\":1178:1243  require(msg.sender == owner, \"Only owner can call this function\") */\n      tag_112\n      jumpi\n      mload(0x40)\n      0x08c379a000000000000000000000000000000000000000000000000000000000\n      dup2\n      mstore\n      0x04\n      add\n      tag_113\n      swap1\n      tag_114\n      jump\t// in\n    tag_113:\n      mload(0x40)\n      dup1\n      swap2\n      sub\n      swap1\n      revert\n    tag_112:\n        /* \"SocialNetworkAuth.sol\":4536:4555  registeredAddresses */\n      0x02\n        /* \"SocialNetworkAuth.sol\":4536:4569  registeredAddresses[_userAddress] */\n      0x00\n        /* \"SocialNetworkAuth.sol\":4556:4568  _userAddress */\n      dup3\n        /* \"SocialNetworkAuth.sol\":4536:4569  registeredAddresses[_userAddress] */\n      0xffffffffffffffffffffffffffffffffffffffff\n      and\n      0xffffffffffffffffffffffffffffffffffffffff\n      and\n      dup2\n      mstore\n      0x20\n      add\n      swap1\n      dup2\n      mstore\n      0x20\n      add\n      0x00\n      keccak256\n      0x00\n      swap1\n      sload\n      swap1\n      0x0100\n      exp\n      swap1\n      div\n      0xff\n      and\n        /* \"SocialNetworkAuth.sol\":4528:4588  require(registeredAddresses[_userAddress], \"User not found\") */\n      tag_116\n      jumpi\n      mload(0x40)\n      0x08c379a000000000000000000000000000000000000000000000000000000000\n      dup2\n      mstore\n      0x04\n      add\n      tag_117\n      swap1\n      tag_70\n      jump\t// in\n    tag_117:\n      mload(0x40)\n      dup1\n      swap2\n      sub\n      swap1\n      revert\n    tag_116:\n        /* \"SocialNetworkAuth.sol\":4630:4635  false */\n      0x00\n        /* \"SocialNetworkAuth.sol\":4599:4604  users */\n      0x00\n        /* \"SocialNetworkAuth.sol\":4599:4618  users[_userAddress] */\n      0x00\n        /* \"SocialNetworkAuth.sol\":4605:4617  _userAddress */\n      dup4\n        /* \"SocialNetworkAuth.sol\":4599:4618  users[_userAddress] */\n      0xffffffffffffffffffffffffffffffffffffffff\n      and\n      0xffffffffffffffffffffffffffffffffffffffff\n      and\n      dup2\n      mstore\n      0x20\n      add\n      swap1\n      dup2\n      mstore\n      0x20\n      add\n      0x00\n      keccak256\n        /* \"SocialNetworkAuth.sol\":4599:4627  users[_userAddress].isActive */\n      0x04\n      add\n      0x00\n        /* \"SocialNetworkAuth.sol\":4599:4635  users[_userAddress].isActive = false */\n      0x0100\n      exp\n      dup2\n      sload\n      dup2\n      0xff\n      mul\n      not\n      and\n      swap1\n      dup4\n      iszero\n      iszero\n      mul\n      or\n      swap1\n      sstore\n      pop\n        /* \"SocialNetworkAuth.sol\":4670:4682  _userAddress */\n      dup1\n        /* \"SocialNetworkAuth.sol\":4651:4683  AccountDeactivated(_userAddress) */\n      0xffffffffffffffffffffffffffffffffffffffff\n      and\n      0x21831c2238658baa66ab1895cb18bdeaf2bea535a3df6126b7ada38425748375\n      mload(0x40)\n      mload(0x40)\n      dup1\n      swap2\n      sub\n      swap1\n      log2\n        /* \"SocialNetworkAuth.sol\":4451:4691  function adminDeactivate(address _userAddress) external onlyOwner {... */\n      pop\n      jump\t// out\n        /* \"#utility.yul\":7:82   */\n    tag_118:\n        /* \"#utility.yul\":40:46   */\n      0x00\n        /* \"#utility.yul\":73:75   */\n      0x40\n        /* \"#utility.yul\":67:76   */\n      mload\n        /* \"#utility.yul\":57:76   */\n      swap1\n      pop\n        /* \"#utility.yul\":7:82   */\n      swap1\n      jump\t// out\n        /* \"#utility.yul\":88:205   */\n    tag_119:\n        /* \"#utility.yul\":197:198   */\n      0x00\n        /* \"#utility.yul\":194:195   */\n      0x00\n        /* \"#utility.yul\":187:199   */\n      revert\n        /* \"#utility.yul\":211:328   */\n    tag_120:\n        /* \"#utility.yul\":320:321   */\n      0x00\n        /* \"#utility.yul\":317:318   */\n      0x00\n        /* \"#utility.yul\":310:322   */\n      revert\n        /* \"#utility.yul\":334:451   */\n    tag_121:\n        /* \"#utility.yul\":443:444   */\n      0x00\n        /* \"#utility.yul\":440:441   */\n      0x00\n        /* \"#utility.yul\":433:445   */\n      revert\n        /* \"#utility.yul\":457:574   */\n    tag_122:\n        /* \"#utility.yul\":566:567   */\n      0x00\n        /* \"#utility.yul\":563:564   */\n      0x00\n        /* \"#utility.yul\":556:568   */\n      revert\n        /* \"#utility.yul\":580:682   */\n    tag_123:\n        /* \"#utility.yul\":621:627   */\n      0x00\n        /* \"#utility.yul\":672:674   */\n      0x1f\n        /* \"#utility.yul\":668:675   */\n      not\n        /* \"#utility.yul\":663:665   */\n      0x1f\n        /* \"#utility.yul\":656:661   */\n      dup4\n        /* \"#utility.yul\":652:666   */\n      add\n        /* \"#utility.yul\":648:676   */\n      and\n        /* \"#utility.yul\":638:676   */\n      swap1\n      pop\n        /* \"#utility.yul\":580:682   */\n      swap2\n      swap1\n      pop\n      jump\t// out\n        /* \"#utility.yul\":688:868   */\n    tag_124:\n        /* \"#utility.yul\":736:813   */\n      0x4e487b7100000000000000000000000000000000000000000000000000000000\n        /* \"#utility.yul\":733:734   */\n      0x00\n        /* \"#utility.yul\":726:814   */\n      mstore\n        /* \"#utility.yul\":833:837   */\n      0x41\n        /* \"#utility.yul\":830:831   */\n      0x04\n        /* \"#utility.yul\":823:838   */\n      mstore\n        /* \"#utility.yul\":857:861   */\n      0x24\n        /* \"#utility.yul\":854:855   */\n      0x00\n        /* \"#utility.yul\":847:862   */\n      revert\n        /* \"#utility.yul\":874:1155   */\n    tag_125:\n        /* \"#utility.yul\":957:984   */\n      tag_187\n        /* \"#utility.yul\":979:983   */\n      dup3\n        /* \"#utility.yul\":957:984   */\n      tag_123\n      jump\t// in\n    tag_187:\n        /* \"#utility.yul\":949:955   */\n      dup2\n        /* \"#utility.yul\":945:985   */\n      add\n        /* \"#utility.yul\":1087:1093   */\n      dup2\n        /* \"#utility.yul\":1075:1085   */\n      dup2\n        /* \"#utility.yul\":1072:1094   */\n      lt\n        /* \"#utility.yul\":1051:1069   */\n      0xffffffffffffffff\n        /* \"#utility.yul\":1039:1049   */\n      dup3\n        /* \"#utility.yul\":1036:1070   */\n      gt\n        /* \"#utility.yul\":1033:1095   */\n      or\n        /* \"#utility.yul\":1030:1118   */\n      iszero\n      tag_188\n      jumpi\n        /* \"#utility.yul\":1098:1116   */\n      tag_189\n      tag_124\n      jump\t// in\n    tag_189:\n        /* \"#utility.yul\":1030:1118   */\n    tag_188:\n        /* \"#utility.yul\":1138:1148   */\n      dup1\n        /* \"#utility.yul\":1134:1136   */\n      0x40\n        /* \"#utility.yul\":1127:1149   */\n      mstore\n        /* \"#utility.yul\":917:1155   */\n      pop\n        /* \"#utility.yul\":874:1155   */\n      pop\n      pop\n      jump\t// out\n        /* \"#utility.yul\":1161:1290   */\n    tag_126:\n        /* \"#utility.yul\":1195:1201   */\n      0x00\n        /* \"#utility.yul\":1222:1242   */\n      tag_191\n      tag_118\n      jump\t// in\n    tag_191:\n        /* \"#utility.yul\":1212:1242   */\n      swap1\n      pop\n        /* \"#utility.yul\":1251:1284   */\n      tag_192\n        /* \"#utility.yul\":1279:1283   */\n      dup3\n        /* \"#utility.yul\":1271:1277   */\n      dup3\n        /* \"#utility.yul\":1251:1284   */\n      tag_125\n      jump\t// in\n    tag_192:\n        /* \"#utility.yul\":1161:1290   */\n      swap2\n      swap1\n      pop\n      jump\t// out\n        /* \"#utility.yul\":1296:1604   */\n    tag_127:\n        /* \"#utility.yul\":1358:1362   */\n      0x00\n        /* \"#utility.yul\":1448:1466   */\n      0xffffffffffffffff\n        /* \"#utility.yul\":1440:1446   */\n      dup3\n        /* \"#utility.yul\":1437:1467   */\n      gt\n        /* \"#utility.yul\":1434:1490   */\n      iszero\n      tag_194\n      jumpi\n        /* \"#utility.yul\":1470:1488   */\n      tag_195\n      tag_124\n      jump\t// in\n    tag_195:\n        /* \"#utility.yul\":1434:1490   */\n    tag_194:\n        /* \"#utility.yul\":1508:1537   */\n      tag_196\n        /* \"#utility.yul\":1530:1536   */\n      dup3\n        /* \"#utility.yul\":1508:1537   */\n      tag_123\n      jump\t// in\n    tag_196:\n        /* \"#utility.yul\":1500:1537   */\n      swap1\n      pop\n        /* \"#utility.yul\":1592:1596   */\n      0x20\n        /* \"#utility.yul\":1586:1590   */\n      dup2\n        /* \"#utility.yul\":1582:1597   */\n      add\n        /* \"#utility.yul\":1574:1597   */\n      swap1\n      pop\n        /* \"#utility.yul\":1296:1604   */\n      swap2\n      swap1\n      pop\n      jump\t// out\n        /* \"#utility.yul\":1610:1758   */\n    tag_128:\n        /* \"#utility.yul\":1708:1714   */\n      dup3\n        /* \"#utility.yul\":1703:1706   */\n      dup2\n        /* \"#utility.yul\":1698:1701   */\n      dup4\n        /* \"#utility.yul\":1685:1715   */\n      calldatacopy\n        /* \"#utility.yul\":1749:1750   */\n      0x00\n        /* \"#utility.yul\":1740:1746   */\n      dup4\n        /* \"#utility.yul\":1735:1738   */\n      dup4\n        /* \"#utility.yul\":1731:1747   */\n      add\n        /* \"#utility.yul\":1724:1751   */\n      mstore\n        /* \"#utility.yul\":1610:1758   */\n      pop\n      pop\n      pop\n      jump\t// out\n        /* \"#utility.yul\":1764:2189   */\n    tag_129:\n        /* \"#utility.yul\":1842:1847   */\n      0x00\n        /* \"#utility.yul\":1867:1933   */\n      tag_199\n        /* \"#utility.yul\":1883:1932   */\n      tag_200\n        /* \"#utility.yul\":1925:1931   */\n      dup5\n        /* \"#utility.yul\":1883:1932   */\n      tag_127\n      jump\t// in\n    tag_200:\n        /* \"#utility.yul\":1867:1933   */\n      tag_126\n      jump\t// in\n    tag_199:\n        /* \"#utility.yul\":1858:1933   */\n      swap1\n      pop\n        /* \"#utility.yul\":1956:1962   */\n      dup3\n        /* \"#utility.yul\":1949:1954   */\n      dup2\n        /* \"#utility.yul\":1942:1963   */\n      mstore\n        /* \"#utility.yul\":1994:1998   */\n      0x20\n        /* \"#utility.yul\":1987:1992   */\n      dup2\n        /* \"#utility.yul\":1983:1999   */\n      add\n        /* \"#utility.yul\":2032:2035   */\n      dup5\n        /* \"#utility.yul\":2023:2029   */\n      dup5\n        /* \"#utility.yul\":2018:2021   */\n      dup5\n        /* \"#utility.yul\":2014:2030   */\n      add\n        /* \"#utility.yul\":2011:2036   */\n      gt\n        /* \"#utility.yul\":2008:2120   */\n      iszero\n      tag_201\n      jumpi\n        /* \"#utility.yul\":2039:2118   */\n      tag_202\n      tag_122\n      jump\t// in\n    tag_202:\n        /* \"#utility.yul\":2008:2120   */\n    tag_201:\n        /* \"#utility.yul\":2129:2183   */\n      tag_203\n        /* \"#utility.yul\":2176:2182   */\n      dup5\n        /* \"#utility.yul\":2171:2174   */\n      dup3\n        /* \"#utility.yul\":2166:2169   */\n      dup6\n        /* \"#utility.yul\":2129:2183   */\n      tag_128\n      jump\t// in\n    tag_203:\n        /* \"#utility.yul\":1848:2189   */\n      pop\n        /* \"#utility.yul\":1764:2189   */\n      swap4\n      swap3\n      pop\n      pop\n      pop\n      jump\t// out\n        /* \"#utility.yul\":2209:2549   */\n    tag_130:\n        /* \"#utility.yul\":2265:2270   */\n      0x00\n        /* \"#utility.yul\":2314:2317   */\n      dup3\n        /* \"#utility.yul\":2307:2311   */\n      0x1f\n        /* \"#utility.yul\":2299:2305   */\n      dup4\n        /* \"#utility.yul\":2295:2312   */\n      add\n        /* \"#utility.yul\":2291:2318   */\n      slt\n        /* \"#utility.yul\":2281:2403   */\n      tag_205\n      jumpi\n        /* \"#utility.yul\":2322:2401   */\n      tag_206\n      tag_121\n      jump\t// in\n    tag_206:\n        /* \"#utility.yul\":2281:2403   */\n    tag_205:\n        /* \"#utility.yul\":2439:2445   */\n      dup2\n        /* \"#utility.yul\":2426:2446   */\n      calldataload\n        /* \"#utility.yul\":2464:2543   */\n      tag_207\n        /* \"#utility.yul\":2539:2542   */\n      dup5\n        /* \"#utility.yul\":2531:2537   */\n      dup3\n        /* \"#utility.yul\":2524:2528   */\n      0x20\n        /* \"#utility.yul\":2516:2522   */\n      dup7\n        /* \"#utility.yul\":2512:2529   */\n      add\n        /* \"#utility.yul\":2464:2543   */\n      tag_129\n      jump\t// in\n    tag_207:\n        /* \"#utility.yul\":2455:2543   */\n      swap2\n      pop\n        /* \"#utility.yul\":2271:2549   */\n      pop\n        /* \"#utility.yul\":2209:2549   */\n      swap3\n      swap2\n      pop\n      pop\n      jump\t// out\n        /* \"#utility.yul\":2555:3064   */\n    tag_15:\n        /* \"#utility.yul\":2624:2630   */\n      0x00\n        /* \"#utility.yul\":2673:2675   */\n      0x20\n        /* \"#utility.yul\":2661:2670   */\n      dup3\n        /* \"#utility.yul\":2652:2659   */\n      dup5\n        /* \"#utility.yul\":2648:2671   */\n      sub\n        /* \"#utility.yul\":2644:2676   */\n      slt\n        /* \"#utility.yul\":2641:2760   */\n      iszero\n      tag_209\n      jumpi\n        /* \"#utility.yul\":2679:2758   */\n      tag_210\n      tag_119\n      jump\t// in\n    tag_210:\n        /* \"#utility.yul\":2641:2760   */\n    tag_209:\n        /* \"#utility.yul\":2827:2828   */\n      0x00\n        /* \"#utility.yul\":2816:2825   */\n      dup3\n        /* \"#utility.yul\":2812:2829   */\n      add\n        /* \"#utility.yul\":2799:2830   */\n      calldataload\n        /* \"#utility.yul\":2857:2875   */\n      0xffffffffffffffff\n        /* \"#utility.yul\":2849:2855   */\n      dup2\n        /* \"#utility.yul\":2846:2876   */\n      gt\n        /* \"#utility.yul\":2843:2960   */\n      iszero\n      tag_211\n      jumpi\n        /* \"#utility.yul\":2879:2958   */\n      tag_212\n      tag_120\n      jump\t// in\n    tag_212:\n        /* \"#utility.yul\":2843:2960   */\n    tag_211:\n        /* \"#utility.yul\":2984:3047   */\n      tag_213\n        /* \"#utility.yul\":3039:3046   */\n      dup5\n        /* \"#utility.yul\":3030:3036   */\n      dup3\n        /* \"#utility.yul\":3019:3028   */\n      dup6\n        /* \"#utility.yul\":3015:3037   */\n      add\n        /* \"#utility.yul\":2984:3047   */\n      tag_130\n      jump\t// in\n    tag_213:\n        /* \"#utility.yul\":2974:3047   */\n      swap2\n      pop\n        /* \"#utility.yul\":2770:3057   */\n      pop\n        /* \"#utility.yul\":2555:3064   */\n      swap3\n      swap2\n      pop\n      pop\n      jump\t// out\n        /* \"#utility.yul\":3070:3196   */\n    tag_131:\n        /* \"#utility.yul\":3107:3114   */\n      0x00\n        /* \"#utility.yul\":3147:3189   */\n      0xffffffffffffffffffffffffffffffffffffffff\n        /* \"#utility.yul\":3140:3145   */\n      dup3\n        /* \"#utility.yul\":3136:3190   */\n      and\n        /* \"#utility.yul\":3125:3190   */\n      swap1\n      pop\n        /* \"#utility.yul\":3070:3196   */\n      swap2\n      swap1\n      pop\n      jump\t// out\n        /* \"#utility.yul\":3202:3298   */\n    tag_132:\n        /* \"#utility.yul\":3239:3246   */\n      0x00\n        /* \"#utility.yul\":3268:3292   */\n      tag_216\n        /* \"#utility.yul\":3286:3291   */\n      dup3\n        /* \"#utility.yul\":3268:3292   */\n      tag_131\n      jump\t// in\n    tag_216:\n        /* \"#utility.yul\":3257:3292   */\n      swap1\n      pop\n        /* \"#utility.yul\":3202:3298   */\n      swap2\n      swap1\n      pop\n      jump\t// out\n        /* \"#utility.yul\":3304:3426   */\n    tag_133:\n        /* \"#utility.yul\":3377:3401   */\n      tag_218\n        /* \"#utility.yul\":3395:3400   */\n      dup2\n        /* \"#utility.yul\":3377:3401   */\n      tag_132\n      jump\t// in\n    tag_218:\n        /* \"#utility.yul\":3370:3375   */\n      dup2\n        /* \"#utility.yul\":3367:3402   */\n      eq\n        /* \"#utility.yul\":3357:3420   */\n      tag_219\n      jumpi\n        /* \"#utility.yul\":3416:3417   */\n      0x00\n        /* \"#utility.yul\":3413:3414   */\n      0x00\n        /* \"#utility.yul\":3406:3418   */\n      revert\n        /* \"#utility.yul\":3357:3420   */\n    tag_219:\n        /* \"#utility.yul\":3304:3426   */\n      pop\n      jump\t// out\n        /* \"#utility.yul\":3432:3571   */\n    tag_134:\n        /* \"#utility.yul\":3478:3483   */\n      0x00\n        /* \"#utility.yul\":3516:3522   */\n      dup2\n        /* \"#utility.yul\":3503:3523   */\n      calldataload\n        /* \"#utility.yul\":3494:3523   */\n      swap1\n      pop\n        /* \"#utility.yul\":3532:3565   */\n      tag_221\n        /* \"#utility.yul\":3559:3564   */\n      dup2\n        /* \"#utility.yul\":3532:3565   */\n      tag_133\n      jump\t// in\n    tag_221:\n        /* \"#utility.yul\":3432:3571   */\n      swap3\n      swap2\n      pop\n      pop\n      jump\t// out\n        /* \"#utility.yul\":3577:3906   */\n    tag_19:\n        /* \"#utility.yul\":3636:3642   */\n      0x00\n        /* \"#utility.yul\":3685:3687   */\n      0x20\n        /* \"#utility.yul\":3673:3682   */\n      dup3\n        /* \"#utility.yul\":3664:3671   */\n      dup5\n        /* \"#utility.yul\":3660:3683   */\n      sub\n        /* \"#utility.yul\":3656:3688   */\n      slt\n        /* \"#utility.yul\":3653:3772   */\n      iszero\n      tag_223\n      jumpi\n        /* \"#utility.yul\":3691:3770   */\n      tag_224\n      tag_119\n      jump\t// in\n    tag_224:\n        /* \"#utility.yul\":3653:3772   */\n    tag_223:\n        /* \"#utility.yul\":3811:3812   */\n      0x00\n        /* \"#utility.yul\":3836:3889   */\n      tag_225\n        /* \"#utility.yul\":3881:3888   */\n      dup5\n        /* \"#utility.yul\":3872:3878   */\n      dup3\n        /* \"#utility.yul\":3861:3870   */\n      dup6\n        /* \"#utility.yul\":3857:3879   */\n      add\n        /* \"#utility.yul\":3836:3889   */\n      tag_134\n      jump\t// in\n    tag_225:\n        /* \"#utility.yul\":3826:3889   */\n      swap2\n      pop\n        /* \"#utility.yul\":3782:3899   */\n      pop\n        /* \"#utility.yul\":3577:3906   */\n      swap3\n      swap2\n      pop\n      pop\n      jump\t// out\n        /* \"#utility.yul\":3912:4002   */\n    tag_135:\n        /* \"#utility.yul\":3946:3953   */\n      0x00\n        /* \"#utility.yul\":3989:3994   */\n      dup2\n        /* \"#utility.yul\":3982:3995   */\n      iszero\n        /* \"#utility.yul\":3975:3996   */\n      iszero\n        /* \"#utility.yul\":3964:3996   */\n      swap1\n      pop\n        /* \"#utility.yul\":3912:4002   */\n      swap2\n      swap1\n      pop\n      jump\t// out\n        /* \"#utility.yul\":4008:4117   */\n    tag_136:\n        /* \"#utility.yul\":4089:4110   */\n      tag_228\n        /* \"#utility.yul\":4104:4109   */\n      dup2\n        /* \"#utility.yul\":4089:4110   */\n      tag_135\n      jump\t// in\n    tag_228:\n        /* \"#utility.yul\":4084:4087   */\n      dup3\n        /* \"#utility.yul\":4077:4111   */\n      mstore\n        /* \"#utility.yul\":4008:4117   */\n      pop\n      pop\n      jump\t// out\n        /* \"#utility.yul\":4123:4333   */\n    tag_22:\n        /* \"#utility.yul\":4210:4214   */\n      0x00\n        /* \"#utility.yul\":4248:4250   */\n      0x20\n        /* \"#utility.yul\":4237:4246   */\n      dup3\n        /* \"#utility.yul\":4233:4251   */\n      add\n        /* \"#utility.yul\":4225:4251   */\n      swap1\n      pop\n        /* \"#utility.yul\":4261:4326   */\n      tag_230\n        /* \"#utility.yul\":4323:4324   */\n      0x00\n        /* \"#utility.yul\":4312:4321   */\n      dup4\n        /* \"#utility.yul\":4308:4325   */\n      add\n        /* \"#utility.yul\":4299:4305   */\n      dup5\n        /* \"#utility.yul\":4261:4326   */\n      tag_136\n      jump\t// in\n    tag_230:\n        /* \"#utility.yul\":4123:4333   */\n      swap3\n      swap2\n      pop\n      pop\n      jump\t// out\n        /* \"#utility.yul\":4339:4457   */\n    tag_137:\n        /* \"#utility.yul\":4426:4450   */\n      tag_232\n        /* \"#utility.yul\":4444:4449   */\n      dup2\n        /* \"#utility.yul\":4426:4450   */\n      tag_132\n      jump\t// in\n    tag_232:\n        /* \"#utility.yul\":4421:4424   */\n      dup3\n        /* \"#utility.yul\":4414:4451   */\n      mstore\n        /* \"#utility.yul\":4339:4457   */\n      pop\n      pop\n      jump\t// out\n        /* \"#utility.yul\":4463:4685   */\n    tag_29:\n        /* \"#utility.yul\":4556:4560   */\n      0x00\n        /* \"#utility.yul\":4594:4596   */\n      0x20\n        /* \"#utility.yul\":4583:4592   */\n      dup3\n        /* \"#utility.yul\":4579:4597   */\n      add\n        /* \"#utility.yul\":4571:4597   */\n      swap1\n      pop\n        /* \"#utility.yul\":4607:4678   */\n      tag_234\n        /* \"#utility.yul\":4675:4676   */\n      0x00\n        /* \"#utility.yul\":4664:4673   */\n      dup4\n        /* \"#utility.yul\":4660:4677   */\n      add\n        /* \"#utility.yul\":4651:4657   */\n      dup5\n        /* \"#utility.yul\":4607:4678   */\n      tag_137\n      jump\t// in\n    tag_234:\n        /* \"#utility.yul\":4463:4685   */\n      swap3\n      swap2\n      pop\n      pop\n      jump\t// out\n        /* \"#utility.yul\":4691:4790   */\n    tag_138:\n        /* \"#utility.yul\":4743:4749   */\n      0x00\n        /* \"#utility.yul\":4777:4782   */\n      dup2\n        /* \"#utility.yul\":4771:4783   */\n      mload\n        /* \"#utility.yul\":4761:4783   */\n      swap1\n      pop\n        /* \"#utility.yul\":4691:4790   */\n      swap2\n      swap1\n      pop\n      jump\t// out\n        /* \"#utility.yul\":4796:4965   */\n    tag_139:\n        /* \"#utility.yul\":4880:4891   */\n      0x00\n        /* \"#utility.yul\":4914:4920   */\n      dup3\n        /* \"#utility.yul\":4909:4912   */\n      dup3\n        /* \"#utility.yul\":4902:4921   */\n      mstore\n        /* \"#utility.yul\":4954:4958   */\n      0x20\n        /* \"#utility.yul\":4949:4952   */\n      dup3\n        /* \"#utility.yul\":4945:4959   */\n      add\n        /* \"#utility.yul\":4930:4959   */\n      swap1\n      pop\n        /* \"#utility.yul\":4796:4965   */\n      swap3\n      swap2\n      pop\n      pop\n      jump\t// out\n        /* \"#utility.yul\":4971:5110   */\n    tag_140:\n        /* \"#utility.yul\":5060:5066   */\n      dup3\n        /* \"#utility.yul\":5055:5058   */\n      dup2\n        /* \"#utility.yul\":5050:5053   */\n      dup4\n        /* \"#utility.yul\":5044:5067   */\n      mcopy\n        /* \"#utility.yul\":5101:5102   */\n      0x00\n        /* \"#utility.yul\":5092:5098   */\n      dup4\n        /* \"#utility.yul\":5087:5090   */\n      dup4\n        /* \"#utility.yul\":5083:5099   */\n      add\n        /* \"#utility.yul\":5076:5103   */\n      mstore\n        /* \"#utility.yul\":4971:5110   */\n      pop\n      pop\n      pop\n      jump\t// out\n        /* \"#utility.yul\":5116:5493   */\n    tag_141:\n        /* \"#utility.yul\":5204:5207   */\n      0x00\n        /* \"#utility.yul\":5232:5271   */\n      tag_239\n        /* \"#utility.yul\":5265:5270   */\n      dup3\n        /* \"#utility.yul\":5232:5271   */\n      tag_138\n      jump\t// in\n    tag_239:\n        /* \"#utility.yul\":5287:5358   */\n      tag_240\n        /* \"#utility.yul\":5351:5357   */\n      dup2\n        /* \"#utility.yul\":5346:5349   */\n      dup6\n        /* \"#utility.yul\":5287:5358   */\n      tag_139\n      jump\t// in\n    tag_240:\n        /* \"#utility.yul\":5280:5358   */\n      swap4\n      pop\n        /* \"#utility.yul\":5367:5432   */\n      tag_241\n        /* \"#utility.yul\":5425:5431   */\n      dup2\n        /* \"#utility.yul\":5420:5423   */\n      dup6\n        /* \"#utility.yul\":5413:5417   */\n      0x20\n        /* \"#utility.yul\":5406:5411   */\n      dup7\n        /* \"#utility.yul\":5402:5418   */\n      add\n        /* \"#utility.yul\":5367:5432   */\n      tag_140\n      jump\t// in\n    tag_241:\n        /* \"#utility.yul\":5457:5486   */\n      tag_242\n        /* \"#utility.yul\":5479:5485   */\n      dup2\n        /* \"#utility.yul\":5457:5486   */\n      tag_123\n      jump\t// in\n    tag_242:\n        /* \"#utility.yul\":5452:5455   */\n      dup5\n        /* \"#utility.yul\":5448:5487   */\n      add\n        /* \"#utility.yul\":5441:5487   */\n      swap2\n      pop\n        /* \"#utility.yul\":5208:5493   */\n      pop\n        /* \"#utility.yul\":5116:5493   */\n      swap3\n      swap2\n      pop\n      pop\n      jump\t// out\n        /* \"#utility.yul\":5499:5576   */\n    tag_142:\n        /* \"#utility.yul\":5536:5543   */\n      0x00\n        /* \"#utility.yul\":5565:5570   */\n      dup2\n        /* \"#utility.yul\":5554:5570   */\n      swap1\n      pop\n        /* \"#utility.yul\":5499:5576   */\n      swap2\n      swap1\n      pop\n      jump\t// out\n        /* \"#utility.yul\":5582:5700   */\n    tag_143:\n        /* \"#utility.yul\":5669:5693   */\n      tag_245\n        /* \"#utility.yul\":5687:5692   */\n      dup2\n        /* \"#utility.yul\":5669:5693   */\n      tag_142\n      jump\t// in\n    tag_245:\n        /* \"#utility.yul\":5664:5667   */\n      dup3\n        /* \"#utility.yul\":5657:5694   */\n      mstore\n        /* \"#utility.yul\":5582:5700   */\n      pop\n      pop\n      jump\t// out\n        /* \"#utility.yul\":5706:6631   */\n    tag_34:\n        /* \"#utility.yul\":5965:5969   */\n      0x00\n        /* \"#utility.yul\":6003:6006   */\n      0xa0\n        /* \"#utility.yul\":5992:6001   */\n      dup3\n        /* \"#utility.yul\":5988:6007   */\n      add\n        /* \"#utility.yul\":5980:6007   */\n      swap1\n      pop\n        /* \"#utility.yul\":6053:6062   */\n      dup2\n        /* \"#utility.yul\":6047:6051   */\n      dup2\n        /* \"#utility.yul\":6043:6063   */\n      sub\n        /* \"#utility.yul\":6039:6040   */\n      0x00\n        /* \"#utility.yul\":6028:6037   */\n      dup4\n        /* \"#utility.yul\":6024:6041   */\n      add\n        /* \"#utility.yul\":6017:6064   */\n      mstore\n        /* \"#utility.yul\":6081:6159   */\n      tag_247\n        /* \"#utility.yul\":6154:6158   */\n      dup2\n        /* \"#utility.yul\":6145:6151   */\n      dup9\n        /* \"#utility.yul\":6081:6159   */\n      tag_141\n      jump\t// in\n    tag_247:\n        /* \"#utility.yul\":6073:6159   */\n      swap1\n      pop\n        /* \"#utility.yul\":6206:6215   */\n      dup2\n        /* \"#utility.yul\":6200:6204   */\n      dup2\n        /* \"#utility.yul\":6196:6216   */\n      sub\n        /* \"#utility.yul\":6191:6193   */\n      0x20\n        /* \"#utility.yul\":6180:6189   */\n      dup4\n        /* \"#utility.yul\":6176:6194   */\n      add\n        /* \"#utility.yul\":6169:6217   */\n      mstore\n        /* \"#utility.yul\":6234:6312   */\n      tag_248\n        /* \"#utility.yul\":6307:6311   */\n      dup2\n        /* \"#utility.yul\":6298:6304   */\n      dup8\n        /* \"#utility.yul\":6234:6312   */\n      tag_141\n      jump\t// in\n    tag_248:\n        /* \"#utility.yul\":6226:6312   */\n      swap1\n      pop\n        /* \"#utility.yul\":6359:6368   */\n      dup2\n        /* \"#utility.yul\":6353:6357   */\n      dup2\n        /* \"#utility.yul\":6349:6369   */\n      sub\n        /* \"#utility.yul\":6344:6346   */\n      0x40\n        /* \"#utility.yul\":6333:6342   */\n      dup4\n        /* \"#utility.yul\":6329:6347   */\n      add\n        /* \"#utility.yul\":6322:6370   */\n      mstore\n        /* \"#utility.yul\":6387:6465   */\n      tag_249\n        /* \"#utility.yul\":6460:6464   */\n      dup2\n        /* \"#utility.yul\":6451:6457   */\n      dup7\n        /* \"#utility.yul\":6387:6465   */\n      tag_141\n      jump\t// in\n    tag_249:\n        /* \"#utility.yul\":6379:6465   */\n      swap1\n      pop\n        /* \"#utility.yul\":6475:6547   */\n      tag_250\n        /* \"#utility.yul\":6543:6545   */\n      0x60\n        /* \"#utility.yul\":6532:6541   */\n      dup4\n        /* \"#utility.yul\":6528:6546   */\n      add\n        /* \"#utility.yul\":6519:6525   */\n      dup6\n        /* \"#utility.yul\":6475:6547   */\n      tag_143\n      jump\t// in\n    tag_250:\n        /* \"#utility.yul\":6557:6624   */\n      tag_251\n        /* \"#utility.yul\":6619:6622   */\n      0x80\n        /* \"#utility.yul\":6608:6617   */\n      dup4\n        /* \"#utility.yul\":6604:6623   */\n      add\n        /* \"#utility.yul\":6595:6601   */\n      dup5\n        /* \"#utility.yul\":6557:6624   */\n      tag_136\n      jump\t// in\n    tag_251:\n        /* \"#utility.yul\":5706:6631   */\n      swap7\n      swap6\n      pop\n      pop\n      pop\n      pop\n      pop\n      pop\n      jump\t// out\n        /* \"#utility.yul\":6637:7796   */\n    tag_40:\n        /* \"#utility.yul\":6744:6750   */\n      0x00\n        /* \"#utility.yul\":6752:6758   */\n      0x00\n        /* \"#utility.yul\":6760:6766   */\n      0x00\n        /* \"#utility.yul\":6809:6811   */\n      0x60\n        /* \"#utility.yul\":6797:6806   */\n      dup5\n        /* \"#utility.yul\":6788:6795   */\n      dup7\n        /* \"#utility.yul\":6784:6807   */\n      sub\n        /* \"#utility.yul\":6780:6812   */\n      slt\n        /* \"#utility.yul\":6777:6896   */\n      iszero\n      tag_253\n      jumpi\n        /* \"#utility.yul\":6815:6894   */\n      tag_254\n      tag_119\n      jump\t// in\n    tag_254:\n        /* \"#utility.yul\":6777:6896   */\n    tag_253:\n        /* \"#utility.yul\":6963:6964   */\n      0x00\n        /* \"#utility.yul\":6952:6961   */\n      dup5\n        /* \"#utility.yul\":6948:6965   */\n      add\n        /* \"#utility.yul\":6935:6966   */\n      calldataload\n        /* \"#utility.yul\":6993:7011   */\n      0xffffffffffffffff\n        /* \"#utility.yul\":6985:6991   */\n      dup2\n        /* \"#utility.yul\":6982:7012   */\n      gt\n        /* \"#utility.yul\":6979:7096   */\n      iszero\n      tag_255\n      jumpi\n        /* \"#utility.yul\":7015:7094   */\n      tag_256\n      tag_120\n      jump\t// in\n    tag_256:\n        /* \"#utility.yul\":6979:7096   */\n    tag_255:\n        /* \"#utility.yul\":7120:7183   */\n      tag_257\n        /* \"#utility.yul\":7175:7182   */\n      dup7\n        /* \"#utility.yul\":7166:7172   */\n      dup3\n        /* \"#utility.yul\":7155:7164   */\n      dup8\n        /* \"#utility.yul\":7151:7173   */\n      add\n        /* \"#utility.yul\":7120:7183   */\n      tag_130\n      jump\t// in\n    tag_257:\n        /* \"#utility.yul\":7110:7183   */\n      swap4\n      pop\n        /* \"#utility.yul\":6906:7193   */\n      pop\n        /* \"#utility.yul\":7260:7262   */\n      0x20\n        /* \"#utility.yul\":7249:7258   */\n      dup5\n        /* \"#utility.yul\":7245:7263   */\n      add\n        /* \"#utility.yul\":7232:7264   */\n      calldataload\n        /* \"#utility.yul\":7291:7309   */\n      0xffffffffffffffff\n        /* \"#utility.yul\":7283:7289   */\n      dup2\n        /* \"#utility.yul\":7280:7310   */\n      gt\n        /* \"#utility.yul\":7277:7394   */\n      iszero\n      tag_258\n      jumpi\n        /* \"#utility.yul\":7313:7392   */\n      tag_259\n      tag_120\n      jump\t// in\n    tag_259:\n        /* \"#utility.yul\":7277:7394   */\n    tag_258:\n        /* \"#utility.yul\":7418:7481   */\n      tag_260\n        /* \"#utility.yul\":7473:7480   */\n      dup7\n        /* \"#utility.yul\":7464:7470   */\n      dup3\n        /* \"#utility.yul\":7453:7462   */\n      dup8\n        /* \"#utility.yul\":7449:7471   */\n      add\n        /* \"#utility.yul\":7418:7481   */\n      tag_130\n      jump\t// in\n    tag_260:\n        /* \"#utility.yul\":7408:7481   */\n      swap3\n      pop\n        /* \"#utility.yul\":7203:7491   */\n      pop\n        /* \"#utility.yul\":7558:7560   */\n      0x40\n        /* \"#utility.yul\":7547:7556   */\n      dup5\n        /* \"#utility.yul\":7543:7561   */\n      add\n        /* \"#utility.yul\":7530:7562   */\n      calldataload\n        /* \"#utility.yul\":7589:7607   */\n      0xffffffffffffffff\n        /* \"#utility.yul\":7581:7587   */\n      dup2\n        /* \"#utility.yul\":7578:7608   */\n      gt\n        /* \"#utility.yul\":7575:7692   */\n      iszero\n      tag_261\n      jumpi\n        /* \"#utility.yul\":7611:7690   */\n      tag_262\n      tag_120\n      jump\t// in\n    tag_262:\n        /* \"#utility.yul\":7575:7692   */\n    tag_261:\n        /* \"#utility.yul\":7716:7779   */\n      tag_263\n        /* \"#utility.yul\":7771:7778   */\n      dup7\n        /* \"#utility.yul\":7762:7768   */\n      dup3\n        /* \"#utility.yul\":7751:7760   */\n      dup8\n        /* \"#utility.yul\":7747:7769   */\n      add\n        /* \"#utility.yul\":7716:7779   */\n      tag_130\n      jump\t// in\n    tag_263:\n        /* \"#utility.yul\":7706:7779   */\n      swap2\n      pop\n        /* \"#utility.yul\":7501:7789   */\n      pop\n        /* \"#utility.yul\":6637:7796   */\n      swap3\n      pop\n      swap3\n      pop\n      swap3\n      jump\t// out\n        /* \"#utility.yul\":7802:7971   */\n    tag_144:\n        /* \"#utility.yul\":7942:7963   */\n      0x55736572206e6f74207265676973746572656400000000000000000000000000\n        /* \"#utility.yul\":7938:7939   */\n      0x00\n        /* \"#utility.yul\":7930:7936   */\n      dup3\n        /* \"#utility.yul\":7926:7940   */\n      add\n        /* \"#utility.yul\":7919:7964   */\n      mstore\n        /* \"#utility.yul\":7802:7971   */\n      pop\n      jump\t// out\n        /* \"#utility.yul\":7977:8343   */\n    tag_145:\n        /* \"#utility.yul\":8119:8122   */\n      0x00\n        /* \"#utility.yul\":8140:8207   */\n      tag_266\n        /* \"#utility.yul\":8204:8206   */\n      0x13\n        /* \"#utility.yul\":8199:8202   */\n      dup4\n        /* \"#utility.yul\":8140:8207   */\n      tag_139\n      jump\t// in\n    tag_266:\n        /* \"#utility.yul\":8133:8207   */\n      swap2\n      pop\n        /* \"#utility.yul\":8216:8309   */\n      tag_267\n        /* \"#utility.yul\":8305:8308   */\n      dup3\n        /* \"#utility.yul\":8216:8309   */\n      tag_144\n      jump\t// in\n    tag_267:\n        /* \"#utility.yul\":8334:8336   */\n      0x20\n        /* \"#utility.yul\":8329:8332   */\n      dup3\n        /* \"#utility.yul\":8325:8337   */\n      add\n        /* \"#utility.yul\":8318:8337   */\n      swap1\n      pop\n        /* \"#utility.yul\":7977:8343   */\n      swap2\n      swap1\n      pop\n      jump\t// out\n        /* \"#utility.yul\":8349:8768   */\n    tag_50:\n        /* \"#utility.yul\":8515:8519   */\n      0x00\n        /* \"#utility.yul\":8553:8555   */\n      0x20\n        /* \"#utility.yul\":8542:8551   */\n      dup3\n        /* \"#utility.yul\":8538:8556   */\n      add\n        /* \"#utility.yul\":8530:8556   */\n      swap1\n      pop\n        /* \"#utility.yul\":8602:8611   */\n      dup2\n        /* \"#utility.yul\":8596:8600   */\n      dup2\n        /* \"#utility.yul\":8592:8612   */\n      sub\n        /* \"#utility.yul\":8588:8589   */\n      0x00\n        /* \"#utility.yul\":8577:8586   */\n      dup4\n        /* \"#utility.yul\":8573:8590   */\n      add\n        /* \"#utility.yul\":8566:8613   */\n      mstore\n        /* \"#utility.yul\":8630:8761   */\n      tag_269\n        /* \"#utility.yul\":8756:8760   */\n      dup2\n        /* \"#utility.yul\":8630:8761   */\n      tag_145\n      jump\t// in\n    tag_269:\n        /* \"#utility.yul\":8622:8761   */\n      swap1\n      pop\n        /* \"#utility.yul\":8349:8768   */\n      swap2\n      swap1\n      pop\n      jump\t// out\n        /* \"#utility.yul\":8774:8952   */\n    tag_146:\n        /* \"#utility.yul\":8914:8944   */\n      0x50726f66696c6520686173682063616e6e6f7420626520656d70747900000000\n        /* \"#utility.yul\":8910:8911   */\n      0x00\n        /* \"#utility.yul\":8902:8908   */\n      dup3\n        /* \"#utility.yul\":8898:8912   */\n      add\n        /* \"#utility.yul\":8891:8945   */\n      mstore\n        /* \"#utility.yul\":8774:8952   */\n      pop\n      jump\t// out\n        /* \"#utility.yul\":8958:9324   */\n    tag_147:\n        /* \"#utility.yul\":9100:9103   */\n      0x00\n        /* \"#utility.yul\":9121:9188   */\n      tag_272\n        /* \"#utility.yul\":9185:9187   */\n      0x1c\n        /* \"#utility.yul\":9180:9183   */\n      dup4\n        /* \"#utility.yul\":9121:9188   */\n      tag_139\n      jump\t// in\n    tag_272:\n        /* \"#utility.yul\":9114:9188   */\n      swap2\n      pop\n        /* \"#utility.yul\":9197:9290   */\n      tag_273\n        /* \"#utility.yul\":9286:9289   */\n      dup3\n        /* \"#utility.yul\":9197:9290   */\n      tag_146\n      jump\t// in\n    tag_273:\n        /* \"#utility.yul\":9315:9317   */\n      0x20\n        /* \"#utility.yul\":9310:9313   */\n      dup3\n        /* \"#utility.yul\":9306:9318   */\n      add\n        /* \"#utility.yul\":9299:9318   */\n      swap1\n      pop\n        /* \"#utility.yul\":8958:9324   */\n      swap2\n      swap1\n      pop\n      jump\t// out\n        /* \"#utility.yul\":9330:9749   */\n    tag_54:\n        /* \"#utility.yul\":9496:9500   */\n      0x00\n        /* \"#utility.yul\":9534:9536   */\n      0x20\n        /* \"#utility.yul\":9523:9532   */\n      dup3\n        /* \"#utility.yul\":9519:9537   */\n      add\n        /* \"#utility.yul\":9511:9537   */\n      swap1\n      pop\n        /* \"#utility.yul\":9583:9592   */\n      dup2\n        /* \"#utility.yul\":9577:9581   */\n      dup2\n        /* \"#utility.yul\":9573:9593   */\n      sub\n        /* \"#utility.yul\":9569:9570   */\n      0x00\n        /* \"#utility.yul\":9558:9567   */\n      dup4\n        /* \"#utility.yul\":9554:9571   */\n      add\n        /* \"#utility.yul\":9547:9594   */\n      mstore\n        /* \"#utility.yul\":9611:9742   */\n      tag_275\n        /* \"#utility.yul\":9737:9741   */\n      dup2\n        /* \"#utility.yul\":9611:9742   */\n      tag_147\n      jump\t// in\n    tag_275:\n        /* \"#utility.yul\":9603:9742   */\n      swap1\n      pop\n        /* \"#utility.yul\":9330:9749   */\n      swap2\n      swap1\n      pop\n      jump\t// out\n        /* \"#utility.yul\":9755:9935   */\n    tag_148:\n        /* \"#utility.yul\":9803:9880   */\n      0x4e487b7100000000000000000000000000000000000000000000000000000000\n        /* \"#utility.yul\":9800:9801   */\n      0x00\n        /* \"#utility.yul\":9793:9881   */\n      mstore\n        /* \"#utility.yul\":9900:9904   */\n      0x22\n        /* \"#utility.yul\":9897:9898   */\n      0x04\n        /* \"#utility.yul\":9890:9905   */\n      mstore\n        /* \"#utility.yul\":9924:9928   */\n      0x24\n        /* \"#utility.yul\":9921:9922   */\n      0x00\n        /* \"#utility.yul\":9914:9929   */\n      revert\n        /* \"#utility.yul\":9941:10261   */\n    tag_72:\n        /* \"#utility.yul\":9985:9991   */\n      0x00\n        /* \"#utility.yul\":10022:10023   */\n      0x02\n        /* \"#utility.yul\":10016:10020   */\n      dup3\n        /* \"#utility.yul\":10012:10024   */\n      div\n        /* \"#utility.yul\":10002:10024   */\n      swap1\n      pop\n        /* \"#utility.yul\":10069:10070   */\n      0x01\n        /* \"#utility.yul\":10063:10067   */\n      dup3\n        /* \"#utility.yul\":10059:10071   */\n      and\n        /* \"#utility.yul\":10090:10108   */\n      dup1\n        /* \"#utility.yul\":10080:10161   */\n      tag_278\n      jumpi\n        /* \"#utility.yul\":10146:10150   */\n      0x7f\n        /* \"#utility.yul\":10138:10144   */\n      dup3\n        /* \"#utility.yul\":10134:10151   */\n      and\n        /* \"#utility.yul\":10124:10151   */\n      swap2\n      pop\n        /* \"#utility.yul\":10080:10161   */\n    tag_278:\n        /* \"#utility.yul\":10208:10210   */\n      0x20\n        /* \"#utility.yul\":10200:10206   */\n      dup3\n        /* \"#utility.yul\":10197:10211   */\n      lt\n        /* \"#utility.yul\":10177:10195   */\n      dup2\n        /* \"#utility.yul\":10174:10212   */\n      sub\n        /* \"#utility.yul\":10171:10255   */\n      tag_279\n      jumpi\n        /* \"#utility.yul\":10227:10245   */\n      tag_280\n      tag_148\n      jump\t// in\n    tag_280:\n        /* \"#utility.yul\":10171:10255   */\n    tag_279:\n        /* \"#utility.yul\":9992:10261   */\n      pop\n        /* \"#utility.yul\":9941:10261   */\n      swap2\n      swap1\n      pop\n      jump\t// out\n        /* \"#utility.yul\":10267:10408   */\n    tag_149:\n        /* \"#utility.yul\":10316:10320   */\n      0x00\n        /* \"#utility.yul\":10339:10342   */\n      dup2\n        /* \"#utility.yul\":10331:10342   */\n      swap1\n      pop\n        /* \"#utility.yul\":10362:10365   */\n      dup2\n        /* \"#utility.yul\":10359:10360   */\n      0x00\n        /* \"#utility.yul\":10352:10366   */\n      mstore\n        /* \"#utility.yul\":10396:10400   */\n      0x20\n        /* \"#utility.yul\":10393:10394   */\n      0x00\n        /* \"#utility.yul\":10383:10401   */\n      keccak256\n        /* \"#utility.yul\":10375:10401   */\n      swap1\n      pop\n        /* \"#utility.yul\":10267:10408   */\n      swap2\n      swap1\n      pop\n      jump\t// out\n        /* \"#utility.yul\":10414:10507   */\n    tag_150:\n        /* \"#utility.yul\":10451:10457   */\n      0x00\n        /* \"#utility.yul\":10498:10500   */\n      0x20\n        /* \"#utility.yul\":10493:10495   */\n      0x1f\n        /* \"#utility.yul\":10486:10491   */\n      dup4\n        /* \"#utility.yul\":10482:10496   */\n      add\n        /* \"#utility.yul\":10478:10501   */\n      div\n        /* \"#utility.yul\":10468:10501   */\n      swap1\n      pop\n        /* \"#utility.yul\":10414:10507   */\n      swap2\n      swap1\n      pop\n      jump\t// out\n        /* \"#utility.yul\":10513:10620   */\n    tag_151:\n        /* \"#utility.yul\":10557:10565   */\n      0x00\n        /* \"#utility.yul\":10607:10612   */\n      dup3\n        /* \"#utility.yul\":10601:10605   */\n      dup3\n        /* \"#utility.yul\":10597:10613   */\n      shl\n        /* \"#utility.yul\":10576:10613   */\n      swap1\n      pop\n        /* \"#utility.yul\":10513:10620   */\n      swap3\n      swap2\n      pop\n      pop\n      jump\t// out\n        /* \"#utility.yul\":10626:11019   */\n    tag_152:\n        /* \"#utility.yul\":10695:10701   */\n      0x00\n        /* \"#utility.yul\":10745:10746   */\n      0x08\n        /* \"#utility.yul\":10733:10743   */\n      dup4\n        /* \"#utility.yul\":10729:10747   */\n      mul\n        /* \"#utility.yul\":10768:10865   */\n      tag_285\n        /* \"#utility.yul\":10798:10864   */\n      0xffffffffffffffffffffffffffffffffffffffffffffffffffffffffffffffff\n        /* \"#utility.yul\":10787:10796   */\n      dup3\n        /* \"#utility.yul\":10768:10865   */\n      tag_151\n      jump\t// in\n    tag_285:\n        /* \"#utility.yul\":10886:10925   */\n      tag_286\n        /* \"#utility.yul\":10916:10924   */\n      dup7\n        /* \"#utility.yul\":10905:10914   */\n      dup4\n        /* \"#utility.yul\":10886:10925   */\n      tag_151\n      jump\t// in\n    tag_286:\n        /* \"#utility.yul\":10874:10925   */\n      swap6\n      pop\n        /* \"#utility.yul\":10958:10962   */\n      dup1\n        /* \"#utility.yul\":10954:10963   */\n      not\n        /* \"#utility.yul\":10947:10952   */\n      dup5\n        /* \"#utility.yul\":10943:10964   */\n      and\n        /* \"#utility.yul\":10934:10964   */\n      swap4\n      pop\n        /* \"#utility.yul\":11007:11011   */\n      dup1\n        /* \"#utility.yul\":10997:11005   */\n      dup7\n        /* \"#utility.yul\":10993:11012   */\n      and\n        /* \"#utility.yul\":10986:10991   */\n      dup5\n        /* \"#utility.yul\":10983:11013   */\n      or\n        /* \"#utility.yul\":10973:11013   */\n      swap3\n      pop\n        /* \"#utility.yul\":10702:11019   */\n      pop\n      pop\n        /* \"#utility.yul\":10626:11019   */\n      swap4\n      swap3\n      pop\n      pop\n      pop\n      jump\t// out\n        /* \"#utility.yul\":11025:11085   */\n    tag_153:\n        /* \"#utility.yul\":11053:11056   */\n      0x00\n        /* \"#utility.yul\":11074:11079   */\n      dup2\n        /* \"#utility.yul\":11067:11079   */\n      swap1\n      pop\n        /* \"#utility.yul\":11025:11085   */\n      swap2\n      swap1\n      pop\n      jump\t// out\n        /* \"#utility.yul\":11091:11233   */\n    tag_154:\n        /* \"#utility.yul\":11141:11150   */\n      0x00\n        /* \"#utility.yul\":11174:11227   */\n      tag_289\n        /* \"#utility.yul\":11192:11226   */\n      tag_290\n        /* \"#utility.yul\":11201:11225   */\n      tag_291\n        /* \"#utility.yul\":11219:11224   */\n      dup5\n        /* \"#utility.yul\":11201:11225   */\n      tag_142\n      jump\t// in\n    tag_291:\n        /* \"#utility.yul\":11192:11226   */\n      tag_153\n      jump\t// in\n    tag_290:\n        /* \"#utility.yul\":11174:11227   */\n      tag_142\n      jump\t// in\n    tag_289:\n        /* \"#utility.yul\":11161:11227   */\n      swap1\n      pop\n        /* \"#utility.yul\":11091:11233   */\n      swap2\n      swap1\n      pop\n      jump\t// out\n        /* \"#utility.yul\":11239:11314   */\n    tag_155:\n        /* \"#utility.yul\":11282:11285   */\n      0x00\n        /* \"#utility.yul\":11303:11308   */\n      dup2\n        /* \"#utility.yul\":11296:11308   */\n      swap1\n      pop\n        /* \"#utility.yul\":11239:11314   */\n      swap2\n      swap1\n      pop\n      jump\t// out\n        /* \"#utility.yul\":11320:11589   */\n    tag_156:\n        /* \"#utility.yul\":11430:11469   */\n      tag_294\n        /* \"#utility.yul\":11461:11468   */\n      dup4\n        /* \"#utility.yul\":11430:11469   */\n      tag_154\n      jump\t// in\n    tag_294:\n        /* \"#utility.yul\":11491:11582   */\n      tag_295\n        /* \"#utility.yul\":11540:11581   */\n      tag_296\n        /* \"#utility.yul\":11564:11580   */\n      dup3\n        /* \"#utility.yul\":11540:11581   */\n      tag_155\n      jump\t// in\n    tag_296:\n        /* \"#utility.yul\":11532:11538   */\n      dup5\n        /* \"#utility.yul\":11525:11529   */\n      dup5\n        /* \"#utility.yul\":11519:11530   */\n      sload\n        /* \"#utility.yul\":11491:11582   */\n      tag_152\n      jump\t// in\n    tag_295:\n        /* \"#utility.yul\":11485:11489   */\n      dup3\n        /* \"#utility.yul\":11478:11583   */\n      sstore\n        /* \"#utility.yul\":11396:11589   */\n      pop\n        /* \"#utility.yul\":11320:11589   */\n      pop\n      pop\n      pop\n      jump\t// out\n        /* \"#utility.yul\":11595:11668   */\n    tag_157:\n        /* \"#utility.yul\":11640:11643   */\n      0x00\n        /* \"#utility.yul\":11661:11662   */\n      0x00\n        /* \"#utility.yul\":11654:11662   */\n      swap1\n      pop\n        /* \"#utility.yul\":11595:11668   */\n      swap1\n      jump\t// out\n        /* \"#utility.yul\":11674:11863   */\n    tag_158:\n        /* \"#utility.yul\":11751:11783   */\n      tag_299\n      tag_157\n      jump\t// in\n    tag_299:\n        /* \"#utility.yul\":11792:11857   */\n      tag_300\n        /* \"#utility.yul\":11850:11856   */\n      dup2\n        /* \"#utility.yul\":11842:11848   */\n      dup5\n        /* \"#utility.yul\":11836:11840   */\n      dup5\n        /* \"#utility.yul\":11792:11857   */\n      tag_156\n      jump\t// in\n    tag_300:\n        /* \"#utility.yul\":11727:11863   */\n      pop\n        /* \"#utility.yul\":11674:11863   */\n      pop\n      pop\n      jump\t// out\n        /* \"#utility.yul\":11869:12055   */\n    tag_159:\n        /* \"#utility.yul\":11929:12049   */\n    tag_302:\n        /* \"#utility.yul\":11946:11949   */\n      dup2\n        /* \"#utility.yul\":11939:11944   */\n      dup2\n        /* \"#utility.yul\":11936:11950   */\n      lt\n        /* \"#utility.yul\":11929:12049   */\n      iszero\n      tag_304\n      jumpi\n        /* \"#utility.yul\":12000:12039   */\n      tag_305\n        /* \"#utility.yul\":12037:12038   */\n      0x00\n        /* \"#utility.yul\":12030:12035   */\n      dup3\n        /* \"#utility.yul\":12000:12039   */\n      tag_158\n      jump\t// in\n    tag_305:\n        /* \"#utility.yul\":11973:11974   */\n      0x01\n        /* \"#utility.yul\":11966:11971   */\n      dup2\n        /* \"#utility.yul\":11962:11975   */\n      add\n        /* \"#utility.yul\":11953:11975   */\n      swap1\n      pop\n        /* \"#utility.yul\":11929:12049   */\n      jump(tag_302)\n    tag_304:\n        /* \"#utility.yul\":11869:12055   */\n      pop\n      pop\n      jump\t// out\n        /* \"#utility.yul\":12061:12604   */\n    tag_160:\n        /* \"#utility.yul\":12162:12164   */\n      0x1f\n        /* \"#utility.yul\":12157:12160   */\n      dup3\n        /* \"#utility.yul\":12154:12165   */\n      gt\n        /* \"#utility.yul\":12151:12597   */\n      iszero\n      tag_307\n      jumpi\n        /* \"#utility.yul\":12196:12234   */\n      tag_308\n        /* \"#utility.yul\":12228:12233   */\n      dup2\n        /* \"#utility.yul\":12196:12234   */\n      tag_149\n      jump\t// in\n    tag_308:\n        /* \"#utility.yul\":12280:12309   */\n      tag_309\n        /* \"#utility.yul\":12298:12308   */\n      dup5\n        /* \"#utility.yul\":12280:12309   */\n      tag_150\n      jump\t// in\n    tag_309:\n        /* \"#utility.yul\":12270:12278   */\n      dup2\n        /* \"#utility.yul\":12266:12310   */\n      add\n        /* \"#utility.yul\":12463:12465   */\n      0x20\n        /* \"#utility.yul\":12451:12461   */\n      dup6\n        /* \"#utility.yul\":12448:12466   */\n      lt\n        /* \"#utility.yul\":12445:12494   */\n      iszero\n      tag_310\n      jumpi\n        /* \"#utility.yul\":12484:12492   */\n      dup2\n        /* \"#utility.yul\":12469:12492   */\n      swap1\n      pop\n        /* \"#utility.yul\":12445:12494   */\n    tag_310:\n        /* \"#utility.yul\":12507:12587   */\n      tag_311\n        /* \"#utility.yul\":12563:12585   */\n      tag_312\n        /* \"#utility.yul\":12581:12584   */\n      dup6\n        /* \"#utility.yul\":12563:12585   */\n      tag_150\n      jump\t// in\n    tag_312:\n        /* \"#utility.yul\":12553:12561   */\n      dup4\n        /* \"#utility.yul\":12549:12586   */\n      add\n        /* \"#utility.yul\":12536:12547   */\n      dup3\n        /* \"#utility.yul\":12507:12587   */\n      tag_159\n      jump\t// in\n    tag_311:\n        /* \"#utility.yul\":12166:12597   */\n      pop\n      pop\n        /* \"#utility.yul\":12151:12597   */\n    tag_307:\n        /* \"#utility.yul\":12061:12604   */\n      pop\n      pop\n      pop\n      jump\t// out\n        /* \"#utility.yul\":12610:12727   */\n    tag_161:\n        /* \"#utility.yul\":12664:12672   */\n      0x00\n        /* \"#utility.yul\":12714:12719   */\n      dup3\n        /* \"#utility.yul\":12708:12712   */\n      dup3\n        /* \"#utility.yul\":12704:12720   */\n      shr\n        /* \"#utility.yul\":12683:12720   */\n      swap1\n      pop\n        /* \"#utility.yul\":12610:12727   */\n      swap3\n      swap2\n      pop\n      pop\n      jump\t// out\n        /* \"#utility.yul\":12733:12902   */\n    tag_162:\n        /* \"#utility.yul\":12777:12783   */\n      0x00\n        /* \"#utility.yul\":12810:12861   */\n      tag_315\n        /* \"#utility.yul\":12858:12859   */\n      0x00\n        /* \"#utility.yul\":12854:12860   */\n      not\n        /* \"#utility.yul\":12846:12851   */\n      dup5\n        /* \"#utility.yul\":12843:12844   */\n      0x08\n        /* \"#utility.yul\":12839:12852   */\n      mul\n        /* \"#utility.yul\":12810:12861   */\n      tag_161\n      jump\t// in\n    tag_315:\n        /* \"#utility.yul\":12806:12862   */\n      not\n        /* \"#utility.yul\":12891:12895   */\n      dup1\n        /* \"#utility.yul\":12885:12889   */\n      dup4\n        /* \"#utility.yul\":12881:12896   */\n      and\n        /* \"#utility.yul\":12871:12896   */\n      swap2\n      pop\n        /* \"#utility.yul\":12784:12902   */\n      pop\n        /* \"#utility.yul\":12733:12902   */\n      swap3\n      swap2\n      pop\n      pop\n      jump\t// out\n        /* \"#utility.yul\":12907:13202   */\n    tag_163:\n        /* \"#utility.yul\":12983:12987   */\n      0x00\n        /* \"#utility.yul\":13129:13158   */\n      tag_317\n        /* \"#utility.yul\":13154:13157   */\n      dup4\n        /* \"#utility.yul\":13148:13152   */\n      dup4\n        /* \"#utility.yul\":13129:13158   */\n      tag_162\n      jump\t// in\n    tag_317:\n        /* \"#utility.yul\":13121:13158   */\n      swap2\n      pop\n        /* \"#utility.yul\":13191:13194   */\n      dup3\n        /* \"#utility.yul\":13188:13189   */\n      0x02\n        /* \"#utility.yul\":13184:13195   */\n      mul\n        /* \"#utility.yul\":13178:13182   */\n      dup3\n        /* \"#utility.yul\":13175:13196   */\n      or\n        /* \"#utility.yul\":13167:13196   */\n      swap1\n      pop\n        /* \"#utility.yul\":12907:13202   */\n      swap3\n      swap2\n      pop\n      pop\n      jump\t// out\n        /* \"#utility.yul\":13207:14602   */\n    tag_56:\n        /* \"#utility.yul\":13324:13361   */\n      tag_319\n        /* \"#utility.yul\":13357:13360   */\n      dup3\n        /* \"#utility.yul\":13324:13361   */\n      tag_138\n      jump\t// in\n    tag_319:\n        /* \"#utility.yul\":13426:13444   */\n      0xffffffffffffffff\n        /* \"#utility.yul\":13418:13424   */\n      dup2\n        /* \"#utility.yul\":13415:13445   */\n      gt\n        /* \"#utility.yul\":13412:13468   */\n      iszero\n      tag_320\n      jumpi\n        /* \"#utility.yul\":13448:13466   */\n      tag_321\n      tag_124\n      jump\t// in\n    tag_321:\n        /* \"#utility.yul\":13412:13468   */\n    tag_320:\n        /* \"#utility.yul\":13492:13530   */\n      tag_322\n        /* \"#utility.yul\":13524:13528   */\n      dup3\n        /* \"#utility.yul\":13518:13529   */\n      sload\n        /* \"#utility.yul\":13492:13530   */\n      tag_72\n      jump\t// in\n    tag_322:\n        /* \"#utility.yul\":13577:13644   */\n      tag_323\n        /* \"#utility.yul\":13637:13643   */\n      dup3\n        /* \"#utility.yul\":13629:13635   */\n      dup3\n        /* \"#utility.yul\":13623:13627   */\n      dup6\n        /* \"#utility.yul\":13577:13644   */\n      tag_160\n      jump\t// in\n    tag_323:\n        /* \"#utility.yul\":13671:13672   */\n      0x00\n        /* \"#utility.yul\":13695:13699   */\n      0x20\n        /* \"#utility.yul\":13682:13699   */\n      swap1\n      pop\n        /* \"#utility.yul\":13727:13729   */\n      0x1f\n        /* \"#utility.yul\":13719:13725   */\n      dup4\n        /* \"#utility.yul\":13716:13730   */\n      gt\n        /* \"#utility.yul\":13744:13745   */\n      0x01\n        /* \"#utility.yul\":13739:14357   */\n      dup2\n      eq\n      tag_325\n      jumpi\n        /* \"#utility.yul\":14401:14402   */\n      0x00\n        /* \"#utility.yul\":14418:14424   */\n      dup5\n        /* \"#utility.yul\":14415:14492   */\n      iszero\n      tag_326\n      jumpi\n        /* \"#utility.yul\":14467:14476   */\n      dup3\n        /* \"#utility.yul\":14462:14465   */\n      dup8\n        /* \"#utility.yul\":14458:14477   */\n      add\n        /* \"#utility.yul\":14452:14478   */\n      mload\n        /* \"#utility.yul\":14443:14478   */\n      swap1\n      pop\n        /* \"#utility.yul\":14415:14492   */\n    tag_326:\n        /* \"#utility.yul\":14518:14585   */\n      tag_327\n        /* \"#utility.yul\":14578:14584   */\n      dup6\n        /* \"#utility.yul\":14571:14576   */\n      dup3\n        /* \"#utility.yul\":14518:14585   */\n      tag_163\n      jump\t// in\n    tag_327:\n        /* \"#utility.yul\":14512:14516   */\n      dup7\n        /* \"#utility.yul\":14505:14586   */\n      sstore\n        /* \"#utility.yul\":14374:14596   */\n      pop\n        /* \"#utility.yul\":13709:14596   */\n      jump(tag_324)\n        /* \"#utility.yul\":13739:14357   */\n    tag_325:\n        /* \"#utility.yul\":13791:13795   */\n      0x1f\n        /* \"#utility.yul\":13787:13796   */\n      not\n        /* \"#utility.yul\":13779:13785   */\n      dup5\n        /* \"#utility.yul\":13775:13797   */\n      and\n        /* \"#utility.yul\":13825:13862   */\n      tag_328\n        /* \"#utility.yul\":13857:13861   */\n      dup7\n        /* \"#utility.yul\":13825:13862   */\n      tag_149\n      jump\t// in\n    tag_328:\n        /* \"#utility.yul\":13884:13885   */\n      0x00\n        /* \"#utility.yul\":13898:14106   */\n    tag_329:\n        /* \"#utility.yul\":13912:13919   */\n      dup3\n        /* \"#utility.yul\":13909:13910   */\n      dup2\n        /* \"#utility.yul\":13906:13920   */\n      lt\n        /* \"#utility.yul\":13898:14106   */\n      iszero\n      tag_331\n      jumpi\n        /* \"#utility.yul\":13991:14000   */\n      dup5\n        /* \"#utility.yul\":13986:13989   */\n      dup10\n        /* \"#utility.yul\":13982:14001   */\n      add\n        /* \"#utility.yul\":13976:14002   */\n      mload\n        /* \"#utility.yul\":13968:13974   */\n      dup3\n        /* \"#utility.yul\":13961:14003   */\n      sstore\n        /* \"#utility.yul\":14042:14043   */\n      0x01\n        /* \"#utility.yul\":14034:14040   */\n      dup3\n        /* \"#utility.yul\":14030:14044   */\n      add\n        /* \"#utility.yul\":14020:14044   */\n      swap2\n      pop\n        /* \"#utility.yul\":14089:14091   */\n      0x20\n        /* \"#utility.yul\":14078:14087   */\n      dup6\n        /* \"#utility.yul\":14074:14092   */\n      add\n        /* \"#utility.yul\":14061:14092   */\n      swap5\n      pop\n        /* \"#utility.yul\":13935:13939   */\n      0x20\n        /* \"#utility.yul\":13932:13933   */\n      dup2\n        /* \"#utility.yul\":13928:13940   */\n      add\n        /* \"#utility.yul\":13923:13940   */\n      swap1\n      pop\n        /* \"#utility.yul\":13898:14106   */\n      jump(tag_329)\n    tag_331:\n        /* \"#utility.yul\":14134:14140   */\n      dup7\n        /* \"#utility.yul\":14125:14132   */\n      dup4\n        /* \"#utility.yul\":14122:14141   */\n      lt\n        /* \"#utility.yul\":14119:14298   */\n      iszero\n      tag_332\n      jumpi\n        /* \"#utility.yul\":14192:14201   */\n      dup5\n        /* \"#utility.yul\":14187:14190   */\n      dup10\n        /* \"#utility.yul\":14183:14202   */\n      add\n        /* \"#utility.yul\":14177:14203   */\n      mload\n        /* \"#utility.yul\":14235:14283   */\n      tag_333\n        /* \"#utility.yul\":14277:14281   */\n      0x1f\n        /* \"#utility.yul\":14269:14275   */\n      dup10\n        /* \"#utility.yul\":14265:14282   */\n      and\n        /* \"#utility.yul\":14254:14263   */\n      dup3\n        /* \"#utility.yul\":14235:14283   */\n      tag_162\n      jump\t// in\n    tag_333:\n        /* \"#utility.yul\":14227:14233   */\n      dup4\n        /* \"#utility.yul\":14220:14284   */\n      sstore\n        /* \"#utility.yul\":14142:14298   */\n      pop\n        /* \"#utility.yul\":14119:14298   */\n    tag_332:\n        /* \"#utility.yul\":14344:14345   */\n      0x01\n        /* \"#utility.yul\":14340:14341   */\n      0x02\n        /* \"#utility.yul\":14332:14338   */\n      dup9\n        /* \"#utility.yul\":14328:14342   */\n      mul\n        /* \"#utility.yul\":14324:14346   */\n      add\n        /* \"#utility.yul\":14318:14322   */\n      dup9\n        /* \"#utility.yul\":14311:14347   */\n      sstore\n        /* \"#utility.yul\":13746:14357   */\n      pop\n      pop\n      pop\n        /* \"#utility.yul\":13709:14596   */\n    tag_324:\n      pop\n        /* \"#utility.yul\":13299:14602   */\n      pop\n      pop\n      pop\n        /* \"#utility.yul\":13207:14602   */\n      pop\n      pop\n      jump\t// out\n        /* \"#utility.yul\":14608:14921   */\n    tag_58:\n        /* \"#utility.yul\":14721:14725   */\n      0x00\n        /* \"#utility.yul\":14759:14761   */\n      0x20\n        /* \"#utility.yul\":14748:14757   */\n      dup3\n        /* \"#utility.yul\":14744:14762   */\n      add\n        /* \"#utility.yul\":14736:14762   */\n      swap1\n      pop\n        /* \"#utility.yul\":14808:14817   */\n      dup2\n        /* \"#utility.yul\":14802:14806   */\n      dup2\n        /* \"#utility.yul\":14798:14818   */\n      sub\n        /* \"#utility.yul\":14794:14795   */\n      0x00\n        /* \"#utility.yul\":14783:14792   */\n      dup4\n        /* \"#utility.yul\":14779:14796   */\n      add\n        /* \"#utility.yul\":14772:14819   */\n      mstore\n        /* \"#utility.yul\":14836:14914   */\n      tag_335\n        /* \"#utility.yul\":14909:14913   */\n      dup2\n        /* \"#utility.yul\":14900:14906   */\n      dup5\n        /* \"#utility.yul\":14836:14914   */\n      tag_141\n      jump\t// in\n    tag_335:\n        /* \"#utility.yul\":14828:14914   */\n      swap1\n      pop\n        /* \"#utility.yul\":14608:14921   */\n      swap3\n      swap2\n      pop\n      pop\n      jump\t// out\n        /* \"#utility.yul\":14927:15075   */\n    tag_164:\n        /* \"#utility.yul\":15029:15040   */\n      0x00\n        /* \"#utility.yul\":15066:15069   */\n      dup2\n        /* \"#utility.yul\":15051:15069   */\n      swap1\n      pop\n        /* \"#utility.yul\":14927:15075   */\n      swap3\n      swap2\n      pop\n      pop\n      jump\t// out\n        /* \"#utility.yul\":15081:15471   */\n    tag_165:\n        /* \"#utility.yul\":15187:15190   */\n      0x00\n        /* \"#utility.yul\":15215:15254   */\n      tag_338\n        /* \"#utility.yul\":15248:15253   */\n      dup3\n        /* \"#utility.yul\":15215:15254   */\n      tag_138\n      jump\t// in\n    tag_338:\n        /* \"#utility.yul\":15270:15359   */\n      tag_339\n        /* \"#utility.yul\":15352:15358   */\n      dup2\n        /* \"#utility.yul\":15347:15350   */\n      dup6\n        /* \"#utility.yul\":15270:15359   */\n      tag_164\n      jump\t// in\n    tag_339:\n        /* \"#utility.yul\":15263:15359   */\n      swap4\n      pop\n        /* \"#utility.yul\":15368:15433   */\n      tag_340\n        /* \"#utility.yul\":15426:15432   */\n      dup2\n        /* \"#utility.yul\":15421:15424   */\n      dup6\n        /* \"#utility.yul\":15414:15418   */\n      0x20\n        /* \"#utility.yul\":15407:15412   */\n      dup7\n        /* \"#utility.yul\":15403:15419   */\n      add\n        /* \"#utility.yul\":15368:15433   */\n      tag_140\n      jump\t// in\n    tag_340:\n        /* \"#utility.yul\":15458:15464   */\n      dup1\n        /* \"#utility.yul\":15453:15456   */\n      dup5\n        /* \"#utility.yul\":15449:15465   */\n      add\n        /* \"#utility.yul\":15442:15465   */\n      swap2\n      pop\n        /* \"#utility.yul\":15191:15471   */\n      pop\n        /* \"#utility.yul\":15081:15471   */\n      swap3\n      swap2\n      pop\n      pop\n      jump\t// out\n        /* \"#utility.yul\":15477:15752   */\n    tag_66:\n        /* \"#utility.yul\":15609:15612   */\n      0x00\n        /* \"#utility.yul\":15631:15726   */\n      tag_342\n        /* \"#utility.yul\":15722:15725   */\n      dup3\n        /* \"#utility.yul\":15713:15719   */\n      dup5\n        /* \"#utility.yul\":15631:15726   */\n      tag_165\n      jump\t// in\n    tag_342:\n        /* \"#utility.yul\":15624:15726   */\n      swap2\n      pop\n        /* \"#utility.yul\":15743:15746   */\n      dup2\n        /* \"#utility.yul\":15736:15746   */\n      swap1\n      pop\n        /* \"#utility.yul\":15477:15752   */\n      swap3\n      swap2\n      pop\n      pop\n      jump\t// out\n        /* \"#utility.yul\":15758:15922   */\n    tag_166:\n        /* \"#utility.yul\":15898:15914   */\n      0x55736572206e6f7420666f756e64000000000000000000000000000000000000\n        /* \"#utility.yul\":15894:15895   */\n      0x00\n        /* \"#utility.yul\":15886:15892   */\n      dup3\n        /* \"#utility.yul\":15882:15896   */\n      add\n        /* \"#utility.yul\":15875:15915   */\n      mstore\n        /* \"#utility.yul\":15758:15922   */\n      pop\n      jump\t// out\n        /* \"#utility.yul\":15928:16294   */\n    tag_167:\n        /* \"#utility.yul\":16070:16073   */\n      0x00\n        /* \"#utility.yul\":16091:16158   */\n      tag_345\n        /* \"#utility.yul\":16155:16157   */\n      0x0e\n        /* \"#utility.yul\":16150:16153   */\n      dup4\n        /* \"#utility.yul\":16091:16158   */\n      tag_139\n      jump\t// in\n    tag_345:\n        /* \"#utility.yul\":16084:16158   */\n      swap2\n      pop\n        /* \"#utility.yul\":16167:16260   */\n      tag_346\n        /* \"#utility.yul\":16256:16259   */\n      dup3\n        /* \"#utility.yul\":16167:16260   */\n      tag_166\n      jump\t// in\n    tag_346:\n        /* \"#utility.yul\":16285:16287   */\n      0x20\n        /* \"#utility.yul\":16280:16283   */\n      dup3\n        /* \"#utility.yul\":16276:16288   */\n      add\n        /* \"#utility.yul\":16269:16288   */\n      swap1\n      pop\n        /* \"#utility.yul\":15928:16294   */\n      swap2\n      swap1\n      pop\n      jump\t// out\n        /* \"#utility.yul\":16300:16719   */\n    tag_70:\n        /* \"#utility.yul\":16466:16470   */\n      0x00\n        /* \"#utility.yul\":16504:16506   */\n      0x20\n        /* \"#utility.yul\":16493:16502   */\n      dup3\n        /* \"#utility.yul\":16489:16507   */\n      add\n        /* \"#utility.yul\":16481:16507   */\n      swap1\n      pop\n        /* \"#utility.yul\":16553:16562   */\n      dup2\n        /* \"#utility.yul\":16547:16551   */\n      dup2\n        /* \"#utility.yul\":16543:16563   */\n      sub\n        /* \"#utility.yul\":16539:16540   */\n      0x00\n        /* \"#utility.yul\":16528:16537   */\n      dup4\n        /* \"#utility.yul\":16524:16541   */\n      add\n        /* \"#utility.yul\":16517:16564   */\n      mstore\n        /* \"#utility.yul\":16581:16712   */\n      tag_348\n        /* \"#utility.yul\":16707:16711   */\n      dup2\n        /* \"#utility.yul\":16581:16712   */\n      tag_167\n      jump\t// in\n    tag_348:\n        /* \"#utility.yul\":16573:16712   */\n      swap1\n      pop\n        /* \"#utility.yul\":16300:16719   */\n      swap2\n      swap1\n      pop\n      jump\t// out\n        /* \"#utility.yul\":16725:16899   */\n    tag_168:\n        /* \"#utility.yul\":16865:16891   */\n      0x557365726e616d652063616e6e6f7420626520656d7074790000000000000000\n        /* \"#utility.yul\":16861:16862   */\n      0x00\n        /* \"#utility.yul\":16853:16859   */\n      dup3\n        /* \"#utility.yul\":16849:16863   */\n      add\n        /* \"#utility.yul\":16842:16892   */\n      mstore\n        /* \"#utility.yul\":16725:16899   */\n      pop\n      jump\t// out\n        /* \"#utility.yul\":16905:17271   */\n    tag_169:\n        /* \"#utility.yul\":17047:17050   */\n      0x00\n        /* \"#utility.yul\":17068:17135   */\n      tag_351\n        /* \"#utility.yul\":17132:17134   */\n      0x18\n        /* \"#utility.yul\":17127:17130   */\n      dup4\n        /* \"#utility.yul\":17068:17135   */\n      tag_139\n      jump\t// in\n    tag_351:\n        /* \"#utility.yul\":17061:17135   */\n      swap2\n      pop\n        /* \"#utility.yul\":17144:17237   */\n      tag_352\n        /* \"#utility.yul\":17233:17236   */\n      dup3\n        /* \"#utility.yul\":17144:17237   */\n      tag_168\n      jump\t// in\n    tag_352:\n        /* \"#utility.yul\":17262:17264   */\n      0x20\n        /* \"#utility.yul\":17257:17260   */\n      dup3\n        /* \"#utility.yul\":17253:17265   */\n      add\n        /* \"#utility.yul\":17246:17265   */\n      swap1\n      pop\n        /* \"#utility.yul\":16905:17271   */\n      swap2\n      swap1\n      pop\n      jump\t// out\n        /* \"#utility.yul\":17277:17696   */\n    tag_90:\n        /* \"#utility.yul\":17443:17447   */\n      0x00\n        /* \"#utility.yul\":17481:17483   */\n      0x20\n        /* \"#utility.yul\":17470:17479   */\n      dup3\n        /* \"#utility.yul\":17466:17484   */\n      add\n        /* \"#utility.yul\":17458:17484   */\n      swap1\n      pop\n        /* \"#utility.yul\":17530:17539   */\n      dup2\n        /* \"#utility.yul\":17524:17528   */\n      dup2\n        /* \"#utility.yul\":17520:17540   */\n      sub\n        /* \"#utility.yul\":17516:17517   */\n      0x00\n        /* \"#utility.yul\":17505:17514   */\n      dup4\n        /* \"#utility.yul\":17501:17518   */\n      add\n        /* \"#utility.yul\":17494:17541   */\n      mstore\n        /* \"#utility.yul\":17558:17689   */\n      tag_354\n        /* \"#utility.yul\":17684:17688   */\n      dup2\n        /* \"#utility.yul\":17558:17689   */\n      tag_169\n      jump\t// in\n    tag_354:\n        /* \"#utility.yul\":17550:17689   */\n      swap1\n      pop\n        /* \"#utility.yul\":17277:17696   */\n      swap2\n      swap1\n      pop\n      jump\t// out\n        /* \"#utility.yul\":17702:17873   */\n    tag_170:\n        /* \"#utility.yul\":17842:17865   */\n      0x456d61696c2063616e6e6f7420626520656d7074790000000000000000000000\n        /* \"#utility.yul\":17838:17839   */\n      0x00\n        /* \"#utility.yul\":17830:17836   */\n      dup3\n        /* \"#utility.yul\":17826:17840   */\n      add\n        /* \"#utility.yul\":17819:17866   */\n      mstore\n        /* \"#utility.yul\":17702:17873   */\n      pop\n      jump\t// out\n        /* \"#utility.yul\":17879:18245   */\n    tag_171:\n        /* \"#utility.yul\":18021:18024   */\n      0x00\n        /* \"#utility.yul\":18042:18109   */\n      tag_357\n        /* \"#utility.yul\":18106:18108   */\n      0x15\n        /* \"#utility.yul\":18101:18104   */\n      dup4\n        /* \"#utility.yul\":18042:18109   */\n      tag_139\n      jump\t// in\n    tag_357:\n        /* \"#utility.yul\":18035:18109   */\n      swap2\n      pop\n        /* \"#utility.yul\":18118:18211   */\n      tag_358\n        /* \"#utility.yul\":18207:18210   */\n      dup3\n        /* \"#utility.yul\":18118:18211   */\n      tag_170\n      jump\t// in\n    tag_358:\n        /* \"#utility.yul\":18236:18238   */\n      0x20\n        /* \"#utility.yul\":18231:18234   */\n      dup3\n        /* \"#utility.yul\":18227:18239   */\n      add\n        /* \"#utility.yul\":18220:18239   */\n      swap1\n      pop\n        /* \"#utility.yul\":17879:18245   */\n      swap2\n      swap1\n      pop\n      jump\t// out\n        /* \"#utility.yul\":18251:18670   */\n    tag_93:\n        /* \"#utility.yul\":18417:18421   */\n      0x00\n        /* \"#utility.yul\":18455:18457   */\n      0x20\n        /* \"#utility.yul\":18444:18453   */\n      dup3\n        /* \"#utility.yul\":18440:18458   */\n      add\n        /* \"#utility.yul\":18432:18458   */\n      swap1\n      pop\n        /* \"#utility.yul\":18504:18513   */\n      dup2\n        /* \"#utility.yul\":18498:18502   */\n      dup2\n        /* \"#utility.yul\":18494:18514   */\n      sub\n        /* \"#utility.yul\":18490:18491   */\n      0x00\n        /* \"#utility.yul\":18479:18488   */\n      dup4\n        /* \"#utility.yul\":18475:18492   */\n      add\n        /* \"#utility.yul\":18468:18515   */\n      mstore\n        /* \"#utility.yul\":18532:18663   */\n      tag_360\n        /* \"#utility.yul\":18658:18662   */\n      dup2\n        /* \"#utility.yul\":18532:18663   */\n      tag_171\n      jump\t// in\n    tag_360:\n        /* \"#utility.yul\":18524:18663   */\n      swap1\n      pop\n        /* \"#utility.yul\":18251:18670   */\n      swap2\n      swap1\n      pop\n      jump\t// out\n        /* \"#utility.yul\":18676:18848   */\n    tag_172:\n        /* \"#utility.yul\":18816:18840   */\n      0x557365726e616d6520616c72656164792074616b656e00000000000000000000\n        /* \"#utility.yul\":18812:18813   */\n      0x00\n        /* \"#utility.yul\":18804:18810   */\n      dup3\n        /* \"#utility.yul\":18800:18814   */\n      add\n        /* \"#utility.yul\":18793:18841   */\n      mstore\n        /* \"#utility.yul\":18676:18848   */\n      pop\n      jump\t// out\n        /* \"#utility.yul\":18854:19220   */\n    tag_173:\n        /* \"#utility.yul\":18996:18999   */\n      0x00\n        /* \"#utility.yul\":19017:19084   */\n      tag_363\n        /* \"#utility.yul\":19081:19083   */\n      0x16\n        /* \"#utility.yul\":19076:19079   */\n      dup4\n        /* \"#utility.yul\":19017:19084   */\n      tag_139\n      jump\t// in\n    tag_363:\n        /* \"#utility.yul\":19010:19084   */\n      swap2\n      pop\n        /* \"#utility.yul\":19093:19186   */\n      tag_364\n        /* \"#utility.yul\":19182:19185   */\n      dup3\n        /* \"#utility.yul\":19093:19186   */\n      tag_172\n      jump\t// in\n    tag_364:\n        /* \"#utility.yul\":19211:19213   */\n      0x20\n        /* \"#utility.yul\":19206:19209   */\n      dup3\n        /* \"#utility.yul\":19202:19214   */\n      add\n        /* \"#utility.yul\":19195:19214   */\n      swap1\n      pop\n        /* \"#utility.yul\":18854:19220   */\n      swap2\n      swap1\n      pop\n      jump\t// out\n        /* \"#utility.yul\":19226:19645   */\n    tag_97:\n        /* \"#utility.yul\":19392:19396   */\n      0x00\n        /* \"#utility.yul\":19430:19432   */\n      0x20\n        /* \"#utility.yul\":19419:19428   */\n      dup3\n        /* \"#utility.yul\":19415:19433   */\n      add\n        /* \"#utility.yul\":19407:19433   */\n      swap1\n      pop\n        /* \"#utility.yul\":19479:19488   */\n      dup2\n        /* \"#utility.yul\":19473:19477   */\n      dup2\n        /* \"#utility.yul\":19469:19489   */\n      sub\n        /* \"#utility.yul\":19465:19466   */\n      0x00\n        /* \"#utility.yul\":19454:19463   */\n      dup4\n        /* \"#utility.yul\":19450:19467   */\n      add\n        /* \"#utility.yul\":19443:19490   */\n      mstore\n        /* \"#utility.yul\":19507:19638   */\n      tag_366\n        /* \"#utility.yul\":19633:19637   */\n      dup2\n        /* \"#utility.yul\":19507:19638   */\n      tag_173\n      jump\t// in\n    tag_366:\n        /* \"#utility.yul\":19499:19638   */\n      swap1\n      pop\n        /* \"#utility.yul\":19226:19645   */\n      swap2\n      swap1\n      pop\n      jump\t// out\n        /* \"#utility.yul\":19651:19827   */\n    tag_174:\n        /* \"#utility.yul\":19791:19819   */\n      0x4164647265737320616c72656164792072656769737465726564000000000000\n        /* \"#utility.yul\":19787:19788   */\n      0x00\n        /* \"#utility.yul\":19779:19785   */\n      dup3\n        /* \"#utility.yul\":19775:19789   */\n      add\n        /* \"#utility.yul\":19768:19820   */\n      mstore\n        /* \"#utility.yul\":19651:19827   */\n      pop\n      jump\t// out\n        /* \"#utility.yul\":19833:20199   */\n    tag_175:\n        /* \"#utility.yul\":19975:19978   */\n      0x00\n        /* \"#utility.yul\":19996:20063   */\n      tag_369\n        /* \"#utility.yul\":20060:20062   */\n      0x1a\n        /* \"#utility.yul\":20055:20058   */\n      dup4\n        /* \"#utility.yul\":19996:20063   */\n      tag_139\n      jump\t// in\n    tag_369:\n        /* \"#utility.yul\":19989:20063   */\n      swap2\n      pop\n        /* \"#utility.yul\":20072:20165   */\n      tag_370\n        /* \"#utility.yul\":20161:20164   */\n      dup3\n        /* \"#utility.yul\":20072:20165   */\n      tag_174\n      jump\t// in\n    tag_370:\n        /* \"#utility.yul\":20190:20192   */\n      0x20\n        /* \"#utility.yul\":20185:20188   */\n      dup3\n        /* \"#utility.yul\":20181:20193   */\n      add\n        /* \"#utility.yul\":20174:20193   */\n      swap1\n      pop\n        /* \"#utility.yul\":19833:20199   */\n      swap2\n      swap1\n      pop\n      jump\t// out\n        /* \"#utility.yul\":20205:20624   */\n    tag_100:\n        /* \"#utility.yul\":20371:20375   */\n      0x00\n        /* \"#utility.yul\":20409:20411   */\n      0x20\n        /* \"#utility.yul\":20398:20407   */\n      dup3\n        /* \"#utility.yul\":20394:20412   */\n      add\n        /* \"#utility.yul\":20386:20412   */\n      swap1\n      pop\n        /* \"#utility.yul\":20458:20467   */\n      dup2\n        /* \"#utility.yul\":20452:20456   */\n      dup2\n        /* \"#utility.yul\":20448:20468   */\n      sub\n        /* \"#utility.yul\":20444:20445   */\n      0x00\n        /* \"#utility.yul\":20433:20442   */\n      dup4\n        /* \"#utility.yul\":20429:20446   */\n      add\n        /* \"#utility.yul\":20422:20469   */\n      mstore\n        /* \"#utility.yul\":20486:20617   */\n      tag_372\n        /* \"#utility.yul\":20612:20616   */\n      dup2\n        /* \"#utility.yul\":20486:20617   */\n      tag_175\n      jump\t// in\n    tag_372:\n        /* \"#utility.yul\":20478:20617   */\n      swap1\n      pop\n        /* \"#utility.yul\":20205:20624   */\n      swap2\n      swap1\n      pop\n      jump\t// out\n        /* \"#utility.yul\":20630:21053   */\n    tag_106:\n        /* \"#utility.yul\":20771:20775   */\n      0x00\n        /* \"#utility.yul\":20809:20811   */\n      0x40\n        /* \"#utility.yul\":20798:20807   */\n      dup3\n        /* \"#utility.yul\":20794:20812   */\n      add\n        /* \"#utility.yul\":20786:20812   */\n      swap1\n      pop\n        /* \"#utility.yul\":20858:20867   */\n      dup2\n        /* \"#utility.yul\":20852:20856   */\n      dup2\n        /* \"#utility.yul\":20848:20868   */\n      sub\n        /* \"#utility.yul\":20844:20845   */\n      0x00\n        /* \"#utility.yul\":20833:20842   */\n      dup4\n        /* \"#utility.yul\":20829:20846   */\n      add\n        /* \"#utility.yul\":20822:20869   */\n      mstore\n        /* \"#utility.yul\":20886:20964   */\n      tag_374\n        /* \"#utility.yul\":20959:20963   */\n      dup2\n        /* \"#utility.yul\":20950:20956   */\n      dup6\n        /* \"#utility.yul\":20886:20964   */\n      tag_141\n      jump\t// in\n    tag_374:\n        /* \"#utility.yul\":20878:20964   */\n      swap1\n      pop\n        /* \"#utility.yul\":20974:21046   */\n      tag_375\n        /* \"#utility.yul\":21042:21044   */\n      0x20\n        /* \"#utility.yul\":21031:21040   */\n      dup4\n        /* \"#utility.yul\":21027:21045   */\n      add\n        /* \"#utility.yul\":21018:21024   */\n      dup5\n        /* \"#utility.yul\":20974:21046   */\n      tag_143\n      jump\t// in\n    tag_375:\n        /* \"#utility.yul\":20630:21053   */\n      swap4\n      swap3\n      pop\n      pop\n      pop\n      jump\t// out\n        /* \"#utility.yul\":21059:21279   */\n    tag_176:\n        /* \"#utility.yul\":21199:21233   */\n      0x4f6e6c79206f776e65722063616e2063616c6c20746869732066756e6374696f\n        /* \"#utility.yul\":21195:21196   */\n      0x00\n        /* \"#utility.yul\":21187:21193   */\n      dup3\n        /* \"#utility.yul\":21183:21197   */\n      add\n        /* \"#utility.yul\":21176:21234   */\n      mstore\n        /* \"#utility.yul\":21268:21271   */\n      0x6e00000000000000000000000000000000000000000000000000000000000000\n        /* \"#utility.yul\":21263:21265   */\n      0x20\n        /* \"#utility.yul\":21255:21261   */\n      dup3\n        /* \"#utility.yul\":21251:21266   */\n      add\n        /* \"#utility.yul\":21244:21272   */\n      mstore\n        /* \"#utility.yul\":21059:21279   */\n      pop\n      jump\t// out\n        /* \"#utility.yul\":21285:21651   */\n    tag_177:\n        /* \"#utility.yul\":21427:21430   */\n      0x00\n        /* \"#utility.yul\":21448:21515   */\n      tag_378\n        /* \"#utility.yul\":21512:21514   */\n      0x21\n        /* \"#utility.yul\":21507:21510   */\n      dup4\n        /* \"#utility.yul\":21448:21515   */\n      tag_139\n      jump\t// in\n    tag_378:\n        /* \"#utility.yul\":21441:21515   */\n      swap2\n      pop\n        /* \"#utility.yul\":21524:21617   */\n      tag_379\n        /* \"#utility.yul\":21613:21616   */\n      dup3\n        /* \"#utility.yul\":21524:21617   */\n      tag_176\n      jump\t// in\n    tag_379:\n        /* \"#utility.yul\":21642:21644   */\n      0x40\n        /* \"#utility.yul\":21637:21640   */\n      dup3\n        /* \"#utility.yul\":21633:21645   */\n      add\n        /* \"#utility.yul\":21626:21645   */\n      swap1\n      pop\n        /* \"#utility.yul\":21285:21651   */\n      swap2\n      swap1\n      pop\n      jump\t// out\n        /* \"#utility.yul\":21657:22076   */\n    tag_114:\n        /* \"#utility.yul\":21823:21827   */\n      0x00\n        /* \"#utility.yul\":21861:21863   */\n      0x20\n        /* \"#utility.yul\":21850:21859   */\n      dup3\n        /* \"#utility.yul\":21846:21864   */\n      add\n        /* \"#utility.yul\":21838:21864   */\n      swap1\n      pop\n        /* \"#utility.yul\":21910:21919   */\n      dup2\n        /* \"#utility.yul\":21904:21908   */\n      dup2\n        /* \"#utility.yul\":21900:21920   */\n      sub\n        /* \"#utility.yul\":21896:21897   */\n      0x00\n        /* \"#utility.yul\":21885:21894   */\n      dup4\n        /* \"#utility.yul\":21881:21898   */\n      add\n        /* \"#utility.yul\":21874:21921   */\n      mstore\n        /* \"#utility.yul\":21938:22069   */\n      tag_381\n        /* \"#utility.yul\":22064:22068   */\n      dup2\n        /* \"#utility.yul\":21938:22069   */\n      tag_177\n      jump\t// in\n    tag_381:\n        /* \"#utility.yul\":21930:22069   */\n      swap1\n      pop\n        /* \"#utility.yul\":21657:22076   */\n      swap2\n      swap1\n      pop\n      jump\t// out\n\n    auxdata: 0xa2646970667358221220b8f0c19cb68da14193457f3870ee4b2164b2b283c96b6efd80124a826dac125264736f6c634300081e0033\n}\n",
				"bytecode": {
					"linkReferences": {},
					"object": "6080604052348015600e575f5ffd5b503360035f6101000a81548173ffffffffffffffffffffffffffffffffffffffff021916908373ffffffffffffffffffffffffffffffffffffffff16021790555061193a8061005c5f395ff3fe608060405234801561000f575f5ffd5b5060043610610090575f3560e01c80636f77926b116100645780636f77926b1461011a5780638da5cb5b1461014e578063d637dcfa1461016c578063e040e9a014610188578063f1d2fd781461019257610090565b80629299e314610094578063163f7522146100b05780635bbf11b2146100e05780636322961d146100ea575b5f5ffd5b6100ae60048036038101906100a99190610f8b565b6101ae565b005b6100ca60048036038101906100c5919061102c565b610318565b6040516100d79190611071565b60405180910390f35b6100e861036a565b005b61010460048036038101906100ff9190610f8b565b61048f565b6040516101119190611099565b60405180910390f35b610134600480360381019061012f919061102c565b6104d5565b60405161014595949392919061112a565b60405180910390f35b6101566107ae565b6040516101639190611099565b60405180910390f35b61018660048036038101906101819190611190565b6107d3565b005b610190610b66565b005b6101ac60048036038101906101a7919061102c565b610c8a565b005b60025f3373ffffffffffffffffffffffffffffffffffffffff1673ffffffffffffffffffffffffffffffffffffffff1681526020019081526020015f205f9054906101000a900460ff16610237576040517f08c379a000000000000000000000000000000000000000000000000000000000815260040161022e9061127e565b60405180910390fd5b5f81511161027a576040517f08c379a0000000000000000000000000000000000000000000000000000000008152600401610271906112e6565b60405180910390fd5b805f5f3373ffffffffffffffffffffffffffffffffffffffff1673ffffffffffffffffffffffffffffffffffffffff1681526020019081526020015f2060020190816102c69190611501565b503373ffffffffffffffffffffffffffffffffffffffff167fdd635a4cd84864e37e4479dbfc2ec667acfa473c83c8422a8ac9d9d07599b01c8260405161030d91906115d0565b60405180910390a250565b5f60025f8373ffffffffffffffffffffffffffffffffffffffff1673ffffffffffffffffffffffffffffffffffffffff1681526020019081526020015f205f9054906101000a900460ff169050919050565b60025f3373ffffffffffffffffffffffffffffffffffffffff1673ffffffffffffffffffffffffffffffffffffffff1681526020019081526020015f205f9054906101000a900460ff166103f3576040517f08c379a00000000000000000000000000000000000000000000000000000000081526004016103ea9061127e565b60405180910390fd5b60015f5f3373ffffffffffffffffffffffffffffffffffffffff1673ffffffffffffffffffffffffffffffffffffffff1681526020019081526020015f206004015f6101000a81548160ff0219169083151502179055503373ffffffffffffffffffffffffffffffffffffffff167fe59051bfc78cdbcab6d5743d762e138b550c6c7c41db05ee5d0812ba1be1176c60405160405180910390a2565b5f6001826040516104a0919061162a565b90815260200160405180910390205f9054906101000a900473ffffffffffffffffffffffffffffffffffffffff169050919050565b60608060605f5f60025f8773ffffffffffffffffffffffffffffffffffffffff1673ffffffffffffffffffffffffffffffffffffffff1681526020019081526020015f205f9054906101000a900460ff16610565576040517f08c379a000000000000000000000000000000000000000000000000000000000815260040161055c9061168a565b60405180910390fd5b5f5f5f8873ffffffffffffffffffffffffffffffffffffffff1673ffffffffffffffffffffffffffffffffffffffff1681526020019081526020015f206040518060a00160405290815f820180546105bc90611331565b80601f01602080910402602001604051908101604052809291908181526020018280546105e890611331565b80156106335780601f1061060a57610100808354040283529160200191610633565b820191905f5260205f20905b81548152906001019060200180831161061657829003601f168201915b5050505050815260200160018201805461064c90611331565b80601f016020809104026020016040519081016040528092919081815260200182805461067890611331565b80156106c35780601f1061069a576101008083540402835291602001916106c3565b820191905f5260205f20905b8154815290600101906020018083116106a657829003601f168201915b505050505081526020016002820180546106dc90611331565b80601f016020809104026020016040519081016040528092919081815260200182805461070890611331565b80156107535780601f1061072a57610100808354040283529160200191610753565b820191905f5260205f20905b81548152906001019060200180831161073657829003601f168201915b5050505050815260200160038201548152602001600482015f9054906101000a900460ff1615151515815250509050805f01518160200151826040015183606001518460800151955095509550955095505091939590929450565b60035f9054906101000a900473ffffffffffffffffffffffffffffffffffffffff1681565b5f835111610816576040517f08c379a000000000000000000000000000000000000000000000000000000000815260040161080d906116f2565b60405180910390fd5b5f825111610859576040517f08c379a00000000000000000000000000000000000000000000000000000000081526004016108509061175a565b60405180910390fd5b5f73ffffffffffffffffffffffffffffffffffffffff16600184604051610880919061162a565b90815260200160405180910390205f9054906101000a900473ffffffffffffffffffffffffffffffffffffffff1673ffffffffffffffffffffffffffffffffffffffff1614610904576040517f08c379a00000000000000000000000000000000000000000000000000000000081526004016108fb906117c2565b60405180910390fd5b60025f3373ffffffffffffffffffffffffffffffffffffffff1673ffffffffffffffffffffffffffffffffffffffff1681526020019081526020015f205f9054906101000a900460ff161561098e576040517f08c379a00000000000000000000000000000000000000000000000000000000081526004016109859061182a565b60405180910390fd5b6040518060a00160405280848152602001838152602001828152602001428152602001600115158152505f5f3373ffffffffffffffffffffffffffffffffffffffff1673ffffffffffffffffffffffffffffffffffffffff1681526020019081526020015f205f820151815f019081610a079190611501565b506020820151816001019081610a1d9190611501565b506040820151816002019081610a339190611501565b50606082015181600301556080820151816004015f6101000a81548160ff02191690831515021790555090505033600184604051610a71919061162a565b90815260200160405180910390205f6101000a81548173ffffffffffffffffffffffffffffffffffffffff021916908373ffffffffffffffffffffffffffffffffffffffff160217905550600160025f3373ffffffffffffffffffffffffffffffffffffffff1673ffffffffffffffffffffffffffffffffffffffff1681526020019081526020015f205f6101000a81548160ff0219169083151502179055503373ffffffffffffffffffffffffffffffffffffffff167f89105a1c6a3c2fbd471255c66a31ccab604af5697f67d7e2e9a0028c5e4dbd918442604051610b59929190611848565b60405180910390a2505050565b60025f3373ffffffffffffffffffffffffffffffffffffffff1673ffffffffffffffffffffffffffffffffffffffff1681526020019081526020015f205f9054906101000a900460ff16610bef576040517f08c379a0000000000000000000000000000000000000000000000000000000008152600401610be69061127e565b60405180910390fd5b5f5f5f3373ffffffffffffffffffffffffffffffffffffffff1673ffffffffffffffffffffffffffffffffffffffff1681526020019081526020015f206004015f6101000a81548160ff0219169083151502179055503373ffffffffffffffffffffffffffffffffffffffff167f21831c2238658baa66ab1895cb18bdeaf2bea535a3df6126b7ada3842574837560405160405180910390a2565b60035f9054906101000a900473ffffffffffffffffffffffffffffffffffffffff1673ffffffffffffffffffffffffffffffffffffffff163373ffffffffffffffffffffffffffffffffffffffff1614610d19576040517f08c379a0000000000000000000000000000000000000000000000000000000008152600401610d10906118e6565b60405180910390fd5b60025f8273ffffffffffffffffffffffffffffffffffffffff1673ffffffffffffffffffffffffffffffffffffffff1681526020019081526020015f205f9054906101000a900460ff16610da2576040517f08c379a0000000000000000000000000000000000000000000000000000000008152600401610d999061168a565b60405180910390fd5b5f5f5f8373ffffffffffffffffffffffffffffffffffffffff1673ffffffffffffffffffffffffffffffffffffffff1681526020019081526020015f206004015f6101000a81548160ff0219169083151502179055508073ffffffffffffffffffffffffffffffffffffffff167f21831c2238658baa66ab1895cb18bdeaf2bea535a3df6126b7ada3842574837560405160405180910390a250565b5f604051905090565b5f5ffd5b5f5ffd5b5f5ffd5b5f5ffd5b5f601f19601f8301169050919050565b7f4e487b71000000000000000000000000000000000000000000000000000000005f52604160045260245ffd5b610e9d82610e57565b810181811067ffffffffffffffff82111715610ebc57610ebb610e67565b5b80604052505050565b5f610ece610e3e565b9050610eda8282610e94565b919050565b5f67ffffffffffffffff821115610ef957610ef8610e67565b5b610f0282610e57565b9050602081019050919050565b828183375f83830152505050565b5f610f2f610f2a84610edf565b610ec5565b905082815260208101848484011115610f4b57610f4a610e53565b5b610f56848285610f0f565b509392505050565b5f82601f830112610f7257610f71610e4f565b5b8135610f82848260208601610f1d565b91505092915050565b5f60208284031215610fa057610f9f610e47565b5b5f82013567ffffffffffffffff811115610fbd57610fbc610e4b565b5b610fc984828501610f5e565b91505092915050565b5f73ffffffffffffffffffffffffffffffffffffffff82169050919050565b5f610ffb82610fd2565b9050919050565b61100b81610ff1565b8114611015575f5ffd5b50565b5f8135905061102681611002565b92915050565b5f6020828403121561104157611040610e47565b5b5f61104e84828501611018565b91505092915050565b5f8115159050919050565b61106b81611057565b82525050565b5f6020820190506110845f830184611062565b92915050565b61109381610ff1565b82525050565b5f6020820190506110ac5f83018461108a565b92915050565b5f81519050919050565b5f82825260208201905092915050565b8281835e5f83830152505050565b5f6110e4826110b2565b6110ee81856110bc565b93506110fe8185602086016110cc565b61110781610e57565b840191505092915050565b5f819050919050565b61112481611112565b82525050565b5f60a0820190508181035f83015261114281886110da565b9050818103602083015261115681876110da565b9050818103604083015261116a81866110da565b9050611179606083018561111b565b6111866080830184611062565b9695505050505050565b5f5f5f606084860312156111a7576111a6610e47565b5b5f84013567ffffffffffffffff8111156111c4576111c3610e4b565b5b6111d086828701610f5e565b935050602084013567ffffffffffffffff8111156111f1576111f0610e4b565b5b6111fd86828701610f5e565b925050604084013567ffffffffffffffff81111561121e5761121d610e4b565b5b61122a86828701610f5e565b9150509250925092565b7f55736572206e6f742072656769737465726564000000000000000000000000005f82015250565b5f6112686013836110bc565b915061127382611234565b602082019050919050565b5f6020820190508181035f8301526112958161125c565b9050919050565b7f50726f66696c6520686173682063616e6e6f7420626520656d707479000000005f82015250565b5f6112d0601c836110bc565b91506112db8261129c565b602082019050919050565b5f6020820190508181035f8301526112fd816112c4565b9050919050565b7f4e487b71000000000000000000000000000000000000000000000000000000005f52602260045260245ffd5b5f600282049050600182168061134857607f821691505b60208210810361135b5761135a611304565b5b50919050565b5f819050815f5260205f209050919050565b5f6020601f8301049050919050565b5f82821b905092915050565b5f600883026113bd7fffffffffffffffffffffffffffffffffffffffffffffffffffffffffffffffff82611382565b6113c78683611382565b95508019841693508086168417925050509392505050565b5f819050919050565b5f6114026113fd6113f884611112565b6113df565b611112565b9050919050565b5f819050919050565b61141b836113e8565b61142f61142782611409565b84845461138e565b825550505050565b5f5f905090565b611446611437565b611451818484611412565b505050565b5b81811015611474576114695f8261143e565b600181019050611457565b5050565b601f8211156114b95761148a81611361565b61149384611373565b810160208510156114a2578190505b6114b66114ae85611373565b830182611456565b50505b505050565b5f82821c905092915050565b5f6114d95f19846008026114be565b1980831691505092915050565b5f6114f183836114ca565b9150826002028217905092915050565b61150a826110b2565b67ffffffffffffffff81111561152357611522610e67565b5b61152d8254611331565b611538828285611478565b5f60209050601f831160018114611569575f8415611557578287015190505b61156185826114e6565b8655506115c8565b601f19841661157786611361565b5f5b8281101561159e57848901518255600182019150602085019450602081019050611579565b868310156115bb57848901516115b7601f8916826114ca565b8355505b6001600288020188555050505b505050505050565b5f6020820190508181035f8301526115e881846110da565b905092915050565b5f81905092915050565b5f611604826110b2565b61160e81856115f0565b935061161e8185602086016110cc565b80840191505092915050565b5f61163582846115fa565b915081905092915050565b7f55736572206e6f7420666f756e640000000000000000000000000000000000005f82015250565b5f611674600e836110bc565b915061167f82611640565b602082019050919050565b5f6020820190508181035f8301526116a181611668565b9050919050565b7f557365726e616d652063616e6e6f7420626520656d70747900000000000000005f82015250565b5f6116dc6018836110bc565b91506116e7826116a8565b602082019050919050565b5f6020820190508181035f830152611709816116d0565b9050919050565b7f456d61696c2063616e6e6f7420626520656d70747900000000000000000000005f82015250565b5f6117446015836110bc565b915061174f82611710565b602082019050919050565b5f6020820190508181035f83015261177181611738565b9050919050565b7f557365726e616d6520616c72656164792074616b656e000000000000000000005f82015250565b5f6117ac6016836110bc565b91506117b782611778565b602082019050919050565b5f6020820190508181035f8301526117d9816117a0565b9050919050565b7f4164647265737320616c726561647920726567697374657265640000000000005f82015250565b5f611814601a836110bc565b915061181f826117e0565b602082019050919050565b5f6020820190508181035f83015261184181611808565b9050919050565b5f6040820190508181035f83015261186081856110da565b905061186f602083018461111b565b9392505050565b7f4f6e6c79206f776e65722063616e2063616c6c20746869732066756e6374696f5f8201527f6e00000000000000000000000000000000000000000000000000000000000000602082015250565b5f6118d06021836110bc565b91506118db82611876565b604082019050919050565b5f6020820190508181035f8301526118fd816118c4565b905091905056fea2646970667358221220b8f0c19cb68da14193457f3870ee4b2164b2b283c96b6efd80124a826dac125264736f6c634300081e0033",
					"opcodes": "PUSH1 0x80 PUSH1 0x40 MSTORE CALLVALUE DUP1 ISZERO PUSH1 0xE JUMPI PUSH0 PUSH0 REVERT JUMPDEST POP CALLER PUSH1 0x3 PUSH0 PUSH2 0x100 EXP DUP2 SLOAD DUP2 PUSH20 0xFFFFFFFFFFFFFFFFFFFFFFFFFFFFFFFFFFFFFFFF MUL NOT AND SWAP1 DUP4 PUSH20 0xFFFFFFFFFFFFFFFFFFFFFFFFFFFFFFFFFFFFFFFF AND MUL OR SWAP1 SSTORE POP PUSH2 0x193A DUP1 PUSH2 0x5C PUSH0 CODECOPY PUSH0 RETURN INVALID PUSH1 0x80 PUSH1 0x40 MSTORE CALLVALUE DUP1 ISZERO PUSH2 0xF JUMPI PUSH0 PUSH0 REVERT JUMPDEST POP PUSH1 0x4 CALLDATASIZE LT PUSH2 0x90 JUMPI PUSH0 CALLDATALOAD PUSH1 0xE0 SHR DUP1 PUSH4 0x6F77926B GT PUSH2 0x64 JUMPI DUP1 PUSH4 0x6F77926B EQ PUSH2 0x11A JUMPI DUP1 PUSH4 0x8DA5CB5B EQ PUSH2 0x14E JUMPI DUP1 PUSH4 0xD637DCFA EQ PUSH2 0x16C JUMPI DUP1 PUSH4 0xE040E9A0 EQ PUSH2 0x188 JUMPI DUP1 PUSH4 0xF1D2FD78 EQ PUSH2 0x192 JUMPI PUSH2 0x90 JUMP JUMPDEST DUP1 PUSH3 0x9299E3 EQ PUSH2 0x94 JUMPI DUP1 PUSH4 0x163F7522 EQ PUSH2 0xB0 JUMPI DUP1 PUSH4 0x5BBF11B2 EQ PUSH2 0xE0 JUMPI DUP1 PUSH4 0x6322961D EQ PUSH2 0xEA JUMPI JUMPDEST PUSH0 PUSH0 REVERT JUMPDEST PUSH2 0xAE PUSH1 0x4 DUP1 CALLDATASIZE SUB DUP2 ADD SWAP1 PUSH2 0xA9 SWAP2 SWAP1 PUSH2 0xF8B JUMP JUMPDEST PUSH2 0x1AE JUMP JUMPDEST STOP JUMPDEST PUSH2 0xCA PUSH1 0x4 DUP1 CALLDATASIZE SUB DUP2 ADD SWAP1 PUSH2 0xC5 SWAP2 SWAP1 PUSH2 0x102C JUMP JUMPDEST PUSH2 0x318 JUMP JUMPDEST PUSH1 0x40 MLOAD PUSH2 0xD7 SWAP2 SWAP1 PUSH2 0x1071 JUMP JUMPDEST PUSH1 0x40 MLOAD DUP1 SWAP2 SUB SWAP1 RETURN JUMPDEST PUSH2 0xE8 PUSH2 0x36A JUMP JUMPDEST STOP JUMPDEST PUSH2 0x104 PUSH1 0x4 DUP1 CALLDATASIZE SUB DUP2 ADD SWAP1 PUSH2 0xFF SWAP2 SWAP1 PUSH2 0xF8B JUMP JUMPDEST PUSH2 0x48F JUMP JUMPDEST PUSH1 0x40 MLOAD PUSH2 0x111 SWAP2 SWAP1 PUSH2 0x1099 JUMP JUMPDEST PUSH1 0x40 MLOAD DUP1 SWAP2 SUB SWAP1 RETURN JUMPDEST PUSH2 0x134 PUSH1 0x4 DUP1 CALLDATASIZE SUB DUP2 ADD SWAP1 PUSH2 0x12F SWAP2 SWAP1 PUSH2 0x102C JUMP JUMPDEST PUSH2 0x4D5 JUMP JUMPDEST PUSH1 0x40 MLOAD PUSH2 0x145 SWAP6 SWAP5 SWAP4 SWAP3 SWAP2 SWAP1 PUSH2 0x112A JUMP JUMPDEST PUSH1 0x40 MLOAD DUP1 SWAP2 SUB SWAP1 RETURN JUMPDEST PUSH2 0x156 PUSH2 0x7AE JUMP JUMPDEST PUSH1 0x40 MLOAD PUSH2 0x163 SWAP2 SWAP1 PUSH2 0x1099 JUMP JUMPDEST PUSH1 0x40 MLOAD DUP1 SWAP2 SUB SWAP1 RETURN JUMPDEST PUSH2 0x186 PUSH1 0x4 DUP1 CALLDATASIZE SUB DUP2 ADD SWAP1 PUSH2 0x181 SWAP2 SWAP1 PUSH2 0x1190 JUMP JUMPDEST PUSH2 0x7D3 JUMP JUMPDEST STOP JUMPDEST PUSH2 0x190 PUSH2 0xB66 JUMP JUMPDEST STOP JUMPDEST PUSH2 0x1AC PUSH1 0x4 DUP1 CALLDATASIZE SUB DUP2 ADD SWAP1 PUSH2 0x1A7 SWAP2 SWAP1 PUSH2 0x102C JUMP JUMPDEST PUSH2 0xC8A JUMP JUMPDEST STOP JUMPDEST PUSH1 0x2 PUSH0 CALLER PUSH20 0xFFFFFFFFFFFFFFFFFFFFFFFFFFFFFFFFFFFFFFFF AND PUSH20 0xFFFFFFFFFFFFFFFFFFFFFFFFFFFFFFFFFFFFFFFF AND DUP2 MSTORE PUSH1 0x20 ADD SWAP1 DUP2 MSTORE PUSH1 0x20 ADD PUSH0 KECCAK256 PUSH0 SWAP1 SLOAD SWAP1 PUSH2 0x100 EXP SWAP1 DIV PUSH1 0xFF AND PUSH2 0x237 JUMPI PUSH1 0x40 MLOAD PUSH32 0x8C379A000000000000000000000000000000000000000000000000000000000 DUP2 MSTORE PUSH1 0x4 ADD PUSH2 0x22E SWAP1 PUSH2 0x127E JUMP JUMPDEST PUSH1 0x40 MLOAD DUP1 SWAP2 SUB SWAP1 REVERT JUMPDEST PUSH0 DUP2 MLOAD GT PUSH2 0x27A JUMPI PUSH1 0x40 MLOAD PUSH32 0x8C379A000000000000000000000000000000000000000000000000000000000 DUP2 MSTORE PUSH1 0x4 ADD PUSH2 0x271 SWAP1 PUSH2 0x12E6 JUMP JUMPDEST PUSH1 0x40 MLOAD DUP1 SWAP2 SUB SWAP1 REVERT JUMPDEST DUP1 PUSH0 PUSH0 CALLER PUSH20 0xFFFFFFFFFFFFFFFFFFFFFFFFFFFFFFFFFFFFFFFF AND PUSH20 0xFFFFFFFFFFFFFFFFFFFFFFFFFFFFFFFFFFFFFFFF AND DUP2 MSTORE PUSH1 0x20 ADD SWAP1 DUP2 MSTORE PUSH1 0x20 ADD PUSH0 KECCAK256 PUSH1 0x2 ADD SWAP1 DUP2 PUSH2 0x2C6 SWAP2 SWAP1 PUSH2 0x1501 JUMP JUMPDEST POP CALLER PUSH20 0xFFFFFFFFFFFFFFFFFFFFFFFFFFFFFFFFFFFFFFFF AND PUSH32 0xDD635A4CD84864E37E4479DBFC2EC667ACFA473C83C8422A8AC9D9D07599B01C DUP3 PUSH1 0x40 MLOAD PUSH2 0x30D SWAP2 SWAP1 PUSH2 0x15D0 JUMP JUMPDEST PUSH1 0x40 MLOAD DUP1 SWAP2 SUB SWAP1 LOG2 POP JUMP JUMPDEST PUSH0 PUSH1 0x2 PUSH0 DUP4 PUSH20 0xFFFFFFFFFFFFFFFFFFFFFFFFFFFFFFFFFFFFFFFF AND PUSH20 0xFFFFFFFFFFFFFFFFFFFFFFFFFFFFFFFFFFFFFFFF AND DUP2 MSTORE PUSH1 0x20 ADD SWAP1 DUP2 MSTORE PUSH1 0x20 ADD PUSH0 KECCAK256 PUSH0 SWAP1 SLOAD SWAP1 PUSH2 0x100 EXP SWAP1 DIV PUSH1 0xFF AND SWAP1 POP SWAP2 SWAP1 POP JUMP JUMPDEST PUSH1 0x2 PUSH0 CALLER PUSH20 0xFFFFFFFFFFFFFFFFFFFFFFFFFFFFFFFFFFFFFFFF AND PUSH20 0xFFFFFFFFFFFFFFFFFFFFFFFFFFFFFFFFFFFFFFFF AND DUP2 MSTORE PUSH1 0x20 ADD SWAP1 DUP2 MSTORE PUSH1 0x20 ADD PUSH0 KECCAK256 PUSH0 SWAP1 SLOAD SWAP1 PUSH2 0x100 EXP SWAP1 DIV PUSH1 0xFF AND PUSH2 0x3F3 JUMPI PUSH1 0x40 MLOAD PUSH32 0x8C379A000000000000000000000000000000000000000000000000000000000 DUP2 MSTORE PUSH1 0x4 ADD PUSH2 0x3EA SWAP1 PUSH2 0x127E JUMP JUMPDEST PUSH1 0x40 MLOAD DUP1 SWAP2 SUB SWAP1 REVERT JUMPDEST PUSH1 0x1 PUSH0 PUSH0 CALLER PUSH20 0xFFFFFFFFFFFFFFFFFFFFFFFFFFFFFFFFFFFFFFFF AND PUSH20 0xFFFFFFFFFFFFFFFFFFFFFFFFFFFFFFFFFFFFFFFF AND DUP2 MSTORE PUSH1 0x20 ADD SWAP1 DUP2 MSTORE PUSH1 0x20 ADD PUSH0 KECCAK256 PUSH1 0x4 ADD PUSH0 PUSH2 0x100 EXP DUP2 SLOAD DUP2 PUSH1 0xFF MUL NOT AND SWAP1 DUP4 ISZERO ISZERO MUL OR SWAP1 SSTORE POP CALLER PUSH20 0xFFFFFFFFFFFFFFFFFFFFFFFFFFFFFFFFFFFFFFFF AND PUSH32 0xE59051BFC78CDBCAB6D5743D762E138B550C6C7C41DB05EE5D0812BA1BE1176C PUSH1 0x40 MLOAD PUSH1 0x40 MLOAD DUP1 SWAP2 SUB SWAP1 LOG2 JUMP JUMPDEST PUSH0 PUSH1 0x1 DUP3 PUSH1 0x40 MLOAD PUSH2 0x4A0 SWAP2 SWAP1 PUSH2 0x162A JUMP JUMPDEST SWAP1 DUP2 MSTORE PUSH1 0x20 ADD PUSH1 0x40 MLOAD DUP1 SWAP2 SUB SWAP1 KECCAK256 PUSH0 SWAP1 SLOAD SWAP1 PUSH2 0x100 EXP SWAP1 DIV PUSH20 0xFFFFFFFFFFFFFFFFFFFFFFFFFFFFFFFFFFFFFFFF AND SWAP1 POP SWAP2 SWAP1 POP JUMP JUMPDEST PUSH1 0x60 DUP1 PUSH1 0x60 PUSH0 PUSH0 PUSH1 0x2 PUSH0 DUP8 PUSH20 0xFFFFFFFFFFFFFFFFFFFFFFFFFFFFFFFFFFFFFFFF AND PUSH20 0xFFFFFFFFFFFFFFFFFFFFFFFFFFFFFFFFFFFFFFFF AND DUP2 MSTORE PUSH1 0x20 ADD SWAP1 DUP2 MSTORE PUSH1 0x20 ADD PUSH0 KECCAK256 PUSH0 SWAP1 SLOAD SWAP1 PUSH2 0x100 EXP SWAP1 DIV PUSH1 0xFF AND PUSH2 0x565 JUMPI PUSH1 0x40 MLOAD PUSH32 0x8C379A000000000000000000000000000000000000000000000000000000000 DUP2 MSTORE PUSH1 0x4 ADD PUSH2 0x55C SWAP1 PUSH2 0x168A JUMP JUMPDEST PUSH1 0x40 MLOAD DUP1 SWAP2 SUB SWAP1 REVERT JUMPDEST PUSH0 PUSH0 PUSH0 DUP9 PUSH20 0xFFFFFFFFFFFFFFFFFFFFFFFFFFFFFFFFFFFFFFFF AND PUSH20 0xFFFFFFFFFFFFFFFFFFFFFFFFFFFFFFFFFFFFFFFF AND DUP2 MSTORE PUSH1 0x20 ADD SWAP1 DUP2 MSTORE PUSH1 0x20 ADD PUSH0 KECCAK256 PUSH1 0x40 MLOAD DUP1 PUSH1 0xA0 ADD PUSH1 0x40 MSTORE SWAP1 DUP2 PUSH0 DUP3 ADD DUP1 SLOAD PUSH2 0x5BC SWAP1 PUSH2 0x1331 JUMP JUMPDEST DUP1 PUSH1 0x1F ADD PUSH1 0x20 DUP1 SWAP2 DIV MUL PUSH1 0x20 ADD PUSH1 0x40 MLOAD SWAP1 DUP2 ADD PUSH1 0x40 MSTORE DUP1 SWAP3 SWAP2 SWAP1 DUP2 DUP2 MSTORE PUSH1 0x20 ADD DUP3 DUP1 SLOAD PUSH2 0x5E8 SWAP1 PUSH2 0x1331 JUMP JUMPDEST DUP1 ISZERO PUSH2 0x633 JUMPI DUP1 PUSH1 0x1F LT PUSH2 0x60A JUMPI PUSH2 0x100 DUP1 DUP4 SLOAD DIV MUL DUP4 MSTORE SWAP2 PUSH1 0x20 ADD SWAP2 PUSH2 0x633 JUMP JUMPDEST DUP3 ADD SWAP2 SWAP1 PUSH0 MSTORE PUSH1 0x20 PUSH0 KECCAK256 SWAP1 JUMPDEST DUP2 SLOAD DUP2 MSTORE SWAP1 PUSH1 0x1 ADD SWAP1 PUSH1 0x20 ADD DUP1 DUP4 GT PUSH2 0x616 JUMPI DUP3 SWAP1 SUB PUSH1 0x1F AND DUP3 ADD SWAP2 JUMPDEST POP POP POP POP POP DUP2 MSTORE PUSH1 0x20 ADD PUSH1 0x1 DUP3 ADD DUP1 SLOAD PUSH2 0x64C SWAP1 PUSH2 0x1331 JUMP JUMPDEST DUP1 PUSH1 0x1F ADD PUSH1 0x20 DUP1 SWAP2 DIV MUL PUSH1 0x20 ADD PUSH1 0x40 MLOAD SWAP1 DUP2 ADD PUSH1 0x40 MSTORE DUP1 SWAP3 SWAP2 SWAP1 DUP2 DUP2 MSTORE PUSH1 0x20 ADD DUP3 DUP1 SLOAD PUSH2 0x678 SWAP1 PUSH2 0x1331 JUMP JUMPDEST DUP1 ISZERO PUSH2 0x6C3 JUMPI DUP1 PUSH1 0x1F LT PUSH2 0x69A JUMPI PUSH2 0x100 DUP1 DUP4 SLOAD DIV MUL DUP4 MSTORE SWAP2 PUSH1 0x20 ADD SWAP2 PUSH2 0x6C3 JUMP JUMPDEST DUP3 ADD SWAP2 SWAP1 PUSH0 MSTORE PUSH1 0x20 PUSH0 KECCAK256 SWAP1 JUMPDEST DUP2 SLOAD DUP2 MSTORE SWAP1 PUSH1 0x1 ADD SWAP1 PUSH1 0x20 ADD DUP1 DUP4 GT PUSH2 0x6A6 JUMPI DUP3 SWAP1 SUB PUSH1 0x1F AND DUP3 ADD SWAP2 JUMPDEST POP POP POP POP POP DUP2 MSTORE PUSH1 0x20 ADD PUSH1 0x2 DUP3 ADD DUP1 SLOAD PUSH2 0x6DC SWAP1 PUSH2 0x1331 JUMP JUMPDEST DUP1 PUSH1 0x1F ADD PUSH1 0x20 DUP1 SWAP2 DIV MUL PUSH1 0x20 ADD PUSH1 0x40 MLOAD SWAP1 DUP2 ADD PUSH1 0x40 MSTORE DUP1 SWAP3 SWAP2 SWAP1 DUP2 DUP2 MSTORE PUSH1 0x20 ADD DUP3 DUP1 SLOAD PUSH2 0x708 SWAP1 PUSH2 0x1331 JUMP JUMPDEST DUP1 ISZERO PUSH2 0x753 JUMPI DUP1 PUSH1 0x1F LT PUSH2 0x72A JUMPI PUSH2 0x100 DUP1 DUP4 SLOAD DIV MUL DUP4 MSTORE SWAP2 PUSH1 0x20 ADD SWAP2 PUSH2 0x753 JUMP JUMPDEST DUP3 ADD SWAP2 SWAP1 PUSH0 MSTORE PUSH1 0x20 PUSH0 KECCAK256 SWAP1 JUMPDEST DUP2 SLOAD DUP2 MSTORE SWAP1 PUSH1 0x1 ADD SWAP1 PUSH1 0x20 ADD DUP1 DUP4 GT PUSH2 0x736 JUMPI DUP3 SWAP1 SUB PUSH1 0x1F AND DUP3 ADD SWAP2 JUMPDEST POP POP POP POP POP DUP2 MSTORE PUSH1 0x20 ADD PUSH1 0x3 DUP3 ADD SLOAD DUP2 MSTORE PUSH1 0x20 ADD PUSH1 0x4 DUP3 ADD PUSH0 SWAP1 SLOAD SWAP1 PUSH2 0x100 EXP SWAP1 DIV PUSH1 0xFF AND ISZERO ISZERO ISZERO ISZERO DUP2 MSTORE POP POP SWAP1 POP DUP1 PUSH0 ADD MLOAD DUP2 PUSH1 0x20 ADD MLOAD DUP3 PUSH1 0x40 ADD MLOAD DUP4 PUSH1 0x60 ADD MLOAD DUP5 PUSH1 0x80 ADD MLOAD SWAP6 POP SWAP6 POP SWAP6 POP SWAP6 POP SWAP6 POP POP SWAP2 SWAP4 SWAP6 SWAP1 SWAP3 SWAP5 POP JUMP JUMPDEST PUSH1 0x3 PUSH0 SWAP1 SLOAD SWAP1 PUSH2 0x100 EXP SWAP1 DIV PUSH20 0xFFFFFFFFFFFFFFFFFFFFFFFFFFFFFFFFFFFFFFFF AND DUP2 JUMP JUMPDEST PUSH0 DUP4 MLOAD GT PUSH2 0x816 JUMPI PUSH1 0x40 MLOAD PUSH32 0x8C379A000000000000000000000000000000000000000000000000000000000 DUP2 MSTORE PUSH1 0x4 ADD PUSH2 0x80D SWAP1 PUSH2 0x16F2 JUMP JUMPDEST PUSH1 0x40 MLOAD DUP1 SWAP2 SUB SWAP1 REVERT JUMPDEST PUSH0 DUP3 MLOAD GT PUSH2 0x859 JUMPI PUSH1 0x40 MLOAD PUSH32 0x8C379A000000000000000000000000000000000000000000000000000000000 DUP2 MSTORE PUSH1 0x4 ADD PUSH2 0x850 SWAP1 PUSH2 0x175A JUMP JUMPDEST PUSH1 0x40 MLOAD DUP1 SWAP2 SUB SWAP1 REVERT JUMPDEST PUSH0 PUSH20 0xFFFFFFFFFFFFFFFFFFFFFFFFFFFFFFFFFFFFFFFF AND PUSH1 0x1 DUP5 PUSH1 0x40 MLOAD PUSH2 0x880 SWAP2 SWAP1 PUSH2 0x162A JUMP JUMPDEST SWAP1 DUP2 MSTORE PUSH1 0x20 ADD PUSH1 0x40 MLOAD DUP1 SWAP2 SUB SWAP1 KECCAK256 PUSH0 SWAP1 SLOAD SWAP1 PUSH2 0x100 EXP SWAP1 DIV PUSH20 0xFFFFFFFFFFFFFFFFFFFFFFFFFFFFFFFFFFFFFFFF AND PUSH20 0xFFFFFFFFFFFFFFFFFFFFFFFFFFFFFFFFFFFFFFFF AND EQ PUSH2 0x904 JUMPI PUSH1 0x40 MLOAD PUSH32 0x8C379A000000000000000000000000000000000000000000000000000000000 DUP2 MSTORE PUSH1 0x4 ADD PUSH2 0x8FB SWAP1 PUSH2 0x17C2 JUMP JUMPDEST PUSH1 0x40 MLOAD DUP1 SWAP2 SUB SWAP1 REVERT JUMPDEST PUSH1 0x2 PUSH0 CALLER PUSH20 0xFFFFFFFFFFFFFFFFFFFFFFFFFFFFFFFFFFFFFFFF AND PUSH20 0xFFFFFFFFFFFFFFFFFFFFFFFFFFFFFFFFFFFFFFFF AND DUP2 MSTORE PUSH1 0x20 ADD SWAP1 DUP2 MSTORE PUSH1 0x20 ADD PUSH0 KECCAK256 PUSH0 SWAP1 SLOAD SWAP1 PUSH2 0x100 EXP SWAP1 DIV PUSH1 0xFF AND ISZERO PUSH2 0x98E JUMPI PUSH1 0x40 MLOAD PUSH32 0x8C379A000000000000000000000000000000000000000000000000000000000 DUP2 MSTORE PUSH1 0x4 ADD PUSH2 0x985 SWAP1 PUSH2 0x182A JUMP JUMPDEST PUSH1 0x40 MLOAD DUP1 SWAP2 SUB SWAP1 REVERT JUMPDEST PUSH1 0x40 MLOAD DUP1 PUSH1 0xA0 ADD PUSH1 0x40 MSTORE DUP1 DUP5 DUP2 MSTORE PUSH1 0x20 ADD DUP4 DUP2 MSTORE PUSH1 0x20 ADD DUP3 DUP2 MSTORE PUSH1 0x20 ADD TIMESTAMP DUP2 MSTORE PUSH1 0x20 ADD PUSH1 0x1 ISZERO ISZERO DUP2 MSTORE POP PUSH0 PUSH0 CALLER PUSH20 0xFFFFFFFFFFFFFFFFFFFFFFFFFFFFFFFFFFFFFFFF AND PUSH20 0xFFFFFFFFFFFFFFFFFFFFFFFFFFFFFFFFFFFFFFFF AND DUP2 MSTORE PUSH1 0x20 ADD SWAP1 DUP2 MSTORE PUSH1 0x20 ADD PUSH0 KECCAK256 PUSH0 DUP3 ADD MLOAD DUP2 PUSH0 ADD SWAP1 DUP2 PUSH2 0xA07 SWAP2 SWAP1 PUSH2 0x1501 JUMP JUMPDEST POP PUSH1 0x20 DUP3 ADD MLOAD DUP2 PUSH1 0x1 ADD SWAP1 DUP2 PUSH2 0xA1D SWAP2 SWAP1 PUSH2 0x1501 JUMP JUMPDEST POP PUSH1 0x40 DUP3 ADD MLOAD DUP2 PUSH1 0x2 ADD SWAP1 DUP2 PUSH2 0xA33 SWAP2 SWAP1 PUSH2 0x1501 JUMP JUMPDEST POP PUSH1 0x60 DUP3 ADD MLOAD DUP2 PUSH1 0x3 ADD SSTORE PUSH1 0x80 DUP3 ADD MLOAD DUP2 PUSH1 0x4 ADD PUSH0 PUSH2 0x100 EXP DUP2 SLOAD DUP2 PUSH1 0xFF MUL NOT AND SWAP1 DUP4 ISZERO ISZERO MUL OR SWAP1 SSTORE POP SWAP1 POP POP CALLER PUSH1 0x1 DUP5 PUSH1 0x40 MLOAD PUSH2 0xA71 SWAP2 SWAP1 PUSH2 0x162A JUMP JUMPDEST SWAP1 DUP2 MSTORE PUSH1 0x20 ADD PUSH1 0x40 MLOAD DUP1 SWAP2 SUB SWAP1 KECCAK256 PUSH0 PUSH2 0x100 EXP DUP2 SLOAD DUP2 PUSH20 0xFFFFFFFFFFFFFFFFFFFFFFFFFFFFFFFFFFFFFFFF MUL NOT AND SWAP1 DUP4 PUSH20 0xFFFFFFFFFFFFFFFFFFFFFFFFFFFFFFFFFFFFFFFF AND MUL OR SWAP1 SSTORE POP PUSH1 0x1 PUSH1 0x2 PUSH0 CALLER PUSH20 0xFFFFFFFFFFFFFFFFFFFFFFFFFFFFFFFFFFFFFFFF AND PUSH20 0xFFFFFFFFFFFFFFFFFFFFFFFFFFFFFFFFFFFFFFFF AND DUP2 MSTORE PUSH1 0x20 ADD SWAP1 DUP2 MSTORE PUSH1 0x20 ADD PUSH0 KECCAK256 PUSH0 PUSH2 0x100 EXP DUP2 SLOAD DUP2 PUSH1 0xFF MUL NOT AND SWAP1 DUP4 ISZERO ISZERO MUL OR SWAP1 SSTORE POP CALLER PUSH20 0xFFFFFFFFFFFFFFFFFFFFFFFFFFFFFFFFFFFFFFFF AND PUSH32 0x89105A1C6A3C2FBD471255C66A31CCAB604AF5697F67D7E2E9A0028C5E4DBD91 DUP5 TIMESTAMP PUSH1 0x40 MLOAD PUSH2 0xB59 SWAP3 SWAP2 SWAP1 PUSH2 0x1848 JUMP JUMPDEST PUSH1 0x40 MLOAD DUP1 SWAP2 SUB SWAP1 LOG2 POP POP POP JUMP JUMPDEST PUSH1 0x2 PUSH0 CALLER PUSH20 0xFFFFFFFFFFFFFFFFFFFFFFFFFFFFFFFFFFFFFFFF AND PUSH20 0xFFFFFFFFFFFFFFFFFFFFFFFFFFFFFFFFFFFFFFFF AND DUP2 MSTORE PUSH1 0x20 ADD SWAP1 DUP2 MSTORE PUSH1 0x20 ADD PUSH0 KECCAK256 PUSH0 SWAP1 SLOAD SWAP1 PUSH2 0x100 EXP SWAP1 DIV PUSH1 0xFF AND PUSH2 0xBEF JUMPI PUSH1 0x40 MLOAD PUSH32 0x8C379A000000000000000000000000000000000000000000000000000000000 DUP2 MSTORE PUSH1 0x4 ADD PUSH2 0xBE6 SWAP1 PUSH2 0x127E JUMP JUMPDEST PUSH1 0x40 MLOAD DUP1 SWAP2 SUB SWAP1 REVERT JUMPDEST PUSH0 PUSH0 PUSH0 CALLER PUSH20 0xFFFFFFFFFFFFFFFFFFFFFFFFFFFFFFFFFFFFFFFF AND PUSH20 0xFFFFFFFFFFFFFFFFFFFFFFFFFFFFFFFFFFFFFFFF AND DUP2 MSTORE PUSH1 0x20 ADD SWAP1 DUP2 MSTORE PUSH1 0x20 ADD PUSH0 KECCAK256 PUSH1 0x4 ADD PUSH0 PUSH2 0x100 EXP DUP2 SLOAD DUP2 PUSH1 0xFF MUL NOT AND SWAP1 DUP4 ISZERO ISZERO MUL OR SWAP1 SSTORE POP CALLER PUSH20 0xFFFFFFFFFFFFFFFFFFFFFFFFFFFFFFFFFFFFFFFF AND PUSH32 0x21831C2238658BAA66AB1895CB18BDEAF2BEA535A3DF6126B7ADA38425748375 PUSH1 0x40 MLOAD PUSH1 0x40 MLOAD DUP1 SWAP2 SUB SWAP1 LOG2 JUMP JUMPDEST PUSH1 0x3 PUSH0 SWAP1 SLOAD SWAP1 PUSH2 0x100 EXP SWAP1 DIV PUSH20 0xFFFFFFFFFFFFFFFFFFFFFFFFFFFFFFFFFFFFFFFF AND PUSH20 0xFFFFFFFFFFFFFFFFFFFFFFFFFFFFFFFFFFFFFFFF AND CALLER PUSH20 0xFFFFFFFFFFFFFFFFFFFFFFFFFFFFFFFFFFFFFFFF AND EQ PUSH2 0xD19 JUMPI PUSH1 0x40 MLOAD PUSH32 0x8C379A000000000000000000000000000000000000000000000000000000000 DUP2 MSTORE PUSH1 0x4 ADD PUSH2 0xD10 SWAP1 PUSH2 0x18E6 JUMP JUMPDEST PUSH1 0x40 MLOAD DUP1 SWAP2 SUB SWAP1 REVERT JUMPDEST PUSH1 0x2 PUSH0 DUP3 PUSH20 0xFFFFFFFFFFFFFFFFFFFFFFFFFFFFFFFFFFFFFFFF AND PUSH20 0xFFFFFFFFFFFFFFFFFFFFFFFFFFFFFFFFFFFFFFFF AND DUP2 MSTORE PUSH1 0x20 ADD SWAP1 DUP2 MSTORE PUSH1 0x20 ADD PUSH0 KECCAK256 PUSH0 SWAP1 SLOAD SWAP1 PUSH2 0x100 EXP SWAP1 DIV PUSH1 0xFF AND PUSH2 0xDA2 JUMPI PUSH1 0x40 MLOAD PUSH32 0x8C379A000000000000000000000000000000000000000000000000000000000 DUP2 MSTORE PUSH1 0x4 ADD PUSH2 0xD99 SWAP1 PUSH2 0x168A JUMP JUMPDEST PUSH1 0x40 MLOAD DUP1 SWAP2 SUB SWAP1 REVERT JUMPDEST PUSH0 PUSH0 PUSH0 DUP4 PUSH20 0xFFFFFFFFFFFFFFFFFFFFFFFFFFFFFFFFFFFFFFFF AND PUSH20 0xFFFFFFFFFFFFFFFFFFFFFFFFFFFFFFFFFFFFFFFF AND DUP2 MSTORE PUSH1 0x20 ADD SWAP1 DUP2 MSTORE PUSH1 0x20 ADD PUSH0 KECCAK256 PUSH1 0x4 ADD PUSH0 PUSH2 0x100 EXP DUP2 SLOAD DUP2 PUSH1 0xFF MUL NOT AND SWAP1 DUP4 ISZERO ISZERO MUL OR SWAP1 SSTORE POP DUP1 PUSH20 0xFFFFFFFFFFFFFFFFFFFFFFFFFFFFFFFFFFFFFFFF AND PUSH32 0x21831C2238658BAA66AB1895CB18BDEAF2BEA535A3DF6126B7ADA38425748375 PUSH1 0x40 MLOAD PUSH1 0x40 MLOAD DUP1 SWAP2 SUB SWAP1 LOG2 POP JUMP JUMPDEST PUSH0 PUSH1 0x40 MLOAD SWAP1 POP SWAP1 JUMP JUMPDEST PUSH0 PUSH0 REVERT JUMPDEST PUSH0 PUSH0 REVERT JUMPDEST PUSH0 PUSH0 REVERT JUMPDEST PUSH0 PUSH0 REVERT JUMPDEST PUSH0 PUSH1 0x1F NOT PUSH1 0x1F DUP4 ADD AND SWAP1 POP SWAP2 SWAP1 POP JUMP JUMPDEST PUSH32 0x4E487B7100000000000000000000000000000000000000000000000000000000 PUSH0 MSTORE PUSH1 0x41 PUSH1 0x4 MSTORE PUSH1 0x24 PUSH0 REVERT JUMPDEST PUSH2 0xE9D DUP3 PUSH2 0xE57 JUMP JUMPDEST DUP2 ADD DUP2 DUP2 LT PUSH8 0xFFFFFFFFFFFFFFFF DUP3 GT OR ISZERO PUSH2 0xEBC JUMPI PUSH2 0xEBB PUSH2 0xE67 JUMP JUMPDEST JUMPDEST DUP1 PUSH1 0x40 MSTORE POP POP POP JUMP JUMPDEST PUSH0 PUSH2 0xECE PUSH2 0xE3E JUMP JUMPDEST SWAP1 POP PUSH2 0xEDA DUP3 DUP3 PUSH2 0xE94 JUMP JUMPDEST SWAP2 SWAP1 POP JUMP JUMPDEST PUSH0 PUSH8 0xFFFFFFFFFFFFFFFF DUP3 GT ISZERO PUSH2 0xEF9 JUMPI PUSH2 0xEF8 PUSH2 0xE67 JUMP JUMPDEST JUMPDEST PUSH2 0xF02 DUP3 PUSH2 0xE57 JUMP JUMPDEST SWAP1 POP PUSH1 0x20 DUP2 ADD SWAP1 POP SWAP2 SWAP1 POP JUMP JUMPDEST DUP3 DUP2 DUP4 CALLDATACOPY PUSH0 DUP4 DUP4 ADD MSTORE POP POP POP JUMP JUMPDEST PUSH0 PUSH2 0xF2F PUSH2 0xF2A DUP5 PUSH2 0xEDF JUMP JUMPDEST PUSH2 0xEC5 JUMP JUMPDEST SWAP1 POP DUP3 DUP2 MSTORE PUSH1 0x20 DUP2 ADD DUP5 DUP5 DUP5 ADD GT ISZERO PUSH2 0xF4B JUMPI PUSH2 0xF4A PUSH2 0xE53 JUMP JUMPDEST JUMPDEST PUSH2 0xF56 DUP5 DUP3 DUP6 PUSH2 0xF0F JUMP JUMPDEST POP SWAP4 SWAP3 POP POP POP JUMP JUMPDEST PUSH0 DUP3 PUSH1 0x1F DUP4 ADD SLT PUSH2 0xF72 JUMPI PUSH2 0xF71 PUSH2 0xE4F JUMP JUMPDEST JUMPDEST DUP2 CALLDATALOAD PUSH2 0xF82 DUP5 DUP3 PUSH1 0x20 DUP7 ADD PUSH2 0xF1D JUMP JUMPDEST SWAP2 POP POP SWAP3 SWAP2 POP POP JUMP JUMPDEST PUSH0 PUSH1 0x20 DUP3 DUP5 SUB SLT ISZERO PUSH2 0xFA0 JUMPI PUSH2 0xF9F PUSH2 0xE47 JUMP JUMPDEST JUMPDEST PUSH0 DUP3 ADD CALLDATALOAD PUSH8 0xFFFFFFFFFFFFFFFF DUP2 GT ISZERO PUSH2 0xFBD JUMPI PUSH2 0xFBC PUSH2 0xE4B JUMP JUMPDEST JUMPDEST PUSH2 0xFC9 DUP5 DUP3 DUP6 ADD PUSH2 0xF5E JUMP JUMPDEST SWAP2 POP POP SWAP3 SWAP2 POP POP JUMP JUMPDEST PUSH0 PUSH20 0xFFFFFFFFFFFFFFFFFFFFFFFFFFFFFFFFFFFFFFFF DUP3 AND SWAP1 POP SWAP2 SWAP1 POP JUMP JUMPDEST PUSH0 PUSH2 0xFFB DUP3 PUSH2 0xFD2 JUMP JUMPDEST SWAP1 POP SWAP2 SWAP1 POP JUMP JUMPDEST PUSH2 0x100B DUP2 PUSH2 0xFF1 JUMP JUMPDEST DUP2 EQ PUSH2 0x1015 JUMPI PUSH0 PUSH0 REVERT JUMPDEST POP JUMP JUMPDEST PUSH0 DUP2 CALLDATALOAD SWAP1 POP PUSH2 0x1026 DUP2 PUSH2 0x1002 JUMP JUMPDEST SWAP3 SWAP2 POP POP JUMP JUMPDEST PUSH0 PUSH1 0x20 DUP3 DUP5 SUB SLT ISZERO PUSH2 0x1041 JUMPI PUSH2 0x1040 PUSH2 0xE47 JUMP JUMPDEST JUMPDEST PUSH0 PUSH2 0x104E DUP5 DUP3 DUP6 ADD PUSH2 0x1018 JUMP JUMPDEST SWAP2 POP POP SWAP3 SWAP2 POP POP JUMP JUMPDEST PUSH0 DUP2 ISZERO ISZERO SWAP1 POP SWAP2 SWAP1 POP JUMP JUMPDEST PUSH2 0x106B DUP2 PUSH2 0x1057 JUMP JUMPDEST DUP3 MSTORE POP POP JUMP JUMPDEST PUSH0 PUSH1 0x20 DUP3 ADD SWAP1 POP PUSH2 0x1084 PUSH0 DUP4 ADD DUP5 PUSH2 0x1062 JUMP JUMPDEST SWAP3 SWAP2 POP POP JUMP JUMPDEST PUSH2 0x1093 DUP2 PUSH2 0xFF1 JUMP JUMPDEST DUP3 MSTORE POP POP JUMP JUMPDEST PUSH0 PUSH1 0x20 DUP3 ADD SWAP1 POP PUSH2 0x10AC PUSH0 DUP4 ADD DUP5 PUSH2 0x108A JUMP JUMPDEST SWAP3 SWAP2 POP POP JUMP JUMPDEST PUSH0 DUP2 MLOAD SWAP1 POP SWAP2 SWAP1 POP JUMP JUMPDEST PUSH0 DUP3 DUP3 MSTORE PUSH1 0x20 DUP3 ADD SWAP1 POP SWAP3 SWAP2 POP POP JUMP JUMPDEST DUP3 DUP2 DUP4 MCOPY PUSH0 DUP4 DUP4 ADD MSTORE POP POP POP JUMP JUMPDEST PUSH0 PUSH2 0x10E4 DUP3 PUSH2 0x10B2 JUMP JUMPDEST PUSH2 0x10EE DUP2 DUP6 PUSH2 0x10BC JUMP JUMPDEST SWAP4 POP PUSH2 0x10FE DUP2 DUP6 PUSH1 0x20 DUP7 ADD PUSH2 0x10CC JUMP JUMPDEST PUSH2 0x1107 DUP2 PUSH2 0xE57 JUMP JUMPDEST DUP5 ADD SWAP2 POP POP SWAP3 SWAP2 POP POP JUMP JUMPDEST PUSH0 DUP2 SWAP1 POP SWAP2 SWAP1 POP JUMP JUMPDEST PUSH2 0x1124 DUP2 PUSH2 0x1112 JUMP JUMPDEST DUP3 MSTORE POP POP JUMP JUMPDEST PUSH0 PUSH1 0xA0 DUP3 ADD SWAP1 POP DUP2 DUP2 SUB PUSH0 DUP4 ADD MSTORE PUSH2 0x1142 DUP2 DUP9 PUSH2 0x10DA JUMP JUMPDEST SWAP1 POP DUP2 DUP2 SUB PUSH1 0x20 DUP4 ADD MSTORE PUSH2 0x1156 DUP2 DUP8 PUSH2 0x10DA JUMP JUMPDEST SWAP1 POP DUP2 DUP2 SUB PUSH1 0x40 DUP4 ADD MSTORE PUSH2 0x116A DUP2 DUP7 PUSH2 0x10DA JUMP JUMPDEST SWAP1 POP PUSH2 0x1179 PUSH1 0x60 DUP4 ADD DUP6 PUSH2 0x111B JUMP JUMPDEST PUSH2 0x1186 PUSH1 0x80 DUP4 ADD DUP5 PUSH2 0x1062 JUMP JUMPDEST SWAP7 SWAP6 POP POP POP POP POP POP JUMP JUMPDEST PUSH0 PUSH0 PUSH0 PUSH1 0x60 DUP5 DUP7 SUB SLT ISZERO PUSH2 0x11A7 JUMPI PUSH2 0x11A6 PUSH2 0xE47 JUMP JUMPDEST JUMPDEST PUSH0 DUP5 ADD CALLDATALOAD PUSH8 0xFFFFFFFFFFFFFFFF DUP2 GT ISZERO PUSH2 0x11C4 JUMPI PUSH2 0x11C3 PUSH2 0xE4B JUMP JUMPDEST JUMPDEST PUSH2 0x11D0 DUP7 DUP3 DUP8 ADD PUSH2 0xF5E JUMP JUMPDEST SWAP4 POP POP PUSH1 0x20 DUP5 ADD CALLDATALOAD PUSH8 0xFFFFFFFFFFFFFFFF DUP2 GT ISZERO PUSH2 0x11F1 JUMPI PUSH2 0x11F0 PUSH2 0xE4B JUMP JUMPDEST JUMPDEST PUSH2 0x11FD DUP7 DUP3 DUP8 ADD PUSH2 0xF5E JUMP JUMPDEST SWAP3 POP POP PUSH1 0x40 DUP5 ADD CALLDATALOAD PUSH8 0xFFFFFFFFFFFFFFFF DUP2 GT ISZERO PUSH2 0x121E JUMPI PUSH2 0x121D PUSH2 0xE4B JUMP JUMPDEST JUMPDEST PUSH2 0x122A DUP7 DUP3 DUP8 ADD PUSH2 0xF5E JUMP JUMPDEST SWAP2 POP POP SWAP3 POP SWAP3 POP SWAP3 JUMP JUMPDEST PUSH32 0x55736572206E6F74207265676973746572656400000000000000000000000000 PUSH0 DUP3 ADD MSTORE POP JUMP JUMPDEST PUSH0 PUSH2 0x1268 PUSH1 0x13 DUP4 PUSH2 0x10BC JUMP JUMPDEST SWAP2 POP PUSH2 0x1273 DUP3 PUSH2 0x1234 JUMP JUMPDEST PUSH1 0x20 DUP3 ADD SWAP1 POP SWAP2 SWAP1 POP JUMP JUMPDEST PUSH0 PUSH1 0x20 DUP3 ADD SWAP1 POP DUP2 DUP2 SUB PUSH0 DUP4 ADD MSTORE PUSH2 0x1295 DUP2 PUSH2 0x125C JUMP JUMPDEST SWAP1 POP SWAP2 SWAP1 POP JUMP JUMPDEST PUSH32 0x50726F66696C6520686173682063616E6E6F7420626520656D70747900000000 PUSH0 DUP3 ADD MSTORE POP JUMP JUMPDEST PUSH0 PUSH2 0x12D0 PUSH1 0x1C DUP4 PUSH2 0x10BC JUMP JUMPDEST SWAP2 POP PUSH2 0x12DB DUP3 PUSH2 0x129C JUMP JUMPDEST PUSH1 0x20 DUP3 ADD SWAP1 POP SWAP2 SWAP1 POP JUMP JUMPDEST PUSH0 PUSH1 0x20 DUP3 ADD SWAP1 POP DUP2 DUP2 SUB PUSH0 DUP4 ADD MSTORE PUSH2 0x12FD DUP2 PUSH2 0x12C4 JUMP JUMPDEST SWAP1 POP SWAP2 SWAP1 POP JUMP JUMPDEST PUSH32 0x4E487B7100000000000000000000000000000000000000000000000000000000 PUSH0 MSTORE PUSH1 0x22 PUSH1 0x4 MSTORE PUSH1 0x24 PUSH0 REVERT JUMPDEST PUSH0 PUSH1 0x2 DUP3 DIV SWAP1 POP PUSH1 0x1 DUP3 AND DUP1 PUSH2 0x1348 JUMPI PUSH1 0x7F DUP3 AND SWAP2 POP JUMPDEST PUSH1 0x20 DUP3 LT DUP2 SUB PUSH2 0x135B JUMPI PUSH2 0x135A PUSH2 0x1304 JUMP JUMPDEST JUMPDEST POP SWAP2 SWAP1 POP JUMP JUMPDEST PUSH0 DUP2 SWAP1 POP DUP2 PUSH0 MSTORE PUSH1 0x20 PUSH0 KECCAK256 SWAP1 POP SWAP2 SWAP1 POP JUMP JUMPDEST PUSH0 PUSH1 0x20 PUSH1 0x1F DUP4 ADD DIV SWAP1 POP SWAP2 SWAP1 POP JUMP JUMPDEST PUSH0 DUP3 DUP3 SHL SWAP1 POP SWAP3 SWAP2 POP POP JUMP JUMPDEST PUSH0 PUSH1 0x8 DUP4 MUL PUSH2 0x13BD PUSH32 0xFFFFFFFFFFFFFFFFFFFFFFFFFFFFFFFFFFFFFFFFFFFFFFFFFFFFFFFFFFFFFFFF DUP3 PUSH2 0x1382 JUMP JUMPDEST PUSH2 0x13C7 DUP7 DUP4 PUSH2 0x1382 JUMP JUMPDEST SWAP6 POP DUP1 NOT DUP5 AND SWAP4 POP DUP1 DUP7 AND DUP5 OR SWAP3 POP POP POP SWAP4 SWAP3 POP POP POP JUMP JUMPDEST PUSH0 DUP2 SWAP1 POP SWAP2 SWAP1 POP JUMP JUMPDEST PUSH0 PUSH2 0x1402 PUSH2 0x13FD PUSH2 0x13F8 DUP5 PUSH2 0x1112 JUMP JUMPDEST PUSH2 0x13DF JUMP JUMPDEST PUSH2 0x1112 JUMP JUMPDEST SWAP1 POP SWAP2 SWAP1 POP JUMP JUMPDEST PUSH0 DUP2 SWAP1 POP SWAP2 SWAP1 POP JUMP JUMPDEST PUSH2 0x141B DUP4 PUSH2 0x13E8 JUMP JUMPDEST PUSH2 0x142F PUSH2 0x1427 DUP3 PUSH2 0x1409 JUMP JUMPDEST DUP5 DUP5 SLOAD PUSH2 0x138E JUMP JUMPDEST DUP3 SSTORE POP POP POP POP JUMP JUMPDEST PUSH0 PUSH0 SWAP1 POP SWAP1 JUMP JUMPDEST PUSH2 0x1446 PUSH2 0x1437 JUMP JUMPDEST PUSH2 0x1451 DUP2 DUP5 DUP5 PUSH2 0x1412 JUMP JUMPDEST POP POP POP JUMP JUMPDEST JUMPDEST DUP2 DUP2 LT ISZERO PUSH2 0x1474 JUMPI PUSH2 0x1469 PUSH0 DUP3 PUSH2 0x143E JUMP JUMPDEST PUSH1 0x1 DUP2 ADD SWAP1 POP PUSH2 0x1457 JUMP JUMPDEST POP POP JUMP JUMPDEST PUSH1 0x1F DUP3 GT ISZERO PUSH2 0x14B9 JUMPI PUSH2 0x148A DUP2 PUSH2 0x1361 JUMP JUMPDEST PUSH2 0x1493 DUP5 PUSH2 0x1373 JUMP JUMPDEST DUP2 ADD PUSH1 0x20 DUP6 LT ISZERO PUSH2 0x14A2 JUMPI DUP2 SWAP1 POP JUMPDEST PUSH2 0x14B6 PUSH2 0x14AE DUP6 PUSH2 0x1373 JUMP JUMPDEST DUP4 ADD DUP3 PUSH2 0x1456 JUMP JUMPDEST POP POP JUMPDEST POP POP POP JUMP JUMPDEST PUSH0 DUP3 DUP3 SHR SWAP1 POP SWAP3 SWAP2 POP POP JUMP JUMPDEST PUSH0 PUSH2 0x14D9 PUSH0 NOT DUP5 PUSH1 0x8 MUL PUSH2 0x14BE JUMP JUMPDEST NOT DUP1 DUP4 AND SWAP2 POP POP SWAP3 SWAP2 POP POP JUMP JUMPDEST PUSH0 PUSH2 0x14F1 DUP4 DUP4 PUSH2 0x14CA JUMP JUMPDEST SWAP2 POP DUP3 PUSH1 0x2 MUL DUP3 OR SWAP1 POP SWAP3 SWAP2 POP POP JUMP JUMPDEST PUSH2 0x150A DUP3 PUSH2 0x10B2 JUMP JUMPDEST PUSH8 0xFFFFFFFFFFFFFFFF DUP2 GT ISZERO PUSH2 0x1523 JUMPI PUSH2 0x1522 PUSH2 0xE67 JUMP JUMPDEST JUMPDEST PUSH2 0x152D DUP3 SLOAD PUSH2 0x1331 JUMP JUMPDEST PUSH2 0x1538 DUP3 DUP3 DUP6 PUSH2 0x1478 JUMP JUMPDEST PUSH0 PUSH1 0x20 SWAP1 POP PUSH1 0x1F DUP4 GT PUSH1 0x1 DUP2 EQ PUSH2 0x1569 JUMPI PUSH0 DUP5 ISZERO PUSH2 0x1557 JUMPI DUP3 DUP8 ADD MLOAD SWAP1 POP JUMPDEST PUSH2 0x1561 DUP6 DUP3 PUSH2 0x14E6 JUMP JUMPDEST DUP7 SSTORE POP PUSH2 0x15C8 JUMP JUMPDEST PUSH1 0x1F NOT DUP5 AND PUSH2 0x1577 DUP7 PUSH2 0x1361 JUMP JUMPDEST PUSH0 JUMPDEST DUP3 DUP2 LT ISZERO PUSH2 0x159E JUMPI DUP5 DUP10 ADD MLOAD DUP3 SSTORE PUSH1 0x1 DUP3 ADD SWAP2 POP PUSH1 0x20 DUP6 ADD SWAP5 POP PUSH1 0x20 DUP2 ADD SWAP1 POP PUSH2 0x1579 JUMP JUMPDEST DUP7 DUP4 LT ISZERO PUSH2 0x15BB JUMPI DUP5 DUP10 ADD MLOAD PUSH2 0x15B7 PUSH1 0x1F DUP10 AND DUP3 PUSH2 0x14CA JUMP JUMPDEST DUP4 SSTORE POP JUMPDEST PUSH1 0x1 PUSH1 0x2 DUP9 MUL ADD DUP9 SSTORE POP POP POP JUMPDEST POP POP POP POP POP POP JUMP JUMPDEST PUSH0 PUSH1 0x20 DUP3 ADD SWAP1 POP DUP2 DUP2 SUB PUSH0 DUP4 ADD MSTORE PUSH2 0x15E8 DUP2 DUP5 PUSH2 0x10DA JUMP JUMPDEST SWAP1 POP SWAP3 SWAP2 POP POP JUMP JUMPDEST PUSH0 DUP2 SWAP1 POP SWAP3 SWAP2 POP POP JUMP JUMPDEST PUSH0 PUSH2 0x1604 DUP3 PUSH2 0x10B2 JUMP JUMPDEST PUSH2 0x160E DUP2 DUP6 PUSH2 0x15F0 JUMP JUMPDEST SWAP4 POP PUSH2 0x161E DUP2 DUP6 PUSH1 0x20 DUP7 ADD PUSH2 0x10CC JUMP JUMPDEST DUP1 DUP5 ADD SWAP2 POP POP SWAP3 SWAP2 POP POP JUMP JUMPDEST PUSH0 PUSH2 0x1635 DUP3 DUP5 PUSH2 0x15FA JUMP JUMPDEST SWAP2 POP DUP2 SWAP1 POP SWAP3 SWAP2 POP POP JUMP JUMPDEST PUSH32 0x55736572206E6F7420666F756E64000000000000000000000000000000000000 PUSH0 DUP3 ADD MSTORE POP JUMP JUMPDEST PUSH0 PUSH2 0x1674 PUSH1 0xE DUP4 PUSH2 0x10BC JUMP JUMPDEST SWAP2 POP PUSH2 0x167F DUP3 PUSH2 0x1640 JUMP JUMPDEST PUSH1 0x20 DUP3 ADD SWAP1 POP SWAP2 SWAP1 POP JUMP JUMPDEST PUSH0 PUSH1 0x20 DUP3 ADD SWAP1 POP DUP2 DUP2 SUB PUSH0 DUP4 ADD MSTORE PUSH2 0x16A1 DUP2 PUSH2 0x1668 JUMP JUMPDEST SWAP1 POP SWAP2 SWAP1 POP JUMP JUMPDEST PUSH32 0x557365726E616D652063616E6E6F7420626520656D7074790000000000000000 PUSH0 DUP3 ADD MSTORE POP JUMP JUMPDEST PUSH0 PUSH2 0x16DC PUSH1 0x18 DUP4 PUSH2 0x10BC JUMP JUMPDEST SWAP2 POP PUSH2 0x16E7 DUP3 PUSH2 0x16A8 JUMP JUMPDEST PUSH1 0x20 DUP3 ADD SWAP1 POP SWAP2 SWAP1 POP JUMP JUMPDEST PUSH0 PUSH1 0x20 DUP3 ADD SWAP1 POP DUP2 DUP2 SUB PUSH0 DUP4 ADD MSTORE PUSH2 0x1709 DUP2 PUSH2 0x16D0 JUMP JUMPDEST SWAP1 POP SWAP2 SWAP1 POP JUMP JUMPDEST PUSH32 0x456D61696C2063616E6E6F7420626520656D7074790000000000000000000000 PUSH0 DUP3 ADD MSTORE POP JUMP JUMPDEST PUSH0 PUSH2 0x1744 PUSH1 0x15 DUP4 PUSH2 0x10BC JUMP JUMPDEST SWAP2 POP PUSH2 0x174F DUP3 PUSH2 0x1710 JUMP JUMPDEST PUSH1 0x20 DUP3 ADD SWAP1 POP SWAP2 SWAP1 POP JUMP JUMPDEST PUSH0 PUSH1 0x20 DUP3 ADD SWAP1 POP DUP2 DUP2 SUB PUSH0 DUP4 ADD MSTORE PUSH2 0x1771 DUP2 PUSH2 0x1738 JUMP JUMPDEST SWAP1 POP SWAP2 SWAP1 POP JUMP JUMPDEST PUSH32 0x557365726E616D6520616C72656164792074616B656E00000000000000000000 PUSH0 DUP3 ADD MSTORE POP JUMP JUMPDEST PUSH0 PUSH2 0x17AC PUSH1 0x16 DUP4 PUSH2 0x10BC JUMP JUMPDEST SWAP2 POP PUSH2 0x17B7 DUP3 PUSH2 0x1778 JUMP JUMPDEST PUSH1 0x20 DUP3 ADD SWAP1 POP SWAP2 SWAP1 POP JUMP JUMPDEST PUSH0 PUSH1 0x20 DUP3 ADD SWAP1 POP DUP2 DUP2 SUB PUSH0 DUP4 ADD MSTORE PUSH2 0x17D9 DUP2 PUSH2 0x17A0 JUMP JUMPDEST SWAP1 POP SWAP2 SWAP1 POP JUMP JUMPDEST PUSH32 0x4164647265737320616C72656164792072656769737465726564000000000000 PUSH0 DUP3 ADD MSTORE POP JUMP JUMPDEST PUSH0 PUSH2 0x1814 PUSH1 0x1A DUP4 PUSH2 0x10BC JUMP JUMPDEST SWAP2 POP PUSH2 0x181F DUP3 PUSH2 0x17E0 JUMP JUMPDEST PUSH1 0x20 DUP3 ADD SWAP1 POP SWAP2 SWAP1 POP JUMP JUMPDEST PUSH0 PUSH1 0x20 DUP3 ADD SWAP1 POP DUP2 DUP2 SUB PUSH0 DUP4 ADD MSTORE PUSH2 0x1841 DUP2 PUSH2 0x1808 JUMP JUMPDEST SWAP1 POP SWAP2 SWAP1 POP JUMP JUMPDEST PUSH0 PUSH1 0x40 DUP3 ADD SWAP1 POP DUP2 DUP2 SUB PUSH0 DUP4 ADD MSTORE PUSH2 0x1860 DUP2 DUP6 PUSH2 0x10DA JUMP JUMPDEST SWAP1 POP PUSH2 0x186F PUSH1 0x20 DUP4 ADD DUP5 PUSH2 0x111B JUMP JUMPDEST SWAP4 SWAP3 POP POP POP JUMP JUMPDEST PUSH32 0x4F6E6C79206F776E65722063616E2063616C6C20746869732066756E6374696F PUSH0 DUP3 ADD MSTORE PUSH32 0x6E00000000000000000000000000000000000000000000000000000000000000 PUSH1 0x20 DUP3 ADD MSTORE POP JUMP JUMPDEST PUSH0 PUSH2 0x18D0 PUSH1 0x21 DUP4 PUSH2 0x10BC JUMP JUMPDEST SWAP2 POP PUSH2 0x18DB DUP3 PUSH2 0x1876 JUMP JUMPDEST PUSH1 0x40 DUP3 ADD SWAP1 POP SWAP2 SWAP1 POP JUMP JUMPDEST PUSH0 PUSH1 0x20 DUP3 ADD SWAP1 POP DUP2 DUP2 SUB PUSH0 DUP4 ADD MSTORE PUSH2 0x18FD DUP2 PUSH2 0x18C4 JUMP JUMPDEST SWAP1 POP SWAP2 SWAP1 POP JUMP INVALID LOG2 PUSH5 0x6970667358 0x22 SLT KECCAK256 0xB8 CREATE 0xC1 SWAP13 0xB6 DUP14 LOG1 COINBASE SWAP4 GASLIMIT PUSH32 0x3870EE4B2164B2B283C96B6EFD80124A826DAC125264736F6C634300081E0033 "
				},
				"gasEstimates": {
					"creation": {
						"codeDepositCost": "1291600",
						"executionCost": "25605",
						"totalCost": "1317205"
					},
					"external": {
						"adminDeactivate(address)": "30465",
						"deactivateAccount()": "27965",
						"getAddressByUsername(string)": "infinite",
						"getUser(address)": "infinite",
						"isUserRegistered(address)": "2893",
						"owner()": "2530",
						"reactivateAccount()": "27945",
						"registerUser(string,string,string)": "infinite",
						"updateProfile(string)": "infinite"
					}
				},
				"methodIdentifiers": {
					"adminDeactivate(address)": "f1d2fd78",
					"deactivateAccount()": "e040e9a0",
					"getAddressByUsername(string)": "6322961d",
					"getUser(address)": "6f77926b",
					"isUserRegistered(address)": "163f7522",
					"owner()": "8da5cb5b",
					"reactivateAccount()": "5bbf11b2",
					"registerUser(string,string,string)": "d637dcfa",
					"updateProfile(string)": "009299e3"
				}
			},
			"storageLayout": {
				"storage": [
					{
						"astId": 17,
						"contract": "SocialNetworkAuth.sol:SocialNetworkAuth",
						"label": "users",
						"offset": 0,
						"slot": "0",
						"type": "t_mapping(t_address,t_struct(User)12_storage)"
					},
					{
						"astId": 21,
						"contract": "SocialNetworkAuth.sol:SocialNetworkAuth",
						"label": "usernameToAddress",
						"offset": 0,
						"slot": "1",
						"type": "t_mapping(t_string_memory_ptr,t_address)"
					},
					{
						"astId": 25,
						"contract": "SocialNetworkAuth.sol:SocialNetworkAuth",
						"label": "registeredAddresses",
						"offset": 0,
						"slot": "2",
						"type": "t_mapping(t_address,t_bool)"
					},
					{
						"astId": 27,
						"contract": "SocialNetworkAuth.sol:SocialNetworkAuth",
						"label": "owner",
						"offset": 0,
						"slot": "3",
						"type": "t_address"
					}
				],
				"types": {
					"t_address": {
						"encoding": "inplace",
						"label": "address",
						"numberOfBytes": "20"
					},
					"t_bool": {
						"encoding": "inplace",
						"label": "bool",
						"numberOfBytes": "1"
					},
					"t_mapping(t_address,t_bool)": {
						"encoding": "mapping",
						"key": "t_address",
						"label": "mapping(address => bool)",
						"numberOfBytes": "32",
						"value": "t_bool"
					},
					"t_mapping(t_address,t_struct(User)12_storage)": {
						"encoding": "mapping",
						"key": "t_address",
						"label": "mapping(address => struct SocialNetworkAuth.User)",
						"numberOfBytes": "32",
						"value": "t_struct(User)12_storage"
					},
					"t_mapping(t_string_memory_ptr,t_address)": {
						"encoding": "mapping",
						"key": "t_string_memory_ptr",
						"label": "mapping(string => address)",
						"numberOfBytes": "32",
						"value": "t_address"
					},
					"t_string_memory_ptr": {
						"encoding": "bytes",
						"label": "string",
						"numberOfBytes": "32"
					},
					"t_string_storage": {
						"encoding": "bytes",
						"label": "string",
						"numberOfBytes": "32"
					},
					"t_struct(User)12_storage": {
						"encoding": "inplace",
						"label": "struct SocialNetworkAuth.User",
						"members": [
							{
								"astId": 3,
								"contract": "SocialNetworkAuth.sol:SocialNetworkAuth",
								"label": "username",
								"offset": 0,
								"slot": "0",
								"type": "t_string_storage"
							},
							{
								"astId": 5,
								"contract": "SocialNetworkAuth.sol:SocialNetworkAuth",
								"label": "encryptedEmail",
								"offset": 0,
								"slot": "1",
								"type": "t_string_storage"
							},
							{
								"astId": 7,
								"contract": "SocialNetworkAuth.sol:SocialNetworkAuth",
								"label": "profileHash",
								"offset": 0,
								"slot": "2",
								"type": "t_string_storage"
							},
							{
								"astId": 9,
								"contract": "SocialNetworkAuth.sol:SocialNetworkAuth",
								"label": "registrationDate",
								"offset": 0,
								"slot": "3",
								"type": "t_uint256"
							},
							{
								"astId": 11,
								"contract": "SocialNetworkAuth.sol:SocialNetworkAuth",
								"label": "isActive",
								"offset": 0,
								"slot": "4",
								"type": "t_bool"
							}
						],
						"numberOfBytes": "160"
					},
					"t_uint256": {
						"encoding": "inplace",
						"label": "uint256",
						"numberOfBytes": "32"
					}
				}
			},
			"userdoc": {
				"kind": "user",
				"methods": {},
				"version": 1
			}
		}
	}
}